{
  "contractName": "AccessManage",
  "abi": [
    {
      "inputs": [],
      "stateMutability": "nonpayable",
      "type": "constructor"
    },
    {
      "anonymous": false,
      "inputs": [
        {
          "indexed": true,
          "internalType": "address",
          "name": "account",
          "type": "address"
        },
        {
          "indexed": false,
          "internalType": "string",
          "name": "role",
          "type": "string"
        }
      ],
      "name": "RoleAssigned",
      "type": "event"
    },
    {
      "anonymous": false,
      "inputs": [
        {
          "indexed": true,
          "internalType": "address",
          "name": "account",
          "type": "address"
        },
        {
          "indexed": false,
          "internalType": "string",
          "name": "role",
          "type": "string"
        }
      ],
      "name": "RoleRemoved",
      "type": "event"
    },
    {
      "anonymous": false,
      "inputs": [
        {
          "indexed": true,
          "internalType": "address",
          "name": "account",
          "type": "address"
        },
        {
          "indexed": false,
          "internalType": "string",
          "name": "name",
          "type": "string"
        },
        {
          "indexed": false,
          "internalType": "string",
          "name": "email",
          "type": "string"
        }
      ],
      "name": "UserAdded",
      "type": "event"
    },
    {
      "inputs": [
        {
          "internalType": "address",
          "name": "account",
          "type": "address"
        },
        {
          "internalType": "string",
          "name": "name",
          "type": "string"
        },
        {
          "internalType": "string",
          "name": "email",
          "type": "string"
        },
        {
          "internalType": "string",
          "name": "tokenURI",
          "type": "string"
        }
      ],
      "name": "addUser",
      "outputs": [],
      "stateMutability": "nonpayable",
      "type": "function"
    },
    {
      "inputs": [
        {
          "internalType": "address",
          "name": "account",
          "type": "address"
        },
        {
          "internalType": "string",
          "name": "role",
          "type": "string"
        }
      ],
      "name": "assignRole",
      "outputs": [],
      "stateMutability": "nonpayable",
      "type": "function"
    },
    {
      "inputs": [
        {
          "internalType": "address",
          "name": "account",
          "type": "address"
        },
        {
          "internalType": "string",
          "name": "role",
          "type": "string"
        }
      ],
      "name": "removeRole",
      "outputs": [],
      "stateMutability": "nonpayable",
      "type": "function"
    },
    {
      "inputs": [
        {
          "internalType": "address",
          "name": "account",
          "type": "address"
        }
      ],
      "name": "getUserInfo",
      "outputs": [
        {
          "internalType": "string",
          "name": "name",
          "type": "string"
        },
        {
          "internalType": "string",
          "name": "email",
          "type": "string"
        },
        {
          "internalType": "string",
          "name": "tokenURI",
          "type": "string"
        }
      ],
      "stateMutability": "view",
      "type": "function",
      "constant": true
    },
    {
      "inputs": [
        {
          "internalType": "address",
          "name": "account",
          "type": "address"
        }
      ],
      "name": "isAdmin",
      "outputs": [
        {
          "internalType": "bool",
          "name": "",
          "type": "bool"
        }
      ],
      "stateMutability": "view",
      "type": "function",
      "constant": true
    },
    {
      "inputs": [
        {
          "internalType": "address",
          "name": "account",
          "type": "address"
        }
      ],
      "name": "isVerifier",
      "outputs": [
        {
          "internalType": "bool",
          "name": "",
          "type": "bool"
        }
      ],
      "stateMutability": "view",
      "type": "function",
      "constant": true
    },
    {
      "inputs": [
        {
          "internalType": "address",
          "name": "account",
          "type": "address"
        }
      ],
      "name": "isUser",
      "outputs": [
        {
          "internalType": "bool",
          "name": "",
          "type": "bool"
        }
      ],
      "stateMutability": "view",
      "type": "function",
      "constant": true
    }
  ],
  "bytecode": "0x60806040523480156200001157600080fd5b506200002d3360026200003360201b62000ad41790919060201c565b620002cb565b620000458282620000e660201b60201c565b1562000088576040517f08c379a00000000000000000000000000000000000000000000000000000000081526004016200007f9062000211565b60405180910390fd5b60018260000160008373ffffffffffffffffffffffffffffffffffffffff1673ffffffffffffffffffffffffffffffffffffffff16815260200190815260200160002060006101000a81548160ff0219169083151502179055505050565b60008073ffffffffffffffffffffffffffffffffffffffff168273ffffffffffffffffffffffffffffffffffffffff160362000159576040517f08c379a00000000000000000000000000000000000000000000000000000000081526004016200015090620002a9565b60405180910390fd5b8260000160008373ffffffffffffffffffffffffffffffffffffffff1673ffffffffffffffffffffffffffffffffffffffff16815260200190815260200160002060009054906101000a900460ff16905092915050565b600082825260208201905092915050565b7f526f6c65733a206163636f756e7420616c72656164792068617320726f6c6500600082015250565b6000620001f9601f83620001b0565b91506200020682620001c1565b602082019050919050565b600060208201905081810360008301526200022c81620001ea565b9050919050565b7f526f6c65733a206163636f756e7420697320746865207a65726f20616464726560008201527f7373000000000000000000000000000000000000000000000000000000000000602082015250565b600062000291602283620001b0565b91506200029e8262000233565b604082019050919050565b60006020820190508181036000830152620002c48162000282565b9050919050565b6116a780620002db6000396000f3fe608060405234801561001057600080fd5b506004361061007d5760003560e01c80634209fff11161005b5780634209fff1146100fe5780636386c1c71461012e578063b7dfcbee14610160578063c6361c221461017c5761007d565b80631bfe03081461008257806324d7806c1461009e57806333105218146100ce575b600080fd5b61009c60048036038101906100979190610f45565b610198565b005b6100b860048036038101906100b39190610fa1565b6103b4565b6040516100c59190610fe9565b60405180910390f35b6100e860048036038101906100e39190610fa1565b6103d1565b6040516100f59190610fe9565b60405180910390f35b61011860048036038101906101139190610fa1565b6103ee565b6040516101259190610fe9565b60405180910390f35b61014860048036038101906101439190610fa1565b61040b565b6040516101579392919061108c565b60405180910390f35b61017a60048036038101906101759190610f45565b610684565b005b610196600480360381019061019191906110d8565b6108a0565b005b6101ac336002610b7c90919063ffffffff16565b6101eb576040517f08c379a00000000000000000000000000000000000000000000000000000000081526004016101e290611205565b60405180910390fd5b600073ffffffffffffffffffffffffffffffffffffffff168273ffffffffffffffffffffffffffffffffffffffff160361025a576040517f08c379a000000000000000000000000000000000000000000000000000000000815260040161025190611271565b60405180910390fd5b7f121833d5ee4fda5e1a4034c2b7be8155c158142541dea26f39122c796649233f8160405160200161028c91906112cd565b60405160208183030381529060405280519060200120036102c0576102bb826001610c4390919063ffffffff16565b610362565b7fa729ef4e25027bc652fc8b5c4d1d902947361fa7c8e7b4905e877823f27331b3816040516020016102f291906112cd565b604051602081830303815290604052805190602001200361032657610321826002610c4390919063ffffffff16565b610361565b6040517f08c379a000000000000000000000000000000000000000000000000000000000815260040161035890611330565b60405180910390fd5b5b8173ffffffffffffffffffffffffffffffffffffffff167fd211483f91fc6eff862467f8de606587a30c8fc9981056f051b897a418df803a826040516103a89190611350565b60405180910390a25050565b60006103ca826002610b7c90919063ffffffff16565b9050919050565b60006103e7826001610b7c90919063ffffffff16565b9050919050565b6000610404826000610b7c90919063ffffffff16565b9050919050565b6060806060610424846000610b7c90919063ffffffff16565b610463576040517f08c379a000000000000000000000000000000000000000000000000000000000815260040161045a906113be565b60405180910390fd5b6000600360008673ffffffffffffffffffffffffffffffffffffffff1673ffffffffffffffffffffffffffffffffffffffff1681526020019081526020016000206040518060600160405290816000820180546104bf9061140d565b80601f01602080910402602001604051908101604052809291908181526020018280546104eb9061140d565b80156105385780601f1061050d57610100808354040283529160200191610538565b820191906000526020600020905b81548152906001019060200180831161051b57829003601f168201915b505050505081526020016001820180546105519061140d565b80601f016020809104026020016040519081016040528092919081815260200182805461057d9061140d565b80156105ca5780601f1061059f576101008083540402835291602001916105ca565b820191906000526020600020905b8154815290600101906020018083116105ad57829003601f168201915b505050505081526020016002820180546105e39061140d565b80601f016020809104026020016040519081016040528092919081815260200182805461060f9061140d565b801561065c5780601f106106315761010080835404028352916020019161065c565b820191906000526020600020905b81548152906001019060200180831161063f57829003601f168201915b5050505050815250509050806000015181602001518260400151935093509350509193909250565b610698336002610b7c90919063ffffffff16565b6106d7576040517f08c379a00000000000000000000000000000000000000000000000000000000081526004016106ce90611205565b60405180910390fd5b600073ffffffffffffffffffffffffffffffffffffffff168273ffffffffffffffffffffffffffffffffffffffff1603610746576040517f08c379a000000000000000000000000000000000000000000000000000000000815260040161073d90611271565b60405180910390fd5b7f121833d5ee4fda5e1a4034c2b7be8155c158142541dea26f39122c796649233f8160405160200161077891906112cd565b60405160208183030381529060405280519060200120036107ac576107a7826001610ad490919063ffffffff16565b61084e565b7fa729ef4e25027bc652fc8b5c4d1d902947361fa7c8e7b4905e877823f27331b3816040516020016107de91906112cd565b60405160208183030381529060405280519060200120036108125761080d826002610ad490919063ffffffff16565b61084d565b6040517f08c379a000000000000000000000000000000000000000000000000000000000815260040161084490611330565b60405180910390fd5b5b8173ffffffffffffffffffffffffffffffffffffffff167f3565795c2fb8842c21347d277937778bbcfe788b5b4f790fc5e408786cbe9c90826040516108949190611350565b60405180910390a25050565b6108b4336002610b7c90919063ffffffff16565b6108f3576040517f08c379a00000000000000000000000000000000000000000000000000000000081526004016108ea90611205565b60405180910390fd5b600073ffffffffffffffffffffffffffffffffffffffff168473ffffffffffffffffffffffffffffffffffffffff1603610962576040517f08c379a000000000000000000000000000000000000000000000000000000000815260040161095990611271565b60405180910390fd5b610976846000610b7c90919063ffffffff16565b156109b6576040517f08c379a00000000000000000000000000000000000000000000000000000000081526004016109ad9061148a565b60405180910390fd5b6109ca846000610ad490919063ffffffff16565b604051806060016040528084815260200183815260200182815250600360008673ffffffffffffffffffffffffffffffffffffffff1673ffffffffffffffffffffffffffffffffffffffff1681526020019081526020016000206000820151816000019080519060200190610a40929190610cea565b506020820151816001019080519060200190610a5d929190610cea565b506040820151816002019080519060200190610a7a929190610cea565b509050508373ffffffffffffffffffffffffffffffffffffffff167f8eab1db142a914aff8b515eedb9177bd7effaef6d714c41e30bdf152067786078484604051610ac69291906114aa565b60405180910390a250505050565b610ade8282610b7c565b15610b1e576040517f08c379a0000000000000000000000000000000000000000000000000000000008152600401610b159061152d565b60405180910390fd5b60018260000160008373ffffffffffffffffffffffffffffffffffffffff1673ffffffffffffffffffffffffffffffffffffffff16815260200190815260200160002060006101000a81548160ff0219169083151502179055505050565b60008073ffffffffffffffffffffffffffffffffffffffff168273ffffffffffffffffffffffffffffffffffffffff1603610bec576040517f08c379a0000000000000000000000000000000000000000000000000000000008152600401610be3906115bf565b60405180910390fd5b8260000160008373ffffffffffffffffffffffffffffffffffffffff1673ffffffffffffffffffffffffffffffffffffffff16815260200190815260200160002060009054906101000a900460ff16905092915050565b610c4d8282610b7c565b610c8c576040517f08c379a0000000000000000000000000000000000000000000000000000000008152600401610c8390611651565b60405180910390fd5b60008260000160008373ffffffffffffffffffffffffffffffffffffffff1673ffffffffffffffffffffffffffffffffffffffff16815260200190815260200160002060006101000a81548160ff0219169083151502179055505050565b828054610cf69061140d565b90600052602060002090601f016020900481019282610d185760008555610d5f565b82601f10610d3157805160ff1916838001178555610d5f565b82800160010185558215610d5f579182015b82811115610d5e578251825591602001919060010190610d43565b5b509050610d6c9190610d70565b5090565b5b80821115610d89576000816000905550600101610d71565b5090565b6000604051905090565b600080fd5b600080fd5b600073ffffffffffffffffffffffffffffffffffffffff82169050919050565b6000610dcc82610da1565b9050919050565b610ddc81610dc1565b8114610de757600080fd5b50565b600081359050610df981610dd3565b92915050565b600080fd5b600080fd5b6000601f19601f8301169050919050565b7f4e487b7100000000000000000000000000000000000000000000000000000000600052604160045260246000fd5b610e5282610e09565b810181811067ffffffffffffffff82111715610e7157610e70610e1a565b5b80604052505050565b6000610e84610d8d565b9050610e908282610e49565b919050565b600067ffffffffffffffff821115610eb057610eaf610e1a565b5b610eb982610e09565b9050602081019050919050565b82818337600083830152505050565b6000610ee8610ee384610e95565b610e7a565b905082815260208101848484011115610f0457610f03610e04565b5b610f0f848285610ec6565b509392505050565b600082601f830112610f2c57610f2b610dff565b5b8135610f3c848260208601610ed5565b91505092915050565b60008060408385031215610f5c57610f5b610d97565b5b6000610f6a85828601610dea565b925050602083013567ffffffffffffffff811115610f8b57610f8a610d9c565b5b610f9785828601610f17565b9150509250929050565b600060208284031215610fb757610fb6610d97565b5b6000610fc584828501610dea565b91505092915050565b60008115159050919050565b610fe381610fce565b82525050565b6000602082019050610ffe6000830184610fda565b92915050565b600081519050919050565b600082825260208201905092915050565b60005b8381101561103e578082015181840152602081019050611023565b8381111561104d576000848401525b50505050565b600061105e82611004565b611068818561100f565b9350611078818560208601611020565b61108181610e09565b840191505092915050565b600060608201905081810360008301526110a68186611053565b905081810360208301526110ba8185611053565b905081810360408301526110ce8184611053565b9050949350505050565b600080600080608085870312156110f2576110f1610d97565b5b600061110087828801610dea565b945050602085013567ffffffffffffffff81111561112157611120610d9c565b5b61112d87828801610f17565b935050604085013567ffffffffffffffff81111561114e5761114d610d9c565b5b61115a87828801610f17565b925050606085013567ffffffffffffffff81111561117b5761117a610d9c565b5b61118787828801610f17565b91505092959194509250565b7f4f6e6c792061646d696e2063616e20706572666f726d2074686973206163746960008201527f6f6e000000000000000000000000000000000000000000000000000000000000602082015250565b60006111ef60228361100f565b91506111fa82611193565b604082019050919050565b6000602082019050818103600083015261121e816111e2565b9050919050565b7f496e76616c696420616464726573730000000000000000000000000000000000600082015250565b600061125b600f8361100f565b915061126682611225565b602082019050919050565b6000602082019050818103600083015261128a8161124e565b9050919050565b600081905092915050565b60006112a782611004565b6112b18185611291565b93506112c1818560208601611020565b80840191505092915050565b60006112d9828461129c565b915081905092915050565b7f496e76616c696420726f6c650000000000000000000000000000000000000000600082015250565b600061131a600c8361100f565b9150611325826112e4565b602082019050919050565b600060208201905081810360008301526113498161130d565b9050919050565b6000602082019050818103600083015261136a8184611053565b905092915050565b7f5573657220646f6573206e6f7420657869737400000000000000000000000000600082015250565b60006113a860138361100f565b91506113b382611372565b602082019050919050565b600060208201905081810360008301526113d78161139b565b9050919050565b7f4e487b7100000000000000000000000000000000000000000000000000000000600052602260045260246000fd5b6000600282049050600182168061142557607f821691505b602082108103611438576114376113de565b5b50919050565b7f5573657220616c72656164792065786973747300000000000000000000000000600082015250565b600061147460138361100f565b915061147f8261143e565b602082019050919050565b600060208201905081810360008301526114a381611467565b9050919050565b600060408201905081810360008301526114c48185611053565b905081810360208301526114d88184611053565b90509392505050565b7f526f6c65733a206163636f756e7420616c72656164792068617320726f6c6500600082015250565b6000611517601f8361100f565b9150611522826114e1565b602082019050919050565b600060208201905081810360008301526115468161150a565b9050919050565b7f526f6c65733a206163636f756e7420697320746865207a65726f20616464726560008201527f7373000000000000000000000000000000000000000000000000000000000000602082015250565b60006115a960228361100f565b91506115b48261154d565b604082019050919050565b600060208201905081810360008301526115d88161159c565b9050919050565b7f526f6c65733a206163636f756e7420646f6573206e6f74206861766520726f6c60008201527f6500000000000000000000000000000000000000000000000000000000000000602082015250565b600061163b60218361100f565b9150611646826115df565b604082019050919050565b6000602082019050818103600083015261166a8161162e565b905091905056fea2646970667358221220e2bfb236ff5500086e327161f834ed0ef152eea287de7587f0f9a0d5125ecec864736f6c634300080d0033",
  "immutableReferences": {},
  "source": "// SPDX-License-Identifier: MIT\r\npragma solidity >=0.4.22 <0.9.0;\r\n\r\nimport \"./Roles.sol\";\r\n\r\ncontract AccessManage {\r\n    using Roles for Roles.Role;\r\n\r\n    // Define roles\r\n    Roles.Role private users;\r\n    Roles.Role private verifiers;\r\n    Roles.Role private admins;\r\n\r\n\r\n    // User data structure\r\n    struct User {\r\n        string name;\r\n        string email;\r\n        string tokenURI;\r\n    }\r\n\r\n    // Mapping from address to user data\r\n    mapping(address => User) private userInfo;\r\n\r\n    // Events\r\n    event UserAdded(address indexed account, string name, string email);\r\n    event RoleAssigned(address indexed account, string role);\r\n    event RoleRemoved(address indexed account, string role);\r\n\r\n    // Modifiers\r\n    modifier onlyAdmin() {\r\n        require(admins.has(msg.sender), \"Only admin can perform this action\");\r\n        _;\r\n    }\r\n\r\n    modifier onlyVerifier() {\r\n        require(verifiers.has(msg.sender), \"Only verifier can perform this action\");\r\n        _;\r\n    }\r\n\r\n    // Constructor\r\n    constructor() {\r\n        admins.add(msg.sender); // Deployer becomes the first admin\r\n    }\r\n\r\n    // Add a user\r\n    function addUser(\r\n        address account,\r\n        string memory name,\r\n        string memory email,\r\n        string memory tokenURI\r\n    ) public onlyAdmin {\r\n        require(account != address(0), \"Invalid address\");\r\n        require(!users.has(account), \"User already exists\");\r\n\r\n        users.add(account);\r\n        userInfo[account] = User(name, email, tokenURI);\r\n\r\n        emit UserAdded(account, name, email);\r\n        //emit RoleAssigned(account, \"User\");\r\n    }\r\n\r\n    // Assign a role\r\n    function assignRole(address account, string memory role) public onlyAdmin {\r\n        require(account != address(0), \"Invalid address\");\r\n\r\n        if (keccak256(abi.encodePacked(role)) == keccak256(\"Verifier\")) {\r\n            verifiers.add(account);\r\n        } else if (keccak256(abi.encodePacked(role)) == keccak256(\"Admin\")) {\r\n            admins.add(account);\r\n        } else {\r\n            revert(\"Invalid role\");\r\n        }\r\n\r\n        emit RoleAssigned(account, role);\r\n    }\r\n\r\n    // Remove a role\r\n    function removeRole(address account, string memory role) public onlyAdmin {\r\n        require(account != address(0), \"Invalid address\");\r\n\r\n        if (keccak256(abi.encodePacked(role)) == keccak256(\"Verifier\")) {\r\n            verifiers.remove(account);\r\n        } else if (keccak256(abi.encodePacked(role)) == keccak256(\"Admin\")) {\r\n            admins.remove(account);\r\n        } else {\r\n            revert(\"Invalid role\");\r\n        }\r\n\r\n        emit RoleRemoved(account, role);\r\n    }\r\n\r\n    // Get user info\r\n    function getUserInfo(address account)\r\n        public\r\n        view\r\n        returns (\r\n            string memory name,\r\n            string memory email,\r\n            string memory tokenURI\r\n        )\r\n    {\r\n        require(users.has(account), \"User does not exist\");\r\n        User memory user = userInfo[account];\r\n        return (user.name, user.email, user.tokenURI);\r\n    }\r\n\r\n    // Check roles\r\n    function isAdmin(address account) public view returns (bool) {\r\n        return admins.has(account);\r\n    }\r\n\r\n    function isVerifier(address account) public view returns (bool) {\r\n        return verifiers.has(account);\r\n    }\r\n\r\n    function isUser(address account) public view returns (bool) {\r\n        return users.has(account);\r\n    }\r\n}",
  "sourcePath": "C:\\HCMUS\\KhoaLuan\\Udemy\\NFT_Marketplace\\nft_marketplace\\contracts\\access\\AccessManage.sol",
  "compiler": {
    "name": "solc",
    "version": "0.8.13+commit.abaa5c0e.Emscripten.clang"
  },
  "schemaVersion": "3.4.16",
  "updatedAt": "2025-01-16T14:24:33.585Z",
  "networkType": "ethereum",
  "devdoc": {
    "kind": "dev",
    "methods": {},
    "version": 1
  },
  "userdoc": {
    "kind": "user",
    "methods": {},
    "version": 1
  }
}