{
  "contractName": "AccessManage",
  "abi": [
    {
      "inputs": [],
      "stateMutability": "nonpayable",
      "type": "constructor"
    },
    {
      "anonymous": false,
      "inputs": [
        {
          "indexed": true,
          "internalType": "address",
          "name": "account",
          "type": "address"
        },
        {
          "indexed": false,
          "internalType": "string",
          "name": "role",
          "type": "string"
        }
      ],
      "name": "RoleAssigned",
      "type": "event"
    },
    {
      "anonymous": false,
      "inputs": [
        {
          "indexed": true,
          "internalType": "address",
          "name": "account",
          "type": "address"
        },
        {
          "indexed": false,
          "internalType": "string",
          "name": "role",
          "type": "string"
        }
      ],
      "name": "RoleRemoved",
      "type": "event"
    },
    {
      "anonymous": false,
      "inputs": [
        {
          "indexed": true,
          "internalType": "address",
          "name": "account",
          "type": "address"
        },
        {
          "indexed": false,
          "internalType": "string",
          "name": "name",
          "type": "string"
        },
        {
          "indexed": false,
          "internalType": "string",
          "name": "email",
          "type": "string"
        }
      ],
      "name": "UserAdded",
      "type": "event"
    },
    {
      "inputs": [
        {
          "internalType": "address",
          "name": "account",
          "type": "address"
        },
        {
          "internalType": "string",
          "name": "name",
          "type": "string"
        },
        {
          "internalType": "string",
          "name": "email",
          "type": "string"
        },
        {
          "internalType": "string",
          "name": "tokenURI",
          "type": "string"
        },
        {
          "internalType": "string",
          "name": "role",
          "type": "string"
        }
      ],
      "name": "addUser",
      "outputs": [],
      "stateMutability": "nonpayable",
      "type": "function"
    },
    {
      "inputs": [
        {
          "internalType": "address",
          "name": "account",
          "type": "address"
        },
        {
          "internalType": "string",
          "name": "role",
          "type": "string"
        }
      ],
      "name": "assignRole",
      "outputs": [],
      "stateMutability": "nonpayable",
      "type": "function"
    },
    {
      "inputs": [
        {
          "internalType": "address",
          "name": "account",
          "type": "address"
        },
        {
          "internalType": "string",
          "name": "role",
          "type": "string"
        }
      ],
      "name": "removeRole",
      "outputs": [],
      "stateMutability": "nonpayable",
      "type": "function"
    },
    {
      "inputs": [
        {
          "internalType": "address",
          "name": "account",
          "type": "address"
        }
      ],
      "name": "getUserInfo",
      "outputs": [
        {
          "internalType": "string",
          "name": "name",
          "type": "string"
        },
        {
          "internalType": "string",
          "name": "email",
          "type": "string"
        },
        {
          "internalType": "string",
          "name": "tokenURI",
          "type": "string"
        }
      ],
      "stateMutability": "view",
      "type": "function",
      "constant": true
    },
    {
      "inputs": [
        {
          "internalType": "address",
          "name": "account",
          "type": "address"
        }
      ],
      "name": "isAdmin",
      "outputs": [
        {
          "internalType": "bool",
          "name": "",
          "type": "bool"
        }
      ],
      "stateMutability": "view",
      "type": "function",
      "constant": true
    },
    {
      "inputs": [
        {
          "internalType": "address",
          "name": "account",
          "type": "address"
        }
      ],
      "name": "isVerifier",
      "outputs": [
        {
          "internalType": "bool",
          "name": "",
          "type": "bool"
        }
      ],
      "stateMutability": "view",
      "type": "function",
      "constant": true
    },
    {
      "inputs": [
        {
          "internalType": "address",
          "name": "account",
          "type": "address"
        }
      ],
      "name": "isUser",
      "outputs": [
        {
          "internalType": "bool",
          "name": "",
          "type": "bool"
        }
      ],
      "stateMutability": "view",
      "type": "function",
      "constant": true
    }
  ],
  "bytecode": "0x60806040523480156200001157600080fd5b506200002d3360026200003360201b62000bf11790919060201c565b620002cb565b620000458282620000e660201b60201c565b1562000088576040517f08c379a00000000000000000000000000000000000000000000000000000000081526004016200007f9062000211565b60405180910390fd5b60018260000160008373ffffffffffffffffffffffffffffffffffffffff1673ffffffffffffffffffffffffffffffffffffffff16815260200190815260200160002060006101000a81548160ff0219169083151502179055505050565b60008073ffffffffffffffffffffffffffffffffffffffff168273ffffffffffffffffffffffffffffffffffffffff160362000159576040517f08c379a00000000000000000000000000000000000000000000000000000000081526004016200015090620002a9565b60405180910390fd5b8260000160008373ffffffffffffffffffffffffffffffffffffffff1673ffffffffffffffffffffffffffffffffffffffff16815260200190815260200160002060009054906101000a900460ff16905092915050565b600082825260208201905092915050565b7f526f6c65733a206163636f756e7420616c72656164792068617320726f6c6500600082015250565b6000620001f9601f83620001b0565b91506200020682620001c1565b602082019050919050565b600060208201905081810360008301526200022c81620001ea565b9050919050565b7f526f6c65733a206163636f756e7420697320746865207a65726f20616464726560008201527f7373000000000000000000000000000000000000000000000000000000000000602082015250565b600062000291602283620001b0565b91506200029e8262000233565b604082019050919050565b60006020820190508181036000830152620002c48162000282565b9050919050565b6117f480620002db6000396000f3fe608060405234801561001057600080fd5b506004361061007d5760003560e01c80634209fff11161005b5780634209fff1146100fe5780636386c1c71461012e578063b7dfcbee14610160578063cd274a401461017c5761007d565b80631bfe03081461008257806324d7806c1461009e57806333105218146100ce575b600080fd5b61009c60048036038101906100979190611062565b610198565b005b6100b860048036038101906100b391906110be565b6103b4565b6040516100c59190611106565b60405180910390f35b6100e860048036038101906100e391906110be565b6103d1565b6040516100f59190611106565b60405180910390f35b610118600480360381019061011391906110be565b6103ee565b6040516101259190611106565b60405180910390f35b610148600480360381019061014391906110be565b61040b565b604051610157939291906111a9565b60405180910390f35b61017a60048036038101906101759190611062565b610684565b005b610196600480360381019061019191906111f5565b6108b4565b005b6101ac336002610c9990919063ffffffff16565b6101eb576040517f08c379a00000000000000000000000000000000000000000000000000000000081526004016101e290611352565b60405180910390fd5b600073ffffffffffffffffffffffffffffffffffffffff168273ffffffffffffffffffffffffffffffffffffffff160361025a576040517f08c379a0000000000000000000000000000000000000000000000000000000008152600401610251906113be565b60405180910390fd5b7f121833d5ee4fda5e1a4034c2b7be8155c158142541dea26f39122c796649233f8160405160200161028c919061141a565b60405160208183030381529060405280519060200120036102c0576102bb826001610d6090919063ffffffff16565b610362565b7fa729ef4e25027bc652fc8b5c4d1d902947361fa7c8e7b4905e877823f27331b3816040516020016102f2919061141a565b604051602081830303815290604052805190602001200361032657610321826002610d6090919063ffffffff16565b610361565b6040517f08c379a00000000000000000000000000000000000000000000000000000000081526004016103589061147d565b60405180910390fd5b5b8173ffffffffffffffffffffffffffffffffffffffff167fd211483f91fc6eff862467f8de606587a30c8fc9981056f051b897a418df803a826040516103a8919061149d565b60405180910390a25050565b60006103ca826002610c9990919063ffffffff16565b9050919050565b60006103e7826001610c9990919063ffffffff16565b9050919050565b6000610404826000610c9990919063ffffffff16565b9050919050565b6060806060610424846000610c9990919063ffffffff16565b610463576040517f08c379a000000000000000000000000000000000000000000000000000000000815260040161045a9061150b565b60405180910390fd5b6000600360008673ffffffffffffffffffffffffffffffffffffffff1673ffffffffffffffffffffffffffffffffffffffff1681526020019081526020016000206040518060600160405290816000820180546104bf9061155a565b80601f01602080910402602001604051908101604052809291908181526020018280546104eb9061155a565b80156105385780601f1061050d57610100808354040283529160200191610538565b820191906000526020600020905b81548152906001019060200180831161051b57829003601f168201915b505050505081526020016001820180546105519061155a565b80601f016020809104026020016040519081016040528092919081815260200182805461057d9061155a565b80156105ca5780601f1061059f576101008083540402835291602001916105ca565b820191906000526020600020905b8154815290600101906020018083116105ad57829003601f168201915b505050505081526020016002820180546105e39061155a565b80601f016020809104026020016040519081016040528092919081815260200182805461060f9061155a565b801561065c5780601f106106315761010080835404028352916020019161065c565b820191906000526020600020905b81548152906001019060200180831161063f57829003601f168201915b5050505050815250509050806000015181602001518260400151935093509350509193909250565b600073ffffffffffffffffffffffffffffffffffffffff168273ffffffffffffffffffffffffffffffffffffffff16036106f3576040517f08c379a00000000000000000000000000000000000000000000000000000000081526004016106ea906113be565b60405180910390fd5b7fa48c898f5241be426b79d4b5a3c206f9c9a06576e1b72c338c3ec849771d568681604051602001610725919061141a565b604051602081830303815290604052805190602001200361075957610754826001610bf190919063ffffffff16565b610862565b7fdf8b4c520ffe197c5343c6f5aec59570151ef9a492f2c624fd45ddde6135ec428160405160200161078b919061141a565b60405160208183030381529060405280519060200120036107bf576107ba826002610bf190919063ffffffff16565b610861565b7f2db9fd3d099848027c2383d0a083396f6c41510d7acfd92adc99b6cffcf31e96816040516020016107f1919061141a565b604051602081830303815290604052805190602001200361082557610820826000610bf190919063ffffffff16565b610860565b6040517f08c379a00000000000000000000000000000000000000000000000000000000081526004016108579061147d565b60405180910390fd5b5b5b8173ffffffffffffffffffffffffffffffffffffffff167f3565795c2fb8842c21347d277937778bbcfe788b5b4f790fc5e408786cbe9c90826040516108a8919061149d565b60405180910390a25050565b600073ffffffffffffffffffffffffffffffffffffffff168573ffffffffffffffffffffffffffffffffffffffff1603610923576040517f08c379a000000000000000000000000000000000000000000000000000000000815260040161091a906113be565b60405180910390fd5b610937856000610c9990919063ffffffff16565b15610977576040517f08c379a000000000000000000000000000000000000000000000000000000000815260040161096e906115d7565b60405180910390fd5b604051806060016040528085815260200184815260200183815250600360008773ffffffffffffffffffffffffffffffffffffffff1673ffffffffffffffffffffffffffffffffffffffff16815260200190815260200160002060008201518160000190805190602001906109ed929190610e07565b506020820151816001019080519060200190610a0a929190610e07565b506040820151816002019080519060200190610a27929190610e07565b509050507fa48c898f5241be426b79d4b5a3c206f9c9a06576e1b72c338c3ec849771d568681604051602001610a5d919061141a565b6040516020818303038152906040528051906020012003610a9157610a8c856001610bf190919063ffffffff16565b610b9a565b7fdf8b4c520ffe197c5343c6f5aec59570151ef9a492f2c624fd45ddde6135ec4281604051602001610ac3919061141a565b6040516020818303038152906040528051906020012003610af757610af2856002610bf190919063ffffffff16565b610b99565b7f2db9fd3d099848027c2383d0a083396f6c41510d7acfd92adc99b6cffcf31e9681604051602001610b29919061141a565b6040516020818303038152906040528051906020012003610b5d57610b58856000610bf190919063ffffffff16565b610b98565b6040517f08c379a0000000000000000000000000000000000000000000000000000000008152600401610b8f9061147d565b60405180910390fd5b5b5b8473ffffffffffffffffffffffffffffffffffffffff167f8eab1db142a914aff8b515eedb9177bd7effaef6d714c41e30bdf152067786078585604051610be29291906115f7565b60405180910390a25050505050565b610bfb8282610c99565b15610c3b576040517f08c379a0000000000000000000000000000000000000000000000000000000008152600401610c329061167a565b60405180910390fd5b60018260000160008373ffffffffffffffffffffffffffffffffffffffff1673ffffffffffffffffffffffffffffffffffffffff16815260200190815260200160002060006101000a81548160ff0219169083151502179055505050565b60008073ffffffffffffffffffffffffffffffffffffffff168273ffffffffffffffffffffffffffffffffffffffff1603610d09576040517f08c379a0000000000000000000000000000000000000000000000000000000008152600401610d009061170c565b60405180910390fd5b8260000160008373ffffffffffffffffffffffffffffffffffffffff1673ffffffffffffffffffffffffffffffffffffffff16815260200190815260200160002060009054906101000a900460ff16905092915050565b610d6a8282610c99565b610da9576040517f08c379a0000000000000000000000000000000000000000000000000000000008152600401610da09061179e565b60405180910390fd5b60008260000160008373ffffffffffffffffffffffffffffffffffffffff1673ffffffffffffffffffffffffffffffffffffffff16815260200190815260200160002060006101000a81548160ff0219169083151502179055505050565b828054610e139061155a565b90600052602060002090601f016020900481019282610e355760008555610e7c565b82601f10610e4e57805160ff1916838001178555610e7c565b82800160010185558215610e7c579182015b82811115610e7b578251825591602001919060010190610e60565b5b509050610e899190610e8d565b5090565b5b80821115610ea6576000816000905550600101610e8e565b5090565b6000604051905090565b600080fd5b600080fd5b600073ffffffffffffffffffffffffffffffffffffffff82169050919050565b6000610ee982610ebe565b9050919050565b610ef981610ede565b8114610f0457600080fd5b50565b600081359050610f1681610ef0565b92915050565b600080fd5b600080fd5b6000601f19601f8301169050919050565b7f4e487b7100000000000000000000000000000000000000000000000000000000600052604160045260246000fd5b610f6f82610f26565b810181811067ffffffffffffffff82111715610f8e57610f8d610f37565b5b80604052505050565b6000610fa1610eaa565b9050610fad8282610f66565b919050565b600067ffffffffffffffff821115610fcd57610fcc610f37565b5b610fd682610f26565b9050602081019050919050565b82818337600083830152505050565b600061100561100084610fb2565b610f97565b90508281526020810184848401111561102157611020610f21565b5b61102c848285610fe3565b509392505050565b600082601f83011261104957611048610f1c565b5b8135611059848260208601610ff2565b91505092915050565b6000806040838503121561107957611078610eb4565b5b600061108785828601610f07565b925050602083013567ffffffffffffffff8111156110a8576110a7610eb9565b5b6110b485828601611034565b9150509250929050565b6000602082840312156110d4576110d3610eb4565b5b60006110e284828501610f07565b91505092915050565b60008115159050919050565b611100816110eb565b82525050565b600060208201905061111b60008301846110f7565b92915050565b600081519050919050565b600082825260208201905092915050565b60005b8381101561115b578082015181840152602081019050611140565b8381111561116a576000848401525b50505050565b600061117b82611121565b611185818561112c565b935061119581856020860161113d565b61119e81610f26565b840191505092915050565b600060608201905081810360008301526111c38186611170565b905081810360208301526111d78185611170565b905081810360408301526111eb8184611170565b9050949350505050565b600080600080600060a0868803121561121157611210610eb4565b5b600061121f88828901610f07565b955050602086013567ffffffffffffffff8111156112405761123f610eb9565b5b61124c88828901611034565b945050604086013567ffffffffffffffff81111561126d5761126c610eb9565b5b61127988828901611034565b935050606086013567ffffffffffffffff81111561129a57611299610eb9565b5b6112a688828901611034565b925050608086013567ffffffffffffffff8111156112c7576112c6610eb9565b5b6112d388828901611034565b9150509295509295909350565b7f4f6e6c792061646d696e2063616e20706572666f726d2074686973206163746960008201527f6f6e000000000000000000000000000000000000000000000000000000000000602082015250565b600061133c60228361112c565b9150611347826112e0565b604082019050919050565b6000602082019050818103600083015261136b8161132f565b9050919050565b7f496e76616c696420616464726573730000000000000000000000000000000000600082015250565b60006113a8600f8361112c565b91506113b382611372565b602082019050919050565b600060208201905081810360008301526113d78161139b565b9050919050565b600081905092915050565b60006113f482611121565b6113fe81856113de565b935061140e81856020860161113d565b80840191505092915050565b600061142682846113e9565b915081905092915050565b7f496e76616c696420726f6c650000000000000000000000000000000000000000600082015250565b6000611467600c8361112c565b915061147282611431565b602082019050919050565b600060208201905081810360008301526114968161145a565b9050919050565b600060208201905081810360008301526114b78184611170565b905092915050565b7f5573657220646f6573206e6f7420657869737400000000000000000000000000600082015250565b60006114f560138361112c565b9150611500826114bf565b602082019050919050565b60006020820190508181036000830152611524816114e8565b9050919050565b7f4e487b7100000000000000000000000000000000000000000000000000000000600052602260045260246000fd5b6000600282049050600182168061157257607f821691505b6020821081036115855761158461152b565b5b50919050565b7f5573657220616c72656164792065786973747300000000000000000000000000600082015250565b60006115c160138361112c565b91506115cc8261158b565b602082019050919050565b600060208201905081810360008301526115f0816115b4565b9050919050565b600060408201905081810360008301526116118185611170565b905081810360208301526116258184611170565b90509392505050565b7f526f6c65733a206163636f756e7420616c72656164792068617320726f6c6500600082015250565b6000611664601f8361112c565b915061166f8261162e565b602082019050919050565b6000602082019050818103600083015261169381611657565b9050919050565b7f526f6c65733a206163636f756e7420697320746865207a65726f20616464726560008201527f7373000000000000000000000000000000000000000000000000000000000000602082015250565b60006116f660228361112c565b91506117018261169a565b604082019050919050565b60006020820190508181036000830152611725816116e9565b9050919050565b7f526f6c65733a206163636f756e7420646f6573206e6f74206861766520726f6c60008201527f6500000000000000000000000000000000000000000000000000000000000000602082015250565b600061178860218361112c565b91506117938261172c565b604082019050919050565b600060208201905081810360008301526117b78161177b565b905091905056fea264697066735822122001c307cf6e2d443f3aabc8d7dcc9e51effc03dbaf2bf8fe3ec5fe78348594dd964736f6c634300080d0033",
  "immutableReferences": {},
  "source": "// SPDX-License-Identifier: MIT\r\npragma solidity >=0.4.22 <0.9.0;\r\n\r\nimport \"./Roles.sol\";\r\n\r\ncontract AccessManage {\r\n    using Roles for Roles.Role;\r\n\r\n    // Define roles\r\n    Roles.Role private users;\r\n    Roles.Role private verifiers;\r\n    Roles.Role private admins;\r\n\r\n\r\n    // User data structure\r\n    struct User {\r\n        string name;\r\n        string email;\r\n        string tokenURI;\r\n    }\r\n\r\n    // Mapping from address to user data\r\n    mapping(address => User) private userInfo;\r\n\r\n    // Events\r\n    event UserAdded(address indexed account, string name, string email);\r\n    event RoleAssigned(address indexed account, string role);\r\n    event RoleRemoved(address indexed account, string role);\r\n\r\n    // Modifiers\r\n    modifier onlyAdmin() {\r\n        require(admins.has(msg.sender), \"Only admin can perform this action\");\r\n        _;\r\n    }\r\n\r\n    modifier onlyVerifier() {\r\n        require(verifiers.has(msg.sender), \"Only verifier can perform this action\");\r\n        _;\r\n    }\r\n\r\n    // Constructor\r\n    constructor() {\r\n        admins.add(msg.sender); // Deployer becomes the first admin\r\n    }\r\n\r\n    // Add a user\r\n    function addUser(\r\n        address account,\r\n        string memory name,\r\n        string memory email,\r\n        string memory tokenURI,\r\n        string memory role\r\n    ) public {\r\n        require(account != address(0), \"Invalid address\");\r\n        require(!users.has(account), \"User already exists\");\r\n        userInfo[account] = User(name, email, tokenURI);\r\n        if (keccak256(abi.encodePacked(role)) == keccak256(\"VERIFIER\")) {\r\n            verifiers.add(account);\r\n        } else if (keccak256(abi.encodePacked(role)) == keccak256(\"ADMIN\")) {\r\n            admins.add(account);\r\n        } else if (keccak256(abi.encodePacked(role)) == keccak256(\"USER\")) {\r\n            users.add(account);\r\n        } else {\r\n            revert(\"Invalid role\");\r\n        }\r\n        emit UserAdded(account, name, email);\r\n        //emit RoleAssigned(account, role);\r\n    }\r\n\r\n    // Assign a role\r\n    function assignRole(address account, string memory role) public {\r\n        require(account != address(0), \"Invalid address\");\r\n\r\n        if (keccak256(abi.encodePacked(role)) == keccak256(\"VERIFIER\")) {\r\n            verifiers.add(account);\r\n        } else if (keccak256(abi.encodePacked(role)) == keccak256(\"ADMIN\")) {\r\n            admins.add(account);\r\n        } else if (keccak256(abi.encodePacked(role)) == keccak256(\"USER\")) {\r\n            users.add(account);\r\n        } else {\r\n            revert(\"Invalid role\");\r\n        }\r\n\r\n        emit RoleAssigned(account, role);\r\n    }\r\n\r\n    // Remove a role\r\n    function removeRole(address account, string memory role) public onlyAdmin {\r\n        require(account != address(0), \"Invalid address\");\r\n\r\n        if (keccak256(abi.encodePacked(role)) == keccak256(\"Verifier\")) {\r\n            verifiers.remove(account);\r\n        } else if (keccak256(abi.encodePacked(role)) == keccak256(\"Admin\")) {\r\n            admins.remove(account);\r\n        } else {\r\n            revert(\"Invalid role\");\r\n        }\r\n\r\n        emit RoleRemoved(account, role);\r\n    }\r\n\r\n    // Get user info\r\n    function getUserInfo(address account)\r\n        public\r\n        view\r\n        returns (\r\n            string memory name,\r\n            string memory email,\r\n            string memory tokenURI\r\n        )\r\n    {\r\n        require(users.has(account), \"User does not exist\");\r\n        User memory user = userInfo[account];\r\n        return (user.name, user.email, user.tokenURI);\r\n    }\r\n\r\n    // Check roles\r\n    function isAdmin(address account) public view returns (bool) {\r\n        return admins.has(account);\r\n    }\r\n\r\n    function isVerifier(address account) public view returns (bool) {\r\n        return verifiers.has(account);\r\n    }\r\n\r\n    function isUser(address account) public view returns (bool) {\r\n        return users.has(account);\r\n    }\r\n}",
  "sourcePath": "C:\\HCMUS\\KhoaLuan\\Udemy\\NFT_Marketplace\\nft_marketplace\\contracts\\access\\AccessManage.sol",
  "compiler": {
    "name": "solc",
    "version": "0.8.13+commit.abaa5c0e.Emscripten.clang"
  },
  "schemaVersion": "3.4.16",
  "updatedAt": "2025-02-10T15:31:11.479Z",
  "networkType": "ethereum",
  "devdoc": {
    "kind": "dev",
    "methods": {},
    "version": 1
  },
  "userdoc": {
    "kind": "user",
    "methods": {},
    "version": 1
  }
}