{
  "contractName": "NftMarket",
  "abi": [
    {
      "inputs": [],
      "stateMutability": "nonpayable",
      "type": "constructor"
    },
    {
      "anonymous": false,
      "inputs": [
        {
          "indexed": true,
          "internalType": "address",
          "name": "owner",
          "type": "address"
        },
        {
          "indexed": true,
          "internalType": "address",
          "name": "approved",
          "type": "address"
        },
        {
          "indexed": true,
          "internalType": "uint256",
          "name": "tokenId",
          "type": "uint256"
        }
      ],
      "name": "Approval",
      "type": "event"
    },
    {
      "anonymous": false,
      "inputs": [
        {
          "indexed": true,
          "internalType": "address",
          "name": "owner",
          "type": "address"
        },
        {
          "indexed": true,
          "internalType": "address",
          "name": "operator",
          "type": "address"
        },
        {
          "indexed": false,
          "internalType": "bool",
          "name": "approved",
          "type": "bool"
        }
      ],
      "name": "ApprovalForAll",
      "type": "event"
    },
    {
      "anonymous": false,
      "inputs": [
        {
          "indexed": false,
          "internalType": "uint256",
          "name": "_fromTokenId",
          "type": "uint256"
        },
        {
          "indexed": false,
          "internalType": "uint256",
          "name": "_toTokenId",
          "type": "uint256"
        }
      ],
      "name": "BatchMetadataUpdate",
      "type": "event"
    },
    {
      "anonymous": false,
      "inputs": [
        {
          "indexed": false,
          "internalType": "uint256",
          "name": "_tokenId",
          "type": "uint256"
        }
      ],
      "name": "MetadataUpdate",
      "type": "event"
    },
    {
      "anonymous": false,
      "inputs": [
        {
          "indexed": false,
          "internalType": "uint256",
          "name": "tokenId",
          "type": "uint256"
        },
        {
          "indexed": false,
          "internalType": "uint256",
          "name": "price",
          "type": "uint256"
        },
        {
          "indexed": false,
          "internalType": "address",
          "name": "creator",
          "type": "address"
        },
        {
          "indexed": false,
          "internalType": "bool",
          "name": "isListed",
          "type": "bool"
        }
      ],
      "name": "NftItemCreated",
      "type": "event"
    },
    {
      "anonymous": false,
      "inputs": [
        {
          "indexed": true,
          "internalType": "address",
          "name": "previousOwner",
          "type": "address"
        },
        {
          "indexed": true,
          "internalType": "address",
          "name": "newOwner",
          "type": "address"
        }
      ],
      "name": "OwnershipTransferred",
      "type": "event"
    },
    {
      "anonymous": false,
      "inputs": [
        {
          "indexed": true,
          "internalType": "address",
          "name": "account",
          "type": "address"
        },
        {
          "indexed": false,
          "internalType": "string",
          "name": "role",
          "type": "string"
        }
      ],
      "name": "RoleAssigned",
      "type": "event"
    },
    {
      "anonymous": false,
      "inputs": [
        {
          "indexed": true,
          "internalType": "address",
          "name": "account",
          "type": "address"
        },
        {
          "indexed": false,
          "internalType": "string",
          "name": "role",
          "type": "string"
        }
      ],
      "name": "RoleRemoved",
      "type": "event"
    },
    {
      "anonymous": false,
      "inputs": [
        {
          "indexed": true,
          "internalType": "address",
          "name": "from",
          "type": "address"
        },
        {
          "indexed": true,
          "internalType": "address",
          "name": "to",
          "type": "address"
        },
        {
          "indexed": true,
          "internalType": "uint256",
          "name": "tokenId",
          "type": "uint256"
        }
      ],
      "name": "Transfer",
      "type": "event"
    },
    {
      "anonymous": false,
      "inputs": [
        {
          "indexed": true,
          "internalType": "address",
          "name": "account",
          "type": "address"
        },
        {
          "indexed": false,
          "internalType": "string",
          "name": "name",
          "type": "string"
        },
        {
          "indexed": false,
          "internalType": "string",
          "name": "email",
          "type": "string"
        }
      ],
      "name": "UserAdded",
      "type": "event"
    },
    {
      "inputs": [
        {
          "internalType": "address",
          "name": "account",
          "type": "address"
        },
        {
          "internalType": "string",
          "name": "name",
          "type": "string"
        },
        {
          "internalType": "string",
          "name": "email",
          "type": "string"
        },
        {
          "internalType": "string",
          "name": "tokenURI",
          "type": "string"
        }
      ],
      "name": "addUser",
      "outputs": [],
      "stateMutability": "nonpayable",
      "type": "function"
    },
    {
      "inputs": [
        {
          "internalType": "address",
          "name": "to",
          "type": "address"
        },
        {
          "internalType": "uint256",
          "name": "tokenId",
          "type": "uint256"
        }
      ],
      "name": "approve",
      "outputs": [],
      "stateMutability": "nonpayable",
      "type": "function"
    },
    {
      "inputs": [
        {
          "internalType": "address",
          "name": "account",
          "type": "address"
        },
        {
          "internalType": "string",
          "name": "role",
          "type": "string"
        }
      ],
      "name": "assignRole",
      "outputs": [],
      "stateMutability": "nonpayable",
      "type": "function"
    },
    {
      "inputs": [
        {
          "internalType": "address",
          "name": "owner",
          "type": "address"
        }
      ],
      "name": "balanceOf",
      "outputs": [
        {
          "internalType": "uint256",
          "name": "",
          "type": "uint256"
        }
      ],
      "stateMutability": "view",
      "type": "function",
      "constant": true
    },
    {
      "inputs": [
        {
          "internalType": "uint256",
          "name": "tokenId",
          "type": "uint256"
        }
      ],
      "name": "getApproved",
      "outputs": [
        {
          "internalType": "address",
          "name": "",
          "type": "address"
        }
      ],
      "stateMutability": "view",
      "type": "function",
      "constant": true
    },
    {
      "inputs": [
        {
          "internalType": "address",
          "name": "account",
          "type": "address"
        }
      ],
      "name": "getUserInfo",
      "outputs": [
        {
          "internalType": "string",
          "name": "name",
          "type": "string"
        },
        {
          "internalType": "string",
          "name": "email",
          "type": "string"
        },
        {
          "internalType": "string",
          "name": "tokenURI",
          "type": "string"
        }
      ],
      "stateMutability": "view",
      "type": "function",
      "constant": true
    },
    {
      "inputs": [
        {
          "internalType": "address",
          "name": "account",
          "type": "address"
        }
      ],
      "name": "isAdmin",
      "outputs": [
        {
          "internalType": "bool",
          "name": "",
          "type": "bool"
        }
      ],
      "stateMutability": "view",
      "type": "function",
      "constant": true
    },
    {
      "inputs": [
        {
          "internalType": "address",
          "name": "owner",
          "type": "address"
        },
        {
          "internalType": "address",
          "name": "operator",
          "type": "address"
        }
      ],
      "name": "isApprovedForAll",
      "outputs": [
        {
          "internalType": "bool",
          "name": "",
          "type": "bool"
        }
      ],
      "stateMutability": "view",
      "type": "function",
      "constant": true
    },
    {
      "inputs": [
        {
          "internalType": "address",
          "name": "account",
          "type": "address"
        }
      ],
      "name": "isUser",
      "outputs": [
        {
          "internalType": "bool",
          "name": "",
          "type": "bool"
        }
      ],
      "stateMutability": "view",
      "type": "function",
      "constant": true
    },
    {
      "inputs": [
        {
          "internalType": "address",
          "name": "account",
          "type": "address"
        }
      ],
      "name": "isVerifier",
      "outputs": [
        {
          "internalType": "bool",
          "name": "",
          "type": "bool"
        }
      ],
      "stateMutability": "view",
      "type": "function",
      "constant": true
    },
    {
      "inputs": [],
      "name": "listingPrice",
      "outputs": [
        {
          "internalType": "uint256",
          "name": "",
          "type": "uint256"
        }
      ],
      "stateMutability": "view",
      "type": "function",
      "constant": true
    },
    {
      "inputs": [],
      "name": "name",
      "outputs": [
        {
          "internalType": "string",
          "name": "",
          "type": "string"
        }
      ],
      "stateMutability": "view",
      "type": "function",
      "constant": true
    },
    {
      "inputs": [],
      "name": "owner",
      "outputs": [
        {
          "internalType": "address",
          "name": "",
          "type": "address"
        }
      ],
      "stateMutability": "view",
      "type": "function",
      "constant": true
    },
    {
      "inputs": [
        {
          "internalType": "uint256",
          "name": "tokenId",
          "type": "uint256"
        }
      ],
      "name": "ownerOf",
      "outputs": [
        {
          "internalType": "address",
          "name": "",
          "type": "address"
        }
      ],
      "stateMutability": "view",
      "type": "function",
      "constant": true
    },
    {
      "inputs": [
        {
          "internalType": "address",
          "name": "account",
          "type": "address"
        },
        {
          "internalType": "string",
          "name": "role",
          "type": "string"
        }
      ],
      "name": "removeRole",
      "outputs": [],
      "stateMutability": "nonpayable",
      "type": "function"
    },
    {
      "inputs": [],
      "name": "renounceOwnership",
      "outputs": [],
      "stateMutability": "nonpayable",
      "type": "function"
    },
    {
      "inputs": [
        {
          "internalType": "address",
          "name": "from",
          "type": "address"
        },
        {
          "internalType": "address",
          "name": "to",
          "type": "address"
        },
        {
          "internalType": "uint256",
          "name": "tokenId",
          "type": "uint256"
        }
      ],
      "name": "safeTransferFrom",
      "outputs": [],
      "stateMutability": "nonpayable",
      "type": "function"
    },
    {
      "inputs": [
        {
          "internalType": "address",
          "name": "from",
          "type": "address"
        },
        {
          "internalType": "address",
          "name": "to",
          "type": "address"
        },
        {
          "internalType": "uint256",
          "name": "tokenId",
          "type": "uint256"
        },
        {
          "internalType": "bytes",
          "name": "data",
          "type": "bytes"
        }
      ],
      "name": "safeTransferFrom",
      "outputs": [],
      "stateMutability": "nonpayable",
      "type": "function"
    },
    {
      "inputs": [
        {
          "internalType": "address",
          "name": "operator",
          "type": "address"
        },
        {
          "internalType": "bool",
          "name": "approved",
          "type": "bool"
        }
      ],
      "name": "setApprovalForAll",
      "outputs": [],
      "stateMutability": "nonpayable",
      "type": "function"
    },
    {
      "inputs": [
        {
          "internalType": "bytes4",
          "name": "interfaceId",
          "type": "bytes4"
        }
      ],
      "name": "supportsInterface",
      "outputs": [
        {
          "internalType": "bool",
          "name": "",
          "type": "bool"
        }
      ],
      "stateMutability": "view",
      "type": "function",
      "constant": true
    },
    {
      "inputs": [],
      "name": "symbol",
      "outputs": [
        {
          "internalType": "string",
          "name": "",
          "type": "string"
        }
      ],
      "stateMutability": "view",
      "type": "function",
      "constant": true
    },
    {
      "inputs": [
        {
          "internalType": "uint256",
          "name": "tokenId",
          "type": "uint256"
        }
      ],
      "name": "tokenURI",
      "outputs": [
        {
          "internalType": "string",
          "name": "",
          "type": "string"
        }
      ],
      "stateMutability": "view",
      "type": "function",
      "constant": true
    },
    {
      "inputs": [
        {
          "internalType": "address",
          "name": "from",
          "type": "address"
        },
        {
          "internalType": "address",
          "name": "to",
          "type": "address"
        },
        {
          "internalType": "uint256",
          "name": "tokenId",
          "type": "uint256"
        }
      ],
      "name": "transferFrom",
      "outputs": [],
      "stateMutability": "nonpayable",
      "type": "function"
    },
    {
      "inputs": [
        {
          "internalType": "address",
          "name": "newOwner",
          "type": "address"
        }
      ],
      "name": "transferOwnership",
      "outputs": [],
      "stateMutability": "nonpayable",
      "type": "function"
    },
    {
      "inputs": [
        {
          "internalType": "uint256",
          "name": "tokenId",
          "type": "uint256"
        }
      ],
      "name": "getNftItem",
      "outputs": [
        {
          "components": [
            {
              "internalType": "uint256",
              "name": "tokenId",
              "type": "uint256"
            },
            {
              "internalType": "uint256",
              "name": "price",
              "type": "uint256"
            },
            {
              "internalType": "address",
              "name": "creator",
              "type": "address"
            },
            {
              "internalType": "bool",
              "name": "isListed",
              "type": "bool"
            }
          ],
          "internalType": "struct NftMarket.NftItem",
          "name": "",
          "type": "tuple"
        }
      ],
      "stateMutability": "view",
      "type": "function",
      "constant": true
    },
    {
      "inputs": [],
      "name": "listedItemsCount",
      "outputs": [
        {
          "internalType": "uint256",
          "name": "",
          "type": "uint256"
        }
      ],
      "stateMutability": "view",
      "type": "function",
      "constant": true
    },
    {
      "inputs": [
        {
          "internalType": "uint256",
          "name": "newPrice",
          "type": "uint256"
        }
      ],
      "name": "setListingPrice",
      "outputs": [],
      "stateMutability": "nonpayable",
      "type": "function"
    },
    {
      "inputs": [
        {
          "internalType": "string",
          "name": "tokenURI",
          "type": "string"
        }
      ],
      "name": "tokenURIExists",
      "outputs": [
        {
          "internalType": "bool",
          "name": "",
          "type": "bool"
        }
      ],
      "stateMutability": "view",
      "type": "function",
      "constant": true
    },
    {
      "inputs": [],
      "name": "totalSupply",
      "outputs": [
        {
          "internalType": "uint256",
          "name": "",
          "type": "uint256"
        }
      ],
      "stateMutability": "view",
      "type": "function",
      "constant": true
    },
    {
      "inputs": [
        {
          "internalType": "uint256",
          "name": "index",
          "type": "uint256"
        }
      ],
      "name": "tokenByIndex",
      "outputs": [
        {
          "internalType": "uint256",
          "name": "",
          "type": "uint256"
        }
      ],
      "stateMutability": "view",
      "type": "function",
      "constant": true
    },
    {
      "inputs": [
        {
          "internalType": "string",
          "name": "tokenURI",
          "type": "string"
        },
        {
          "internalType": "uint256",
          "name": "price",
          "type": "uint256"
        }
      ],
      "name": "mintToken",
      "outputs": [
        {
          "internalType": "uint256",
          "name": "",
          "type": "uint256"
        }
      ],
      "stateMutability": "payable",
      "type": "function",
      "payable": true
    },
    {
      "inputs": [],
      "name": "getAllNftsOnSale",
      "outputs": [
        {
          "components": [
            {
              "internalType": "uint256",
              "name": "tokenId",
              "type": "uint256"
            },
            {
              "internalType": "uint256",
              "name": "price",
              "type": "uint256"
            },
            {
              "internalType": "address",
              "name": "creator",
              "type": "address"
            },
            {
              "internalType": "bool",
              "name": "isListed",
              "type": "bool"
            }
          ],
          "internalType": "struct NftMarket.NftItem[]",
          "name": "",
          "type": "tuple[]"
        }
      ],
      "stateMutability": "view",
      "type": "function",
      "constant": true
    },
    {
      "inputs": [],
      "name": "getOwnedNfts",
      "outputs": [
        {
          "components": [
            {
              "internalType": "uint256",
              "name": "tokenId",
              "type": "uint256"
            },
            {
              "internalType": "uint256",
              "name": "price",
              "type": "uint256"
            },
            {
              "internalType": "address",
              "name": "creator",
              "type": "address"
            },
            {
              "internalType": "bool",
              "name": "isListed",
              "type": "bool"
            }
          ],
          "internalType": "struct NftMarket.NftItem[]",
          "name": "",
          "type": "tuple[]"
        }
      ],
      "stateMutability": "view",
      "type": "function",
      "constant": true
    },
    {
      "inputs": [
        {
          "internalType": "uint256",
          "name": "tokenId",
          "type": "uint256"
        }
      ],
      "name": "buyNft",
      "outputs": [],
      "stateMutability": "payable",
      "type": "function",
      "payable": true
    },
    {
      "inputs": [
        {
          "internalType": "address",
          "name": "owner",
          "type": "address"
        },
        {
          "internalType": "uint256",
          "name": "index",
          "type": "uint256"
        }
      ],
      "name": "tokenOfOwnerByIndex",
      "outputs": [
        {
          "internalType": "uint256",
          "name": "",
          "type": "uint256"
        }
      ],
      "stateMutability": "view",
      "type": "function",
      "constant": true
    },
    {
      "inputs": [
        {
          "internalType": "uint256",
          "name": "tokenId",
          "type": "uint256"
        },
        {
          "internalType": "uint256",
          "name": "newPrice",
          "type": "uint256"
        }
      ],
      "name": "placeNftOnSale",
      "outputs": [],
      "stateMutability": "payable",
      "type": "function",
      "payable": true
    }
  ],
  "bytecode": "0x60806040526658d15e176280006014553480156200001c57600080fd5b506040518060400160405280600c81526020017f4372656174757265734e465400000000000000000000000000000000000000008152506040518060400160405280600481526020017f434e4654000000000000000000000000000000000000000000000000000000008152508160009080519060200190620000a192919062000349565b508060019080519060200190620000ba92919062000349565b505050620000dd620000d1620000fe60201b60201c565b6200010660201b60201c565b620000f833600a620001cc60201b6200234e1790919060201c565b62000578565b600033905090565b6000600760009054906101000a900473ffffffffffffffffffffffffffffffffffffffff16905081600760006101000a81548173ffffffffffffffffffffffffffffffffffffffff021916908373ffffffffffffffffffffffffffffffffffffffff1602179055508173ffffffffffffffffffffffffffffffffffffffff168173ffffffffffffffffffffffffffffffffffffffff167f8be0079c531659141344cd1fd0a4f28419497f9722a3daafe3b4186f6b6457e060405160405180910390a35050565b620001de82826200027f60201b60201c565b1562000221576040517f08c379a000000000000000000000000000000000000000000000000000000000815260040162000218906200045a565b60405180910390fd5b60018260000160008373ffffffffffffffffffffffffffffffffffffffff1673ffffffffffffffffffffffffffffffffffffffff16815260200190815260200160002060006101000a81548160ff0219169083151502179055505050565b60008073ffffffffffffffffffffffffffffffffffffffff168273ffffffffffffffffffffffffffffffffffffffff1603620002f2576040517f08c379a0000000000000000000000000000000000000000000000000000000008152600401620002e990620004f2565b60405180910390fd5b8260000160008373ffffffffffffffffffffffffffffffffffffffff1673ffffffffffffffffffffffffffffffffffffffff16815260200190815260200160002060009054906101000a900460ff16905092915050565b828054620003579062000543565b90600052602060002090601f0160209004810192826200037b5760008555620003c7565b82601f106200039657805160ff1916838001178555620003c7565b82800160010185558215620003c7579182015b82811115620003c6578251825591602001919060010190620003a9565b5b509050620003d69190620003da565b5090565b5b80821115620003f5576000816000905550600101620003db565b5090565b600082825260208201905092915050565b7f526f6c65733a206163636f756e7420616c72656164792068617320726f6c6500600082015250565b600062000442601f83620003f9565b91506200044f826200040a565b602082019050919050565b60006020820190508181036000830152620004758162000433565b9050919050565b7f526f6c65733a206163636f756e7420697320746865207a65726f20616464726560008201527f7373000000000000000000000000000000000000000000000000000000000000602082015250565b6000620004da602283620003f9565b9150620004e7826200047c565b604082019050919050565b600060208201905081810360008301526200050d81620004cb565b9050919050565b7f4e487b7100000000000000000000000000000000000000000000000000000000600052602260045260246000fd5b600060028204905060018216806200055c57607f821691505b60208210810362000572576200057162000514565b5b50919050565b615b0f80620005886000396000f3fe60806040526004361061020f5760003560e01c80636386c1c711610118578063b7dfcbee116100a0578063c78f19f91161006f578063c78f19f9146107e4578063c87b56dd1461080f578063ccb4918d1461084c578063e985e9c514610877578063f2fde38b146108b45761020f565b8063b7dfcbee14610739578063b88d4fde14610762578063c046372c1461078b578063c6361c22146107bb5761020f565b8063715018a6116100e7578063715018a61461067a5780637c726b69146106915780638da5cb5b146106ba57806395d89b41146106e5578063a22cb465146107105761020f565b80636386c1c7146105965780636f1a0af5146105d557806370a082311461061257806370cbcb431461064f5761020f565b806324d7806c1161019b5780634209fff11161016a5780634209fff11461047957806342842e0e146104b657806343d32ae7146104df5780634f6ccce71461051c5780636352211e146105595761020f565b806324d7806c146103975780632f745c59146103d4578063331052181461041157806336b536be1461044e5761020f565b806318160ddd116101e257806318160ddd146102e25780631bfe03081461030d57806321f422e51461033657806323b872dd14610352578063243adbdd1461037b5761020f565b806301ffc9a71461021457806306fdde0314610251578063081812fc1461027c578063095ea7b3146102b9575b600080fd5b34801561022057600080fd5b5061023b60048036038101906102369190613da4565b6108dd565b6040516102489190613dec565b60405180910390f35b34801561025d57600080fd5b5061026661093e565b6040516102739190613ea0565b60405180910390f35b34801561028857600080fd5b506102a3600480360381019061029e9190613ef8565b6109d0565b6040516102b09190613f66565b60405180910390f35b3480156102c557600080fd5b506102e060048036038101906102db9190613fad565b610a16565b005b3480156102ee57600080fd5b506102f7610b2d565b6040516103049190613ffc565b60405180910390f35b34801561031957600080fd5b50610334600480360381019061032f919061414c565b610b3a565b005b610350600480360381019061034b91906141a8565b610d56565b005b34801561035e57600080fd5b50610379600480360381019061037491906141e8565b610ed2565b005b61039560048036038101906103909190613ef8565b610f32565b005b3480156103a357600080fd5b506103be60048036038101906103b9919061423b565b61109a565b6040516103cb9190613dec565b60405180910390f35b3480156103e057600080fd5b506103fb60048036038101906103f69190613fad565b6110b7565b6040516104089190613ffc565b60405180910390f35b34801561041d57600080fd5b506104386004803603810190610433919061423b565b61115c565b6040516104459190613dec565b60405180910390f35b34801561045a57600080fd5b50610463611179565b6040516104709190614399565b60405180910390f35b34801561048557600080fd5b506104a0600480360381019061049b919061423b565b611313565b6040516104ad9190613dec565b60405180910390f35b3480156104c257600080fd5b506104dd60048036038101906104d891906141e8565b611330565b005b3480156104eb57600080fd5b50610506600480360381019061050191906143bb565b611350565b6040516105139190613dec565b60405180910390f35b34801561052857600080fd5b50610543600480360381019061053e9190613ef8565b61138c565b6040516105509190613ffc565b60405180910390f35b34801561056557600080fd5b50610580600480360381019061057b9190613ef8565b6113fd565b60405161058d9190613f66565b60405180910390f35b3480156105a257600080fd5b506105bd60048036038101906105b8919061423b565b611483565b6040516105cc93929190614404565b60405180910390f35b3480156105e157600080fd5b506105fc60048036038101906105f79190613ef8565b6116fc565b60405161060991906144a5565b60405180910390f35b34801561061e57600080fd5b506106396004803603810190610634919061423b565b6117ae565b6040516106469190613ffc565b60405180910390f35b34801561065b57600080fd5b50610664611865565b6040516106719190614399565b60405180910390f35b34801561068657600080fd5b5061068f6119c9565b005b34801561069d57600080fd5b506106b860048036038101906106b39190613ef8565b6119dd565b005b3480156106c657600080fd5b506106cf611a32565b6040516106dc9190613f66565b60405180910390f35b3480156106f157600080fd5b506106fa611a5c565b6040516107079190613ea0565b60405180910390f35b34801561071c57600080fd5b50610737600480360381019061073291906144ec565b611aee565b005b34801561074557600080fd5b50610760600480360381019061075b919061414c565b611b04565b005b34801561076e57600080fd5b50610789600480360381019061078491906145cd565b611d20565b005b6107a560048036038101906107a09190614650565b611d82565b6040516107b29190613ffc565b60405180910390f35b3480156107c757600080fd5b506107e260048036038101906107dd91906146ac565b611eda565b005b3480156107f057600080fd5b506107f961210e565b6040516108069190613ffc565b60405180910390f35b34801561081b57600080fd5b5061083660048036038101906108319190613ef8565b612114565b6040516108439190613ea0565b60405180910390f35b34801561085857600080fd5b50610861612226565b60405161086e9190613ffc565b60405180910390f35b34801561088357600080fd5b5061089e60048036038101906108999190614767565b612237565b6040516108ab9190613dec565b60405180910390f35b3480156108c057600080fd5b506108db60048036038101906108d6919061423b565b6122cb565b005b6000634906490660e01b7bffffffffffffffffffffffffffffffffffffffffffffffffffffffff1916827bffffffffffffffffffffffffffffffffffffffffffffffffffffffff191614806109375750610936826123f6565b5b9050919050565b60606000805461094d906147d6565b80601f0160208091040260200160405190810160405280929190818152602001828054610979906147d6565b80156109c65780601f1061099b576101008083540402835291602001916109c6565b820191906000526020600020905b8154815290600101906020018083116109a957829003601f168201915b5050505050905090565b60006109db826124d8565b6004600083815260200190815260200160002060009054906101000a900473ffffffffffffffffffffffffffffffffffffffff169050919050565b6000610a21826113fd565b90508073ffffffffffffffffffffffffffffffffffffffff168373ffffffffffffffffffffffffffffffffffffffff1603610a91576040517f08c379a0000000000000000000000000000000000000000000000000000000008152600401610a8890614879565b60405180910390fd5b8073ffffffffffffffffffffffffffffffffffffffff16610ab0612523565b73ffffffffffffffffffffffffffffffffffffffff161480610adf5750610ade81610ad9612523565b612237565b5b610b1e576040517f08c379a0000000000000000000000000000000000000000000000000000000008152600401610b159061490b565b60405180910390fd5b610b28838361252b565b505050565b6000600e80549050905090565b610b4e33600a6125e490919063ffffffff16565b610b8d576040517f08c379a0000000000000000000000000000000000000000000000000000000008152600401610b849061499d565b60405180910390fd5b600073ffffffffffffffffffffffffffffffffffffffff168273ffffffffffffffffffffffffffffffffffffffff1603610bfc576040517f08c379a0000000000000000000000000000000000000000000000000000000008152600401610bf390614a09565b60405180910390fd5b7f121833d5ee4fda5e1a4034c2b7be8155c158142541dea26f39122c796649233f81604051602001610c2e9190614a65565b6040516020818303038152906040528051906020012003610c6257610c5d8260096126ab90919063ffffffff16565b610d04565b7fa729ef4e25027bc652fc8b5c4d1d902947361fa7c8e7b4905e877823f27331b381604051602001610c949190614a65565b6040516020818303038152906040528051906020012003610cc857610cc382600a6126ab90919063ffffffff16565b610d03565b6040517f08c379a0000000000000000000000000000000000000000000000000000000008152600401610cfa90614ac8565b60405180910390fd5b5b8173ffffffffffffffffffffffffffffffffffffffff167fd211483f91fc6eff862467f8de606587a30c8fc9981056f051b897a418df803a82604051610d4a9190613ea0565b60405180910390a25050565b3373ffffffffffffffffffffffffffffffffffffffff16610d76836113fd565b73ffffffffffffffffffffffffffffffffffffffff1614610dcc576040517f08c379a0000000000000000000000000000000000000000000000000000000008152600401610dc390614b34565b60405180910390fd5b600015156010600084815260200190815260200160002060020160149054906101000a900460ff16151514610e36576040517f08c379a0000000000000000000000000000000000000000000000000000000008152600401610e2d90614ba0565b60405180910390fd5b6014543414610e7a576040517f08c379a0000000000000000000000000000000000000000000000000000000008152600401610e7190614c32565b60405180910390fd5b60016010600084815260200190815260200160002060020160146101000a81548160ff021916908315150217905550806010600084815260200190815260200160002060010181905550610ece600c612752565b5050565b610ee3610edd612523565b82612768565b610f22576040517f08c379a0000000000000000000000000000000000000000000000000000000008152600401610f1990614cc4565b60405180910390fd5b610f2d8383836127fd565b505050565b6000601060008381526020019081526020016000206001015490506000610f58836113fd565b90508073ffffffffffffffffffffffffffffffffffffffff163373ffffffffffffffffffffffffffffffffffffffff1603610fc8576040517f08c379a0000000000000000000000000000000000000000000000000000000008152600401610fbf90614d30565b60405180910390fd5b81341461100a576040517f08c379a000000000000000000000000000000000000000000000000000000000815260040161100190614d9c565b60405180910390fd5b60006010600085815260200190815260200160002060020160146101000a81548160ff021916908315150217905550611043600c612af6565b61104e8133856127fd565b8073ffffffffffffffffffffffffffffffffffffffff166108fc349081150290604051600060405180830381858888f19350505050158015611094573d6000803e3d6000fd5b50505050565b60006110b082600a6125e490919063ffffffff16565b9050919050565b60006110c2836117ae565b8210611103576040517f08c379a00000000000000000000000000000000000000000000000000000000081526004016110fa90614e08565b60405180910390fd5b601260008473ffffffffffffffffffffffffffffffffffffffff1673ffffffffffffffffffffffffffffffffffffffff168152602001908152602001600020600083815260200190815260200160002054905092915050565b60006111728260096125e490919063ffffffff16565b9050919050565b60606000611185610b2d565b9050600080611194600c612b52565b67ffffffffffffffff8111156111ad576111ac614021565b5b6040519080825280602002602001820160405280156111e657816020015b6111d3613c55565b8152602001906001900390816111cb5790505b50905060005b838110156113095760006111ff8261138c565b90506000601060008381526020019081526020016000209050600115158160020160149054906101000a900460ff161515036112f4578060405180608001604052908160008201548152602001600182015481526020016002820160009054906101000a900473ffffffffffffffffffffffffffffffffffffffff1673ffffffffffffffffffffffffffffffffffffffff1673ffffffffffffffffffffffffffffffffffffffff1681526020016002820160149054906101000a900460ff1615151515815250508486815181106112d9576112d8614e28565b5b60200260200101819052506001856112f19190614e86565b94505b5050808061130190614edc565b9150506111ec565b5080935050505090565b60006113298260086125e490919063ffffffff16565b9050919050565b61134b83838360405180602001604052806000815250611d20565b505050565b600060011515600f836040516113669190614a65565b908152602001604051809103902060009054906101000a900460ff161515149050919050565b6000611396610b2d565b82106113d7576040517f08c379a00000000000000000000000000000000000000000000000000000000081526004016113ce90614e08565b60405180910390fd5b600e82815481106113eb576113ea614e28565b5b90600052602060002001549050919050565b60008061140983612b60565b9050600073ffffffffffffffffffffffffffffffffffffffff168173ffffffffffffffffffffffffffffffffffffffff160361147a576040517f08c379a000000000000000000000000000000000000000000000000000000000815260040161147190614f70565b60405180910390fd5b80915050919050565b606080606061149c8460086125e490919063ffffffff16565b6114db576040517f08c379a00000000000000000000000000000000000000000000000000000000081526004016114d290614fdc565b60405180910390fd5b6000600b60008673ffffffffffffffffffffffffffffffffffffffff1673ffffffffffffffffffffffffffffffffffffffff168152602001908152602001600020604051806060016040529081600082018054611537906147d6565b80601f0160208091040260200160405190810160405280929190818152602001828054611563906147d6565b80156115b05780601f10611585576101008083540402835291602001916115b0565b820191906000526020600020905b81548152906001019060200180831161159357829003601f168201915b505050505081526020016001820180546115c9906147d6565b80601f01602080910402602001604051908101604052809291908181526020018280546115f5906147d6565b80156116425780601f1061161757610100808354040283529160200191611642565b820191906000526020600020905b81548152906001019060200180831161162557829003601f168201915b5050505050815260200160028201805461165b906147d6565b80601f0160208091040260200160405190810160405280929190818152602001828054611687906147d6565b80156116d45780601f106116a9576101008083540402835291602001916116d4565b820191906000526020600020905b8154815290600101906020018083116116b757829003601f168201915b5050505050815250509050806000015181602001518260400151935093509350509193909250565b611704613c55565b6010600083815260200190815260200160002060405180608001604052908160008201548152602001600182015481526020016002820160009054906101000a900473ffffffffffffffffffffffffffffffffffffffff1673ffffffffffffffffffffffffffffffffffffffff1673ffffffffffffffffffffffffffffffffffffffff1681526020016002820160149054906101000a900460ff1615151515815250509050919050565b60008073ffffffffffffffffffffffffffffffffffffffff168273ffffffffffffffffffffffffffffffffffffffff160361181e576040517f08c379a00000000000000000000000000000000000000000000000000000000081526004016118159061506e565b60405180910390fd5b600360008373ffffffffffffffffffffffffffffffffffffffff1673ffffffffffffffffffffffffffffffffffffffff168152602001908152602001600020549050919050565b60606000611872336117ae565b905060008167ffffffffffffffff8111156118905761188f614021565b5b6040519080825280602002602001820160405280156118c957816020015b6118b6613c55565b8152602001906001900390816118ae5790505b50905060005b828110156119c05760006118e333836110b7565b905060006010600083815260200190815260200160002090508060405180608001604052908160008201548152602001600182015481526020016002820160009054906101000a900473ffffffffffffffffffffffffffffffffffffffff1673ffffffffffffffffffffffffffffffffffffffff1673ffffffffffffffffffffffffffffffffffffffff1681526020016002820160149054906101000a900460ff1615151515815250508484815181106119a05761199f614e28565b5b6020026020010181905250505080806119b890614edc565b9150506118cf565b50809250505090565b6119d1612b9d565b6119db6000612c1b565b565b6119e5612b9d565b60008111611a28576040517f08c379a0000000000000000000000000000000000000000000000000000000008152600401611a1f906150da565b60405180910390fd5b8060148190555050565b6000600760009054906101000a900473ffffffffffffffffffffffffffffffffffffffff16905090565b606060018054611a6b906147d6565b80601f0160208091040260200160405190810160405280929190818152602001828054611a97906147d6565b8015611ae45780601f10611ab957610100808354040283529160200191611ae4565b820191906000526020600020905b815481529060010190602001808311611ac757829003601f168201915b5050505050905090565b611b00611af9612523565b8383612ce1565b5050565b611b1833600a6125e490919063ffffffff16565b611b57576040517f08c379a0000000000000000000000000000000000000000000000000000000008152600401611b4e9061499d565b60405180910390fd5b600073ffffffffffffffffffffffffffffffffffffffff168273ffffffffffffffffffffffffffffffffffffffff1603611bc6576040517f08c379a0000000000000000000000000000000000000000000000000000000008152600401611bbd90614a09565b60405180910390fd5b7f121833d5ee4fda5e1a4034c2b7be8155c158142541dea26f39122c796649233f81604051602001611bf89190614a65565b6040516020818303038152906040528051906020012003611c2c57611c2782600961234e90919063ffffffff16565b611cce565b7fa729ef4e25027bc652fc8b5c4d1d902947361fa7c8e7b4905e877823f27331b381604051602001611c5e9190614a65565b6040516020818303038152906040528051906020012003611c9257611c8d82600a61234e90919063ffffffff16565b611ccd565b6040517f08c379a0000000000000000000000000000000000000000000000000000000008152600401611cc490614ac8565b60405180910390fd5b5b8173ffffffffffffffffffffffffffffffffffffffff167f3565795c2fb8842c21347d277937778bbcfe788b5b4f790fc5e408786cbe9c9082604051611d149190613ea0565b60405180910390a25050565b611d31611d2b612523565b83612768565b611d70576040517f08c379a0000000000000000000000000000000000000000000000000000000008152600401611d6790614cc4565b60405180910390fd5b611d7c84848484612e4d565b50505050565b6000611d8d3361115c565b611dcc576040517f08c379a0000000000000000000000000000000000000000000000000000000008152600401611dc390615146565b60405180910390fd5b611dd583611350565b15611e15576040517f08c379a0000000000000000000000000000000000000000000000000000000008152600401611e0c906151b2565b60405180910390fd5b6014543414611e59576040517f08c379a0000000000000000000000000000000000000000000000000000000008152600401611e5090614c32565b60405180910390fd5b611e63600d612752565b611e6d600c612752565b6000611e79600d612b52565b9050611e853382612ea9565b611e8f8185612ec7565b611e998184612f72565b6001600f85604051611eab9190614a65565b908152602001604051809103902060006101000a81548160ff0219169083151502179055508091505092915050565b611eee33600a6125e490919063ffffffff16565b611f2d576040517f08c379a0000000000000000000000000000000000000000000000000000000008152600401611f249061499d565b60405180910390fd5b600073ffffffffffffffffffffffffffffffffffffffff168473ffffffffffffffffffffffffffffffffffffffff1603611f9c576040517f08c379a0000000000000000000000000000000000000000000000000000000008152600401611f9390614a09565b60405180910390fd5b611fb08460086125e490919063ffffffff16565b15611ff0576040517f08c379a0000000000000000000000000000000000000000000000000000000008152600401611fe79061521e565b60405180910390fd5b61200484600861234e90919063ffffffff16565b604051806060016040528084815260200183815260200182815250600b60008673ffffffffffffffffffffffffffffffffffffffff1673ffffffffffffffffffffffffffffffffffffffff168152602001908152602001600020600082015181600001908051906020019061207a929190613c95565b506020820151816001019080519060200190612097929190613c95565b5060408201518160020190805190602001906120b4929190613c95565b509050508373ffffffffffffffffffffffffffffffffffffffff167f8eab1db142a914aff8b515eedb9177bd7effaef6d714c41e30bdf15206778607848460405161210092919061523e565b60405180910390a250505050565b60145481565b606061211f826124d8565b600060066000848152602001908152602001600020805461213f906147d6565b80601f016020809104026020016040519081016040528092919081815260200182805461216b906147d6565b80156121b85780601f1061218d576101008083540402835291602001916121b8565b820191906000526020600020905b81548152906001019060200180831161219b57829003601f168201915b5050505050905060006121c96130c2565b905060008151036121de578192505050612221565b6000825111156122135780826040516020016121fb929190615275565b60405160208183030381529060405292505050612221565b61221c846130d9565b925050505b919050565b6000612232600c612b52565b905090565b6000600560008473ffffffffffffffffffffffffffffffffffffffff1673ffffffffffffffffffffffffffffffffffffffff16815260200190815260200160002060008373ffffffffffffffffffffffffffffffffffffffff1673ffffffffffffffffffffffffffffffffffffffff16815260200190815260200160002060009054906101000a900460ff16905092915050565b6122d3612b9d565b600073ffffffffffffffffffffffffffffffffffffffff168173ffffffffffffffffffffffffffffffffffffffff1603612342576040517f08c379a00000000000000000000000000000000000000000000000000000000081526004016123399061530b565b60405180910390fd5b61234b81612c1b565b50565b61235882826125e4565b15612398576040517f08c379a000000000000000000000000000000000000000000000000000000000815260040161238f90615377565b60405180910390fd5b60018260000160008373ffffffffffffffffffffffffffffffffffffffff1673ffffffffffffffffffffffffffffffffffffffff16815260200190815260200160002060006101000a81548160ff0219169083151502179055505050565b60007f80ac58cd000000000000000000000000000000000000000000000000000000007bffffffffffffffffffffffffffffffffffffffffffffffffffffffff1916827bffffffffffffffffffffffffffffffffffffffffffffffffffffffff191614806124c157507f5b5e139f000000000000000000000000000000000000000000000000000000007bffffffffffffffffffffffffffffffffffffffffffffffffffffffff1916827bffffffffffffffffffffffffffffffffffffffffffffffffffffffff1916145b806124d157506124d082613141565b5b9050919050565b6124e1816131ab565b612520576040517f08c379a000000000000000000000000000000000000000000000000000000000815260040161251790614f70565b60405180910390fd5b50565b600033905090565b816004600083815260200190815260200160002060006101000a81548173ffffffffffffffffffffffffffffffffffffffff021916908373ffffffffffffffffffffffffffffffffffffffff160217905550808273ffffffffffffffffffffffffffffffffffffffff1661259e836113fd565b73ffffffffffffffffffffffffffffffffffffffff167f8c5be1e5ebec7d5bd14f71427d1e84f3dd0314c0f7b2291e5b200ac8c7c3b92560405160405180910390a45050565b60008073ffffffffffffffffffffffffffffffffffffffff168273ffffffffffffffffffffffffffffffffffffffff1603612654576040517f08c379a000000000000000000000000000000000000000000000000000000000815260040161264b90615409565b60405180910390fd5b8260000160008373ffffffffffffffffffffffffffffffffffffffff1673ffffffffffffffffffffffffffffffffffffffff16815260200190815260200160002060009054906101000a900460ff16905092915050565b6126b582826125e4565b6126f4576040517f08c379a00000000000000000000000000000000000000000000000000000000081526004016126eb9061549b565b60405180910390fd5b60008260000160008373ffffffffffffffffffffffffffffffffffffffff1673ffffffffffffffffffffffffffffffffffffffff16815260200190815260200160002060006101000a81548160ff0219169083151502179055505050565b6001816000016000828254019250508190555050565b600080612774836113fd565b90508073ffffffffffffffffffffffffffffffffffffffff168473ffffffffffffffffffffffffffffffffffffffff1614806127b657506127b58185612237565b5b806127f457508373ffffffffffffffffffffffffffffffffffffffff166127dc846109d0565b73ffffffffffffffffffffffffffffffffffffffff16145b91505092915050565b8273ffffffffffffffffffffffffffffffffffffffff1661281d826113fd565b73ffffffffffffffffffffffffffffffffffffffff1614612873576040517f08c379a000000000000000000000000000000000000000000000000000000000815260040161286a9061552d565b60405180910390fd5b600073ffffffffffffffffffffffffffffffffffffffff168273ffffffffffffffffffffffffffffffffffffffff16036128e2576040517f08c379a00000000000000000000000000000000000000000000000000000000081526004016128d9906155bf565b60405180910390fd5b6128ef83838360016131ec565b8273ffffffffffffffffffffffffffffffffffffffff1661290f826113fd565b73ffffffffffffffffffffffffffffffffffffffff1614612965576040517f08c379a000000000000000000000000000000000000000000000000000000000815260040161295c9061552d565b60405180910390fd5b6004600082815260200190815260200160002060006101000a81549073ffffffffffffffffffffffffffffffffffffffff02191690556001600360008573ffffffffffffffffffffffffffffffffffffffff1673ffffffffffffffffffffffffffffffffffffffff168152602001908152602001600020600082825403925050819055506001600360008473ffffffffffffffffffffffffffffffffffffffff1673ffffffffffffffffffffffffffffffffffffffff16815260200190815260200160002060008282540192505081905550816002600083815260200190815260200160002060006101000a81548173ffffffffffffffffffffffffffffffffffffffff021916908373ffffffffffffffffffffffffffffffffffffffff160217905550808273ffffffffffffffffffffffffffffffffffffffff168473ffffffffffffffffffffffffffffffffffffffff167fddf252ad1be2c89b69c2b068fc378daa952ba7f163c4a11628f55a4df523b3ef60405160405180910390a4612af18383836001613300565b505050565b60008160000154905060008111612b42576040517f08c379a0000000000000000000000000000000000000000000000000000000008152600401612b399061562b565b60405180910390fd5b6001810382600001819055505050565b600081600001549050919050565b60006002600083815260200190815260200160002060009054906101000a900473ffffffffffffffffffffffffffffffffffffffff169050919050565b612ba5612523565b73ffffffffffffffffffffffffffffffffffffffff16612bc3611a32565b73ffffffffffffffffffffffffffffffffffffffff1614612c19576040517f08c379a0000000000000000000000000000000000000000000000000000000008152600401612c1090615697565b60405180910390fd5b565b6000600760009054906101000a900473ffffffffffffffffffffffffffffffffffffffff16905081600760006101000a81548173ffffffffffffffffffffffffffffffffffffffff021916908373ffffffffffffffffffffffffffffffffffffffff1602179055508173ffffffffffffffffffffffffffffffffffffffff168173ffffffffffffffffffffffffffffffffffffffff167f8be0079c531659141344cd1fd0a4f28419497f9722a3daafe3b4186f6b6457e060405160405180910390a35050565b8173ffffffffffffffffffffffffffffffffffffffff168373ffffffffffffffffffffffffffffffffffffffff1603612d4f576040517f08c379a0000000000000000000000000000000000000000000000000000000008152600401612d4690615703565b60405180910390fd5b80600560008573ffffffffffffffffffffffffffffffffffffffff1673ffffffffffffffffffffffffffffffffffffffff16815260200190815260200160002060008473ffffffffffffffffffffffffffffffffffffffff1673ffffffffffffffffffffffffffffffffffffffff16815260200190815260200160002060006101000a81548160ff0219169083151502179055508173ffffffffffffffffffffffffffffffffffffffff168373ffffffffffffffffffffffffffffffffffffffff167f17307eab39ab6107e8899845ad3d59bd9653f200f220920489ca2b5937696c3183604051612e409190613dec565b60405180910390a3505050565b612e588484846127fd565b612e6484848484613306565b612ea3576040517f08c379a0000000000000000000000000000000000000000000000000000000008152600401612e9a90615795565b60405180910390fd5b50505050565b612ec382826040518060200160405280600081525061348d565b5050565b612ed0826131ab565b612f0f576040517f08c379a0000000000000000000000000000000000000000000000000000000008152600401612f0690615827565b60405180910390fd5b80600660008481526020019081526020016000209080519060200190612f36929190613c95565b507ff8e1a15aba9398e019f0b49df1a4fde98ee17ae345cb5f6b5e2c27f5033e8ce782604051612f669190613ffc565b60405180910390a15050565b60008111612fb5576040517f08c379a0000000000000000000000000000000000000000000000000000000008152600401612fac906150da565b60405180910390fd5b60405180608001604052808381526020018281526020013373ffffffffffffffffffffffffffffffffffffffff1681526020016001151581525060106000848152602001908152602001600020600082015181600001556020820151816001015560408201518160020160006101000a81548173ffffffffffffffffffffffffffffffffffffffff021916908373ffffffffffffffffffffffffffffffffffffffff16021790555060608201518160020160146101000a81548160ff0219169083151502179055509050507f470031062672bc0246e132c723a729c4676710ec663a29e86c88678032daddea82823360016040516130b69493929190615847565b60405180910390a15050565b606060405180602001604052806000815250905090565b60606130e4826124d8565b60006130ee6130c2565b9050600081511161310e5760405180602001604052806000815250613139565b80613118846134e8565b604051602001613129929190615275565b6040516020818303038152906040525b915050919050565b60007f01ffc9a7000000000000000000000000000000000000000000000000000000007bffffffffffffffffffffffffffffffffffffffffffffffffffffffff1916827bffffffffffffffffffffffffffffffffffffffffffffffffffffffff1916149050919050565b60008073ffffffffffffffffffffffffffffffffffffffff166131cd83612b60565b73ffffffffffffffffffffffffffffffffffffffff1614159050919050565b6131f8848484846135b6565b600073ffffffffffffffffffffffffffffffffffffffff168473ffffffffffffffffffffffffffffffffffffffff160361323a57613235826135bc565b613279565b8273ffffffffffffffffffffffffffffffffffffffff168473ffffffffffffffffffffffffffffffffffffffff1614613278576132778483613605565b5b5b600073ffffffffffffffffffffffffffffffffffffffff168373ffffffffffffffffffffffffffffffffffffffff16036132bb576132b682613772565b6132fa565b8373ffffffffffffffffffffffffffffffffffffffff168373ffffffffffffffffffffffffffffffffffffffff16146132f9576132f88383613843565b5b5b50505050565b50505050565b60006133278473ffffffffffffffffffffffffffffffffffffffff166138c2565b15613480578373ffffffffffffffffffffffffffffffffffffffff1663150b7a02613350612523565b8786866040518563ffffffff1660e01b815260040161337294939291906158e1565b6020604051808303816000875af19250505080156133ae57506040513d601f19601f820116820180604052508101906133ab9190615942565b60015b613430573d80600081146133de576040519150601f19603f3d011682016040523d82523d6000602084013e6133e3565b606091505b506000815103613428576040517f08c379a000000000000000000000000000000000000000000000000000000000815260040161341f90615795565b60405180910390fd5b805181602001fd5b63150b7a0260e01b7bffffffffffffffffffffffffffffffffffffffffffffffffffffffff1916817bffffffffffffffffffffffffffffffffffffffffffffffffffffffff191614915050613485565b600190505b949350505050565b61349783836138e5565b6134a46000848484613306565b6134e3576040517f08c379a00000000000000000000000000000000000000000000000000000000081526004016134da90615795565b60405180910390fd5b505050565b6060600060016134f784613b02565b01905060008167ffffffffffffffff81111561351657613515614021565b5b6040519080825280601f01601f1916602001820160405280156135485781602001600182028036833780820191505090505b509050600082602001820190505b6001156135ab578080600190039150507f3031323334353637383961626364656600000000000000000000000000000000600a86061a8153600a858161359f5761359e61596f565b5b04945060008503613556575b819350505050919050565b50505050565b600e805490506011600083815260200190815260200160002081905550600e81908060018154018082558091505060019003906000526020600020016000909190919091505550565b60006001613612846117ae565b61361c919061599e565b9050600060136000848152602001908152602001600020549050818114613701576000601260008673ffffffffffffffffffffffffffffffffffffffff1673ffffffffffffffffffffffffffffffffffffffff168152602001908152602001600020600084815260200190815260200160002054905080601260008773ffffffffffffffffffffffffffffffffffffffff1673ffffffffffffffffffffffffffffffffffffffff168152602001908152602001600020600084815260200190815260200160002081905550816013600083815260200190815260200160002081905550505b6013600084815260200190815260200160002060009055601260008573ffffffffffffffffffffffffffffffffffffffff1673ffffffffffffffffffffffffffffffffffffffff16815260200190815260200160002060008381526020019081526020016000206000905550505050565b60006001600e80549050613786919061599e565b90506000601160008481526020019081526020016000205490506000600e83815481106137b6576137b5614e28565b5b9060005260206000200154905080600e83815481106137d8576137d7614e28565b5b90600052602060002001819055508160116000838152602001908152602001600020819055506011600085815260200190815260200160002060009055600e805480613827576138266159d2565b5b6001900381819060005260206000200160009055905550505050565b600061384e836117ae565b905081601260008573ffffffffffffffffffffffffffffffffffffffff1673ffffffffffffffffffffffffffffffffffffffff168152602001908152602001600020600083815260200190815260200160002081905550806013600084815260200190815260200160002081905550505050565b6000808273ffffffffffffffffffffffffffffffffffffffff163b119050919050565b600073ffffffffffffffffffffffffffffffffffffffff168273ffffffffffffffffffffffffffffffffffffffff1603613954576040517f08c379a000000000000000000000000000000000000000000000000000000000815260040161394b90615a4d565b60405180910390fd5b61395d816131ab565b1561399d576040517f08c379a000000000000000000000000000000000000000000000000000000000815260040161399490615ab9565b60405180910390fd5b6139ab6000838360016131ec565b6139b4816131ab565b156139f4576040517f08c379a00000000000000000000000000000000000000000000000000000000081526004016139eb90615ab9565b60405180910390fd5b6001600360008473ffffffffffffffffffffffffffffffffffffffff1673ffffffffffffffffffffffffffffffffffffffff16815260200190815260200160002060008282540192505081905550816002600083815260200190815260200160002060006101000a81548173ffffffffffffffffffffffffffffffffffffffff021916908373ffffffffffffffffffffffffffffffffffffffff160217905550808273ffffffffffffffffffffffffffffffffffffffff16600073ffffffffffffffffffffffffffffffffffffffff167fddf252ad1be2c89b69c2b068fc378daa952ba7f163c4a11628f55a4df523b3ef60405160405180910390a4613afe600083836001613300565b5050565b600080600090507a184f03e93ff9f4daa797ed6e38ed64bf6a1f0100000000000000008310613b60577a184f03e93ff9f4daa797ed6e38ed64bf6a1f0100000000000000008381613b5657613b5561596f565b5b0492506040810190505b6d04ee2d6d415b85acef81000000008310613b9d576d04ee2d6d415b85acef81000000008381613b9357613b9261596f565b5b0492506020810190505b662386f26fc100008310613bcc57662386f26fc100008381613bc257613bc161596f565b5b0492506010810190505b6305f5e1008310613bf5576305f5e1008381613beb57613bea61596f565b5b0492506008810190505b6127108310613c1a576127108381613c1057613c0f61596f565b5b0492506004810190505b60648310613c3d5760648381613c3357613c3261596f565b5b0492506002810190505b600a8310613c4c576001810190505b80915050919050565b60405180608001604052806000815260200160008152602001600073ffffffffffffffffffffffffffffffffffffffff1681526020016000151581525090565b828054613ca1906147d6565b90600052602060002090601f016020900481019282613cc35760008555613d0a565b82601f10613cdc57805160ff1916838001178555613d0a565b82800160010185558215613d0a579182015b82811115613d09578251825591602001919060010190613cee565b5b509050613d179190613d1b565b5090565b5b80821115613d34576000816000905550600101613d1c565b5090565b6000604051905090565b600080fd5b600080fd5b60007fffffffff0000000000000000000000000000000000000000000000000000000082169050919050565b613d8181613d4c565b8114613d8c57600080fd5b50565b600081359050613d9e81613d78565b92915050565b600060208284031215613dba57613db9613d42565b5b6000613dc884828501613d8f565b91505092915050565b60008115159050919050565b613de681613dd1565b82525050565b6000602082019050613e016000830184613ddd565b92915050565b600081519050919050565b600082825260208201905092915050565b60005b83811015613e41578082015181840152602081019050613e26565b83811115613e50576000848401525b50505050565b6000601f19601f8301169050919050565b6000613e7282613e07565b613e7c8185613e12565b9350613e8c818560208601613e23565b613e9581613e56565b840191505092915050565b60006020820190508181036000830152613eba8184613e67565b905092915050565b6000819050919050565b613ed581613ec2565b8114613ee057600080fd5b50565b600081359050613ef281613ecc565b92915050565b600060208284031215613f0e57613f0d613d42565b5b6000613f1c84828501613ee3565b91505092915050565b600073ffffffffffffffffffffffffffffffffffffffff82169050919050565b6000613f5082613f25565b9050919050565b613f6081613f45565b82525050565b6000602082019050613f7b6000830184613f57565b92915050565b613f8a81613f45565b8114613f9557600080fd5b50565b600081359050613fa781613f81565b92915050565b60008060408385031215613fc457613fc3613d42565b5b6000613fd285828601613f98565b9250506020613fe385828601613ee3565b9150509250929050565b613ff681613ec2565b82525050565b60006020820190506140116000830184613fed565b92915050565b600080fd5b600080fd5b7f4e487b7100000000000000000000000000000000000000000000000000000000600052604160045260246000fd5b61405982613e56565b810181811067ffffffffffffffff8211171561407857614077614021565b5b80604052505050565b600061408b613d38565b90506140978282614050565b919050565b600067ffffffffffffffff8211156140b7576140b6614021565b5b6140c082613e56565b9050602081019050919050565b82818337600083830152505050565b60006140ef6140ea8461409c565b614081565b90508281526020810184848401111561410b5761410a61401c565b5b6141168482856140cd565b509392505050565b600082601f83011261413357614132614017565b5b81356141438482602086016140dc565b91505092915050565b6000806040838503121561416357614162613d42565b5b600061417185828601613f98565b925050602083013567ffffffffffffffff81111561419257614191613d47565b5b61419e8582860161411e565b9150509250929050565b600080604083850312156141bf576141be613d42565b5b60006141cd85828601613ee3565b92505060206141de85828601613ee3565b9150509250929050565b60008060006060848603121561420157614200613d42565b5b600061420f86828701613f98565b935050602061422086828701613f98565b925050604061423186828701613ee3565b9150509250925092565b60006020828403121561425157614250613d42565b5b600061425f84828501613f98565b91505092915050565b600081519050919050565b600082825260208201905092915050565b6000819050602082019050919050565b61429d81613ec2565b82525050565b6142ac81613f45565b82525050565b6142bb81613dd1565b82525050565b6080820160008201516142d76000850182614294565b5060208201516142ea6020850182614294565b5060408201516142fd60408501826142a3565b50606082015161431060608501826142b2565b50505050565b600061432283836142c1565b60808301905092915050565b6000602082019050919050565b600061434682614268565b6143508185614273565b935061435b83614284565b8060005b8381101561438c5781516143738882614316565b975061437e8361432e565b92505060018101905061435f565b5085935050505092915050565b600060208201905081810360008301526143b3818461433b565b905092915050565b6000602082840312156143d1576143d0613d42565b5b600082013567ffffffffffffffff8111156143ef576143ee613d47565b5b6143fb8482850161411e565b91505092915050565b6000606082019050818103600083015261441e8186613e67565b905081810360208301526144328185613e67565b905081810360408301526144468184613e67565b9050949350505050565b6080820160008201516144666000850182614294565b5060208201516144796020850182614294565b50604082015161448c60408501826142a3565b50606082015161449f60608501826142b2565b50505050565b60006080820190506144ba6000830184614450565b92915050565b6144c981613dd1565b81146144d457600080fd5b50565b6000813590506144e6816144c0565b92915050565b6000806040838503121561450357614502613d42565b5b600061451185828601613f98565b9250506020614522858286016144d7565b9150509250929050565b600067ffffffffffffffff82111561454757614546614021565b5b61455082613e56565b9050602081019050919050565b600061457061456b8461452c565b614081565b90508281526020810184848401111561458c5761458b61401c565b5b6145978482856140cd565b509392505050565b600082601f8301126145b4576145b3614017565b5b81356145c484826020860161455d565b91505092915050565b600080600080608085870312156145e7576145e6613d42565b5b60006145f587828801613f98565b945050602061460687828801613f98565b935050604061461787828801613ee3565b925050606085013567ffffffffffffffff81111561463857614637613d47565b5b6146448782880161459f565b91505092959194509250565b6000806040838503121561466757614666613d42565b5b600083013567ffffffffffffffff81111561468557614684613d47565b5b6146918582860161411e565b92505060206146a285828601613ee3565b9150509250929050565b600080600080608085870312156146c6576146c5613d42565b5b60006146d487828801613f98565b945050602085013567ffffffffffffffff8111156146f5576146f4613d47565b5b6147018782880161411e565b935050604085013567ffffffffffffffff81111561472257614721613d47565b5b61472e8782880161411e565b925050606085013567ffffffffffffffff81111561474f5761474e613d47565b5b61475b8782880161411e565b91505092959194509250565b6000806040838503121561477e5761477d613d42565b5b600061478c85828601613f98565b925050602061479d85828601613f98565b9150509250929050565b7f4e487b7100000000000000000000000000000000000000000000000000000000600052602260045260246000fd5b600060028204905060018216806147ee57607f821691505b602082108103614801576148006147a7565b5b50919050565b7f4552433732313a20617070726f76616c20746f2063757272656e74206f776e6560008201527f7200000000000000000000000000000000000000000000000000000000000000602082015250565b6000614863602183613e12565b915061486e82614807565b604082019050919050565b6000602082019050818103600083015261489281614856565b9050919050565b7f4552433732313a20617070726f76652063616c6c6572206973206e6f7420746f60008201527f6b656e206f776e6572206f7220617070726f76656420666f7220616c6c000000602082015250565b60006148f5603d83613e12565b915061490082614899565b604082019050919050565b60006020820190508181036000830152614924816148e8565b9050919050565b7f4f6e6c792061646d696e2063616e20706572666f726d2074686973206163746960008201527f6f6e000000000000000000000000000000000000000000000000000000000000602082015250565b6000614987602283613e12565b91506149928261492b565b604082019050919050565b600060208201905081810360008301526149b68161497a565b9050919050565b7f496e76616c696420616464726573730000000000000000000000000000000000600082015250565b60006149f3600f83613e12565b91506149fe826149bd565b602082019050919050565b60006020820190508181036000830152614a22816149e6565b9050919050565b600081905092915050565b6000614a3f82613e07565b614a498185614a29565b9350614a59818560208601613e23565b80840191505092915050565b6000614a718284614a34565b915081905092915050565b7f496e76616c696420726f6c650000000000000000000000000000000000000000600082015250565b6000614ab2600c83613e12565b9150614abd82614a7c565b602082019050919050565b60006020820190508181036000830152614ae181614aa5565b9050919050565b7f596f7520617265206e6f74206f776e6572206f662074686973206e6674000000600082015250565b6000614b1e601d83613e12565b9150614b2982614ae8565b602082019050919050565b60006020820190508181036000830152614b4d81614b11565b9050919050565b7f4974656d20697320616c7265616479206f6e2073616c65000000000000000000600082015250565b6000614b8a601783613e12565b9150614b9582614b54565b602082019050919050565b60006020820190508181036000830152614bb981614b7d565b9050919050565b7f5072696365206d75737420626520657175616c20746f206c697374696e67207060008201527f7269636500000000000000000000000000000000000000000000000000000000602082015250565b6000614c1c602483613e12565b9150614c2782614bc0565b604082019050919050565b60006020820190508181036000830152614c4b81614c0f565b9050919050565b7f4552433732313a2063616c6c6572206973206e6f7420746f6b656e206f776e6560008201527f72206f7220617070726f76656400000000000000000000000000000000000000602082015250565b6000614cae602d83613e12565b9150614cb982614c52565b604082019050919050565b60006020820190508181036000830152614cdd81614ca1565b9050919050565b7f596f7520616c7265616479206f776e2074686973204e46540000000000000000600082015250565b6000614d1a601883613e12565b9150614d2582614ce4565b602082019050919050565b60006020820190508181036000830152614d4981614d0d565b9050919050565b7f506c65617365207375626d6974207468652061736b696e672070726963650000600082015250565b6000614d86601e83613e12565b9150614d9182614d50565b602082019050919050565b60006020820190508181036000830152614db581614d79565b9050919050565b7f496e646578206f7574206f6620626f756e647300000000000000000000000000600082015250565b6000614df2601383613e12565b9150614dfd82614dbc565b602082019050919050565b60006020820190508181036000830152614e2181614de5565b9050919050565b7f4e487b7100000000000000000000000000000000000000000000000000000000600052603260045260246000fd5b7f4e487b7100000000000000000000000000000000000000000000000000000000600052601160045260246000fd5b6000614e9182613ec2565b9150614e9c83613ec2565b9250827fffffffffffffffffffffffffffffffffffffffffffffffffffffffffffffffff03821115614ed157614ed0614e57565b5b828201905092915050565b6000614ee782613ec2565b91507fffffffffffffffffffffffffffffffffffffffffffffffffffffffffffffffff8203614f1957614f18614e57565b5b600182019050919050565b7f4552433732313a20696e76616c696420746f6b656e2049440000000000000000600082015250565b6000614f5a601883613e12565b9150614f6582614f24565b602082019050919050565b60006020820190508181036000830152614f8981614f4d565b9050919050565b7f5573657220646f6573206e6f7420657869737400000000000000000000000000600082015250565b6000614fc6601383613e12565b9150614fd182614f90565b602082019050919050565b60006020820190508181036000830152614ff581614fb9565b9050919050565b7f4552433732313a2061646472657373207a65726f206973206e6f74206120766160008201527f6c6964206f776e65720000000000000000000000000000000000000000000000602082015250565b6000615058602983613e12565b915061506382614ffc565b604082019050919050565b600060208201905081810360008301526150878161504b565b9050919050565b7f5072696365206d757374206265206174206c6561737420312077656900000000600082015250565b60006150c4601c83613e12565b91506150cf8261508e565b602082019050919050565b600060208201905081810360008301526150f3816150b7565b9050919050565b7f4f6e6c79207665726966696572732063616e2061636365737320746869730000600082015250565b6000615130601e83613e12565b915061513b826150fa565b602082019050919050565b6000602082019050818103600083015261515f81615123565b9050919050565b7f546f6b656e2055524920616c7265616479206578697374730000000000000000600082015250565b600061519c601883613e12565b91506151a782615166565b602082019050919050565b600060208201905081810360008301526151cb8161518f565b9050919050565b7f5573657220616c72656164792065786973747300000000000000000000000000600082015250565b6000615208601383613e12565b9150615213826151d2565b602082019050919050565b60006020820190508181036000830152615237816151fb565b9050919050565b600060408201905081810360008301526152588185613e67565b9050818103602083015261526c8184613e67565b90509392505050565b60006152818285614a34565b915061528d8284614a34565b91508190509392505050565b7f4f776e61626c653a206e6577206f776e657220697320746865207a65726f206160008201527f6464726573730000000000000000000000000000000000000000000000000000602082015250565b60006152f5602683613e12565b915061530082615299565b604082019050919050565b60006020820190508181036000830152615324816152e8565b9050919050565b7f526f6c65733a206163636f756e7420616c72656164792068617320726f6c6500600082015250565b6000615361601f83613e12565b915061536c8261532b565b602082019050919050565b6000602082019050818103600083015261539081615354565b9050919050565b7f526f6c65733a206163636f756e7420697320746865207a65726f20616464726560008201527f7373000000000000000000000000000000000000000000000000000000000000602082015250565b60006153f3602283613e12565b91506153fe82615397565b604082019050919050565b60006020820190508181036000830152615422816153e6565b9050919050565b7f526f6c65733a206163636f756e7420646f6573206e6f74206861766520726f6c60008201527f6500000000000000000000000000000000000000000000000000000000000000602082015250565b6000615485602183613e12565b915061549082615429565b604082019050919050565b600060208201905081810360008301526154b481615478565b9050919050565b7f4552433732313a207472616e736665722066726f6d20696e636f72726563742060008201527f6f776e6572000000000000000000000000000000000000000000000000000000602082015250565b6000615517602583613e12565b9150615522826154bb565b604082019050919050565b600060208201905081810360008301526155468161550a565b9050919050565b7f4552433732313a207472616e7366657220746f20746865207a65726f2061646460008201527f7265737300000000000000000000000000000000000000000000000000000000602082015250565b60006155a9602483613e12565b91506155b48261554d565b604082019050919050565b600060208201905081810360008301526155d88161559c565b9050919050565b7f436f756e7465723a2064656372656d656e74206f766572666c6f770000000000600082015250565b6000615615601b83613e12565b9150615620826155df565b602082019050919050565b6000602082019050818103600083015261564481615608565b9050919050565b7f4f776e61626c653a2063616c6c6572206973206e6f7420746865206f776e6572600082015250565b6000615681602083613e12565b915061568c8261564b565b602082019050919050565b600060208201905081810360008301526156b081615674565b9050919050565b7f4552433732313a20617070726f766520746f2063616c6c657200000000000000600082015250565b60006156ed601983613e12565b91506156f8826156b7565b602082019050919050565b6000602082019050818103600083015261571c816156e0565b9050919050565b7f4552433732313a207472616e7366657220746f206e6f6e20455243373231526560008201527f63656976657220696d706c656d656e7465720000000000000000000000000000602082015250565b600061577f603283613e12565b915061578a82615723565b604082019050919050565b600060208201905081810360008301526157ae81615772565b9050919050565b7f45524337323155524953746f726167653a2055524920736574206f66206e6f6e60008201527f6578697374656e7420746f6b656e000000000000000000000000000000000000602082015250565b6000615811602e83613e12565b915061581c826157b5565b604082019050919050565b6000602082019050818103600083015261584081615804565b9050919050565b600060808201905061585c6000830187613fed565b6158696020830186613fed565b6158766040830185613f57565b6158836060830184613ddd565b95945050505050565b600081519050919050565b600082825260208201905092915050565b60006158b38261588c565b6158bd8185615897565b93506158cd818560208601613e23565b6158d681613e56565b840191505092915050565b60006080820190506158f66000830187613f57565b6159036020830186613f57565b6159106040830185613fed565b818103606083015261592281846158a8565b905095945050505050565b60008151905061593c81613d78565b92915050565b60006020828403121561595857615957613d42565b5b60006159668482850161592d565b91505092915050565b7f4e487b7100000000000000000000000000000000000000000000000000000000600052601260045260246000fd5b60006159a982613ec2565b91506159b483613ec2565b9250828210156159c7576159c6614e57565b5b828203905092915050565b7f4e487b7100000000000000000000000000000000000000000000000000000000600052603160045260246000fd5b7f4552433732313a206d696e7420746f20746865207a65726f2061646472657373600082015250565b6000615a37602083613e12565b9150615a4282615a01565b602082019050919050565b60006020820190508181036000830152615a6681615a2a565b9050919050565b7f4552433732313a20746f6b656e20616c7265616479206d696e74656400000000600082015250565b6000615aa3601c83613e12565b9150615aae82615a6d565b602082019050919050565b60006020820190508181036000830152615ad281615a96565b905091905056fea26469706673582212200aba55f4f8bec8cc34fa18a037af8a1c020247eb49bcc9e09bc36a7f714bf42464736f6c634300080d0033",
  "immutableReferences": {},
  "source": "// SPDX-License-Identifier: MIT\r\npragma solidity >=0.4.22 <0.9.0;\r\nimport \"@openzeppelin/contracts/token/ERC721/extensions/ERC721URIStorage.sol\";\r\nimport \"@openzeppelin/contracts/utils/Counters.sol\";\r\nimport \"@openzeppelin/contracts/access/Ownable.sol\";\r\nimport \"../contracts/access/AccessManage.sol\";\r\n\r\ncontract NftMarket is ERC721URIStorage, Ownable, AccessManage {\r\n  using Counters for Counters.Counter;\r\n\r\n  Counters.Counter private _listedItems;\r\n  Counters.Counter private _tokenIds;\r\n  uint256[] private _allNfts;\r\n\r\n  mapping(string => bool) private _usedTokenURIs;\r\n  mapping(uint => NftItem) private _idToNftItem;\r\n  mapping(uint => uint) private _idToNftIndex;\r\n  mapping(address => mapping(uint => uint)) private _ownedTokens;\r\n  mapping(uint => uint) private _idToOwnedIndex;\r\n\r\n  struct NftItem {\r\n    uint tokenId;\r\n    uint price;\r\n    address creator;\r\n    bool isListed;\r\n  }\r\n\r\n  event NftItemCreated (\r\n    uint tokenId,\r\n    uint price,\r\n    address creator,\r\n    bool isListed\r\n  );\r\n  uint public listingPrice = 0.025 ether;\r\n\r\n  constructor() ERC721(\"CreaturesNFT\", \"CNFT\") {}\r\n  \r\n  function getNftItem(uint tokenId) public view returns (NftItem memory) {\r\n    return _idToNftItem[tokenId];\r\n  }\r\n\r\n  function listedItemsCount() public view returns (uint) {\r\n    return _listedItems.current();\r\n  }\r\n\r\n  function setListingPrice(uint newPrice) external onlyOwner {\r\n    require(newPrice > 0, \"Price must be at least 1 wei\");\r\n    listingPrice = newPrice;\r\n  }\r\n  function tokenURIExists(string memory tokenURI) public view returns (bool) {\r\n    return _usedTokenURIs[tokenURI] == true;\r\n  }\r\n\r\n  function totalSupply() public view returns (uint) {\r\n    return _allNfts.length;\r\n  }\r\n\r\n  function tokenByIndex(uint index) public view returns (uint) {\r\n    require(index < totalSupply(), \"Index out of bounds\");\r\n    return _allNfts[index];\r\n  }\r\n  \r\n  function mintToken(string memory tokenURI, uint price) public payable returns (uint) {\r\n    require(isVerifier(msg.sender), \"Only verifiers can access this\");    \r\n    require(!tokenURIExists(tokenURI), \"Token URI already exists\");\r\n    require(msg.value == listingPrice, \"Price must be equal to listing price\");\r\n    _tokenIds.increment();\r\n    _listedItems.increment();\r\n\r\n    uint newTokenId = _tokenIds.current();\r\n\r\n    _safeMint(msg.sender, newTokenId);\r\n    _setTokenURI(newTokenId, tokenURI);\r\n    _createNftItem(newTokenId, price);\r\n    _usedTokenURIs[tokenURI] = true;\r\n    return newTokenId;\r\n  }\r\n\r\n  function getAllNftsOnSale() public view returns (NftItem[] memory) {\r\n    uint allItemsCounts = totalSupply();\r\n    uint currentIndex = 0;\r\n    NftItem[] memory items = new NftItem[](_listedItems.current());\r\n\r\n    for (uint i = 0; i < allItemsCounts; i++) {\r\n      uint tokenId = tokenByIndex(i);\r\n      NftItem storage item = _idToNftItem[tokenId];\r\n\r\n      if (item.isListed == true) {\r\n        items[currentIndex] = item;\r\n        currentIndex += 1;\r\n      }\r\n    }\r\n\r\n    return items;\r\n  }\r\n\r\n\r\n  function getOwnedNfts() public view returns (NftItem[] memory) {\r\n    uint ownedItemsCount = ERC721.balanceOf(msg.sender);\r\n    NftItem[] memory items = new NftItem[](ownedItemsCount);\r\n\r\n    for (uint i = 0; i < ownedItemsCount; i++) {\r\n      uint tokenId = tokenOfOwnerByIndex(msg.sender, i);\r\n      NftItem storage item = _idToNftItem[tokenId];\r\n      items[i] = item;\r\n    }\r\n\r\n    return items;\r\n  }\r\n\r\n  \r\n  function _createNftItem(\r\n    uint tokenId,\r\n    uint price\r\n  ) private {\r\n    require(price > 0, \"Price must be at least 1 wei\");\r\n\r\n    _idToNftItem[tokenId] = NftItem(\r\n      tokenId,\r\n      price,\r\n      msg.sender,\r\n      true\r\n    );\r\n\r\n    emit NftItemCreated(tokenId, price, msg.sender, true);\r\n  }\r\n\r\n  function buyNft(\r\n    uint tokenId\r\n  ) public payable {\r\n    uint price = _idToNftItem[tokenId].price;\r\n    address owner = ERC721.ownerOf(tokenId);\r\n\r\n    require(msg.sender != owner, \"You already own this NFT\");\r\n    require(msg.value == price, \"Please submit the asking price\");\r\n\r\n    _idToNftItem[tokenId].isListed = false;\r\n    _listedItems.decrement();\r\n\r\n    _transfer(owner, msg.sender, tokenId);\r\n    payable(owner).transfer(msg.value);\r\n  }\r\n\r\n  function _beforeTokenTransfer(\r\n    address from,\r\n    address to,\r\n    uint tokenId,\r\n    uint256 batchSize\r\n  ) internal virtual override {\r\n    super._beforeTokenTransfer(from, to, tokenId, batchSize);\r\n\r\n    if (from == address(0)) {\r\n      _addTokenToAllTokensEnumaration(tokenId);\r\n    }else if (from != to) {\r\n      _removeTokenFromOwnerEnumeration(from, tokenId);\r\n    }\r\n     if (to == address(0)) {\r\n      _removeTokenFromAllTokensEnumeration(tokenId);\r\n    } else if (to != from) {\r\n      _addTokenToOwnerEnumaration(to, tokenId);\r\n    }\r\n  } \r\n\r\n\r\n  function _addTokenToAllTokensEnumaration(uint tokenId) private {\r\n    _idToNftIndex[tokenId] = _allNfts.length;\r\n    _allNfts.push(tokenId);\r\n  }\r\n  function _addTokenToOwnerEnumaration(address to, uint tokenId) private {\r\n    uint length = ERC721.balanceOf(to);\r\n    _ownedTokens[to][length] = tokenId;\r\n    _idToOwnedIndex[tokenId] = length;\r\n  }\r\n\r\n  function tokenOfOwnerByIndex(address owner, uint index) public view returns (uint) {\r\n    require(index < ERC721.balanceOf(owner), \"Index out of bounds\");\r\n    return _ownedTokens[owner][index];\r\n  }\r\n\r\n   function _removeTokenFromOwnerEnumeration(address from, uint tokenId) private {\r\n    uint lastTokenIndex = ERC721.balanceOf(from) - 1;\r\n    uint tokenIndex = _idToOwnedIndex[tokenId];\r\n\r\n    if (tokenIndex != lastTokenIndex) {\r\n      uint lastTokenId = _ownedTokens[from][lastTokenIndex];\r\n\r\n      _ownedTokens[from][tokenIndex] = lastTokenId;\r\n      _idToOwnedIndex[lastTokenId] = tokenIndex;\r\n    }\r\n\r\n    delete _idToOwnedIndex[tokenId];\r\n    delete _ownedTokens[from][lastTokenIndex];\r\n  }\r\n\r\n\r\n  function _removeTokenFromAllTokensEnumeration(uint tokenId) private {\r\n    uint lastTokenIndex = _allNfts.length - 1;\r\n    uint tokenIndex = _idToNftIndex[tokenId];\r\n    uint lastTokenId = _allNfts[lastTokenIndex];\r\n\r\n    _allNfts[tokenIndex] = lastTokenId;\r\n    _idToNftIndex[lastTokenId] = tokenIndex;\r\n\r\n    delete _idToNftIndex[tokenId];\r\n    _allNfts.pop();\r\n  }\r\n\r\n  function placeNftOnSale(uint tokenId, uint newPrice) public payable {\r\n    require(ERC721.ownerOf(tokenId) == msg.sender, \"You are not owner of this nft\");\r\n    require(_idToNftItem[tokenId].isListed == false, \"Item is already on sale\");\r\n    require(msg.value == listingPrice, \"Price must be equal to listing price\");\r\n\r\n    _idToNftItem[tokenId].isListed = true;\r\n    _idToNftItem[tokenId].price = newPrice;\r\n    _listedItems.increment();\r\n  }\r\n}\r\n\r\n",
  "sourcePath": "C:\\HCMUS\\KhoaLuan\\Udemy\\NFT_Marketplace\\nft_marketplace\\contracts\\NftMarket.sol",
  "compiler": {
    "name": "solc",
    "version": "0.8.13+commit.abaa5c0e.Emscripten.clang"
  },
  "schemaVersion": "3.4.16",
  "updatedAt": "2025-01-16T14:24:33.395Z",
  "networkType": "ethereum",
  "devdoc": {
    "kind": "dev",
    "methods": {
      "approve(address,uint256)": {
        "details": "See {IERC721-approve}."
      },
      "balanceOf(address)": {
        "details": "See {IERC721-balanceOf}."
      },
      "getApproved(uint256)": {
        "details": "See {IERC721-getApproved}."
      },
      "isApprovedForAll(address,address)": {
        "details": "See {IERC721-isApprovedForAll}."
      },
      "name()": {
        "details": "See {IERC721Metadata-name}."
      },
      "owner()": {
        "details": "Returns the address of the current owner."
      },
      "ownerOf(uint256)": {
        "details": "See {IERC721-ownerOf}."
      },
      "renounceOwnership()": {
        "details": "Leaves the contract without owner. It will not be possible to call `onlyOwner` functions. Can only be called by the current owner. NOTE: Renouncing ownership will leave the contract without an owner, thereby disabling any functionality that is only available to the owner."
      },
      "safeTransferFrom(address,address,uint256)": {
        "details": "See {IERC721-safeTransferFrom}."
      },
      "safeTransferFrom(address,address,uint256,bytes)": {
        "details": "See {IERC721-safeTransferFrom}."
      },
      "setApprovalForAll(address,bool)": {
        "details": "See {IERC721-setApprovalForAll}."
      },
      "supportsInterface(bytes4)": {
        "details": "See {IERC165-supportsInterface}"
      },
      "symbol()": {
        "details": "See {IERC721Metadata-symbol}."
      },
      "tokenURI(uint256)": {
        "details": "See {IERC721Metadata-tokenURI}."
      },
      "transferFrom(address,address,uint256)": {
        "details": "See {IERC721-transferFrom}."
      },
      "transferOwnership(address)": {
        "details": "Transfers ownership of the contract to a new account (`newOwner`). Can only be called by the current owner."
      }
    },
    "version": 1
  },
  "userdoc": {
    "kind": "user",
    "methods": {},
    "version": 1
  }
}