{
  "contractName": "NftMarket",
  "abi": [
    {
      "inputs": [],
      "stateMutability": "nonpayable",
      "type": "constructor"
    },
    {
      "anonymous": false,
      "inputs": [
        {
          "indexed": true,
          "internalType": "address",
          "name": "owner",
          "type": "address"
        },
        {
          "indexed": true,
          "internalType": "address",
          "name": "approved",
          "type": "address"
        },
        {
          "indexed": true,
          "internalType": "uint256",
          "name": "tokenId",
          "type": "uint256"
        }
      ],
      "name": "Approval",
      "type": "event"
    },
    {
      "anonymous": false,
      "inputs": [
        {
          "indexed": true,
          "internalType": "address",
          "name": "owner",
          "type": "address"
        },
        {
          "indexed": true,
          "internalType": "address",
          "name": "operator",
          "type": "address"
        },
        {
          "indexed": false,
          "internalType": "bool",
          "name": "approved",
          "type": "bool"
        }
      ],
      "name": "ApprovalForAll",
      "type": "event"
    },
    {
      "anonymous": false,
      "inputs": [
        {
          "indexed": false,
          "internalType": "uint256",
          "name": "_fromTokenId",
          "type": "uint256"
        },
        {
          "indexed": false,
          "internalType": "uint256",
          "name": "_toTokenId",
          "type": "uint256"
        }
      ],
      "name": "BatchMetadataUpdate",
      "type": "event"
    },
    {
      "anonymous": false,
      "inputs": [
        {
          "indexed": false,
          "internalType": "uint256",
          "name": "_tokenId",
          "type": "uint256"
        }
      ],
      "name": "MetadataUpdate",
      "type": "event"
    },
    {
      "anonymous": false,
      "inputs": [
        {
          "indexed": false,
          "internalType": "uint256",
          "name": "tokenId",
          "type": "uint256"
        },
        {
          "indexed": false,
          "internalType": "uint256",
          "name": "price",
          "type": "uint256"
        },
        {
          "indexed": false,
          "internalType": "address",
          "name": "creator",
          "type": "address"
        },
        {
          "indexed": false,
          "internalType": "bool",
          "name": "isListed",
          "type": "bool"
        }
      ],
      "name": "NftItemCreated",
      "type": "event"
    },
    {
      "anonymous": false,
      "inputs": [
        {
          "indexed": true,
          "internalType": "address",
          "name": "previousOwner",
          "type": "address"
        },
        {
          "indexed": true,
          "internalType": "address",
          "name": "newOwner",
          "type": "address"
        }
      ],
      "name": "OwnershipTransferred",
      "type": "event"
    },
    {
      "anonymous": false,
      "inputs": [
        {
          "indexed": true,
          "internalType": "address",
          "name": "account",
          "type": "address"
        },
        {
          "indexed": false,
          "internalType": "string",
          "name": "role",
          "type": "string"
        }
      ],
      "name": "RoleAssigned",
      "type": "event"
    },
    {
      "anonymous": false,
      "inputs": [
        {
          "indexed": true,
          "internalType": "address",
          "name": "account",
          "type": "address"
        },
        {
          "indexed": false,
          "internalType": "string",
          "name": "role",
          "type": "string"
        }
      ],
      "name": "RoleRemoved",
      "type": "event"
    },
    {
      "anonymous": false,
      "inputs": [
        {
          "indexed": true,
          "internalType": "address",
          "name": "from",
          "type": "address"
        },
        {
          "indexed": true,
          "internalType": "address",
          "name": "to",
          "type": "address"
        },
        {
          "indexed": true,
          "internalType": "uint256",
          "name": "tokenId",
          "type": "uint256"
        }
      ],
      "name": "Transfer",
      "type": "event"
    },
    {
      "anonymous": false,
      "inputs": [
        {
          "indexed": true,
          "internalType": "address",
          "name": "account",
          "type": "address"
        },
        {
          "indexed": false,
          "internalType": "string",
          "name": "name",
          "type": "string"
        },
        {
          "indexed": false,
          "internalType": "string",
          "name": "email",
          "type": "string"
        }
      ],
      "name": "UserAdded",
      "type": "event"
    },
    {
      "inputs": [
        {
          "internalType": "address",
          "name": "account",
          "type": "address"
        },
        {
          "internalType": "string",
          "name": "name",
          "type": "string"
        },
        {
          "internalType": "string",
          "name": "email",
          "type": "string"
        },
        {
          "internalType": "string",
          "name": "tokenURI",
          "type": "string"
        },
        {
          "internalType": "string",
          "name": "role",
          "type": "string"
        }
      ],
      "name": "addUser",
      "outputs": [],
      "stateMutability": "nonpayable",
      "type": "function"
    },
    {
      "inputs": [
        {
          "internalType": "address",
          "name": "to",
          "type": "address"
        },
        {
          "internalType": "uint256",
          "name": "tokenId",
          "type": "uint256"
        }
      ],
      "name": "approve",
      "outputs": [],
      "stateMutability": "nonpayable",
      "type": "function"
    },
    {
      "inputs": [
        {
          "internalType": "address",
          "name": "account",
          "type": "address"
        },
        {
          "internalType": "string",
          "name": "role",
          "type": "string"
        }
      ],
      "name": "assignRole",
      "outputs": [],
      "stateMutability": "nonpayable",
      "type": "function"
    },
    {
      "inputs": [
        {
          "internalType": "address",
          "name": "owner",
          "type": "address"
        }
      ],
      "name": "balanceOf",
      "outputs": [
        {
          "internalType": "uint256",
          "name": "",
          "type": "uint256"
        }
      ],
      "stateMutability": "view",
      "type": "function",
      "constant": true
    },
    {
      "inputs": [
        {
          "internalType": "uint256",
          "name": "tokenId",
          "type": "uint256"
        }
      ],
      "name": "getApproved",
      "outputs": [
        {
          "internalType": "address",
          "name": "",
          "type": "address"
        }
      ],
      "stateMutability": "view",
      "type": "function",
      "constant": true
    },
    {
      "inputs": [
        {
          "internalType": "address",
          "name": "account",
          "type": "address"
        }
      ],
      "name": "getUserInfo",
      "outputs": [
        {
          "internalType": "string",
          "name": "name",
          "type": "string"
        },
        {
          "internalType": "string",
          "name": "email",
          "type": "string"
        },
        {
          "internalType": "string",
          "name": "tokenURI",
          "type": "string"
        }
      ],
      "stateMutability": "view",
      "type": "function",
      "constant": true
    },
    {
      "inputs": [
        {
          "internalType": "address",
          "name": "account",
          "type": "address"
        }
      ],
      "name": "isAdmin",
      "outputs": [
        {
          "internalType": "bool",
          "name": "",
          "type": "bool"
        }
      ],
      "stateMutability": "view",
      "type": "function",
      "constant": true
    },
    {
      "inputs": [
        {
          "internalType": "address",
          "name": "owner",
          "type": "address"
        },
        {
          "internalType": "address",
          "name": "operator",
          "type": "address"
        }
      ],
      "name": "isApprovedForAll",
      "outputs": [
        {
          "internalType": "bool",
          "name": "",
          "type": "bool"
        }
      ],
      "stateMutability": "view",
      "type": "function",
      "constant": true
    },
    {
      "inputs": [
        {
          "internalType": "address",
          "name": "account",
          "type": "address"
        }
      ],
      "name": "isUser",
      "outputs": [
        {
          "internalType": "bool",
          "name": "",
          "type": "bool"
        }
      ],
      "stateMutability": "view",
      "type": "function",
      "constant": true
    },
    {
      "inputs": [
        {
          "internalType": "address",
          "name": "account",
          "type": "address"
        }
      ],
      "name": "isVerifier",
      "outputs": [
        {
          "internalType": "bool",
          "name": "",
          "type": "bool"
        }
      ],
      "stateMutability": "view",
      "type": "function",
      "constant": true
    },
    {
      "inputs": [],
      "name": "listingPrice",
      "outputs": [
        {
          "internalType": "uint256",
          "name": "",
          "type": "uint256"
        }
      ],
      "stateMutability": "view",
      "type": "function",
      "constant": true
    },
    {
      "inputs": [],
      "name": "name",
      "outputs": [
        {
          "internalType": "string",
          "name": "",
          "type": "string"
        }
      ],
      "stateMutability": "view",
      "type": "function",
      "constant": true
    },
    {
      "inputs": [],
      "name": "owner",
      "outputs": [
        {
          "internalType": "address",
          "name": "",
          "type": "address"
        }
      ],
      "stateMutability": "view",
      "type": "function",
      "constant": true
    },
    {
      "inputs": [
        {
          "internalType": "uint256",
          "name": "tokenId",
          "type": "uint256"
        }
      ],
      "name": "ownerOf",
      "outputs": [
        {
          "internalType": "address",
          "name": "",
          "type": "address"
        }
      ],
      "stateMutability": "view",
      "type": "function",
      "constant": true
    },
    {
      "inputs": [
        {
          "internalType": "address",
          "name": "account",
          "type": "address"
        },
        {
          "internalType": "string",
          "name": "role",
          "type": "string"
        }
      ],
      "name": "removeRole",
      "outputs": [],
      "stateMutability": "nonpayable",
      "type": "function"
    },
    {
      "inputs": [],
      "name": "renounceOwnership",
      "outputs": [],
      "stateMutability": "nonpayable",
      "type": "function"
    },
    {
      "inputs": [
        {
          "internalType": "address",
          "name": "from",
          "type": "address"
        },
        {
          "internalType": "address",
          "name": "to",
          "type": "address"
        },
        {
          "internalType": "uint256",
          "name": "tokenId",
          "type": "uint256"
        }
      ],
      "name": "safeTransferFrom",
      "outputs": [],
      "stateMutability": "nonpayable",
      "type": "function"
    },
    {
      "inputs": [
        {
          "internalType": "address",
          "name": "from",
          "type": "address"
        },
        {
          "internalType": "address",
          "name": "to",
          "type": "address"
        },
        {
          "internalType": "uint256",
          "name": "tokenId",
          "type": "uint256"
        },
        {
          "internalType": "bytes",
          "name": "data",
          "type": "bytes"
        }
      ],
      "name": "safeTransferFrom",
      "outputs": [],
      "stateMutability": "nonpayable",
      "type": "function"
    },
    {
      "inputs": [
        {
          "internalType": "address",
          "name": "operator",
          "type": "address"
        },
        {
          "internalType": "bool",
          "name": "approved",
          "type": "bool"
        }
      ],
      "name": "setApprovalForAll",
      "outputs": [],
      "stateMutability": "nonpayable",
      "type": "function"
    },
    {
      "inputs": [
        {
          "internalType": "bytes4",
          "name": "interfaceId",
          "type": "bytes4"
        }
      ],
      "name": "supportsInterface",
      "outputs": [
        {
          "internalType": "bool",
          "name": "",
          "type": "bool"
        }
      ],
      "stateMutability": "view",
      "type": "function",
      "constant": true
    },
    {
      "inputs": [],
      "name": "symbol",
      "outputs": [
        {
          "internalType": "string",
          "name": "",
          "type": "string"
        }
      ],
      "stateMutability": "view",
      "type": "function",
      "constant": true
    },
    {
      "inputs": [
        {
          "internalType": "uint256",
          "name": "tokenId",
          "type": "uint256"
        }
      ],
      "name": "tokenURI",
      "outputs": [
        {
          "internalType": "string",
          "name": "",
          "type": "string"
        }
      ],
      "stateMutability": "view",
      "type": "function",
      "constant": true
    },
    {
      "inputs": [
        {
          "internalType": "address",
          "name": "from",
          "type": "address"
        },
        {
          "internalType": "address",
          "name": "to",
          "type": "address"
        },
        {
          "internalType": "uint256",
          "name": "tokenId",
          "type": "uint256"
        }
      ],
      "name": "transferFrom",
      "outputs": [],
      "stateMutability": "nonpayable",
      "type": "function"
    },
    {
      "inputs": [
        {
          "internalType": "address",
          "name": "newOwner",
          "type": "address"
        }
      ],
      "name": "transferOwnership",
      "outputs": [],
      "stateMutability": "nonpayable",
      "type": "function"
    },
    {
      "inputs": [
        {
          "internalType": "uint256",
          "name": "tokenId",
          "type": "uint256"
        }
      ],
      "name": "getNftItem",
      "outputs": [
        {
          "components": [
            {
              "internalType": "uint256",
              "name": "tokenId",
              "type": "uint256"
            },
            {
              "internalType": "uint256",
              "name": "price",
              "type": "uint256"
            },
            {
              "internalType": "address",
              "name": "creator",
              "type": "address"
            },
            {
              "internalType": "bool",
              "name": "isListed",
              "type": "bool"
            }
          ],
          "internalType": "struct NftMarket.NftItem",
          "name": "",
          "type": "tuple"
        }
      ],
      "stateMutability": "view",
      "type": "function",
      "constant": true
    },
    {
      "inputs": [],
      "name": "listedItemsCount",
      "outputs": [
        {
          "internalType": "uint256",
          "name": "",
          "type": "uint256"
        }
      ],
      "stateMutability": "view",
      "type": "function",
      "constant": true
    },
    {
      "inputs": [
        {
          "internalType": "uint256",
          "name": "newPrice",
          "type": "uint256"
        }
      ],
      "name": "setListingPrice",
      "outputs": [],
      "stateMutability": "nonpayable",
      "type": "function"
    },
    {
      "inputs": [
        {
          "internalType": "string",
          "name": "tokenURI",
          "type": "string"
        }
      ],
      "name": "tokenURIExists",
      "outputs": [
        {
          "internalType": "bool",
          "name": "",
          "type": "bool"
        }
      ],
      "stateMutability": "view",
      "type": "function",
      "constant": true
    },
    {
      "inputs": [],
      "name": "totalSupply",
      "outputs": [
        {
          "internalType": "uint256",
          "name": "",
          "type": "uint256"
        }
      ],
      "stateMutability": "view",
      "type": "function",
      "constant": true
    },
    {
      "inputs": [
        {
          "internalType": "uint256",
          "name": "index",
          "type": "uint256"
        }
      ],
      "name": "tokenByIndex",
      "outputs": [
        {
          "internalType": "uint256",
          "name": "",
          "type": "uint256"
        }
      ],
      "stateMutability": "view",
      "type": "function",
      "constant": true
    },
    {
      "inputs": [
        {
          "internalType": "string",
          "name": "tokenURI",
          "type": "string"
        },
        {
          "internalType": "uint256",
          "name": "price",
          "type": "uint256"
        }
      ],
      "name": "mintToken",
      "outputs": [
        {
          "internalType": "uint256",
          "name": "",
          "type": "uint256"
        }
      ],
      "stateMutability": "payable",
      "type": "function",
      "payable": true
    },
    {
      "inputs": [],
      "name": "getAllNftsOnSale",
      "outputs": [
        {
          "components": [
            {
              "internalType": "uint256",
              "name": "tokenId",
              "type": "uint256"
            },
            {
              "internalType": "uint256",
              "name": "price",
              "type": "uint256"
            },
            {
              "internalType": "address",
              "name": "creator",
              "type": "address"
            },
            {
              "internalType": "bool",
              "name": "isListed",
              "type": "bool"
            }
          ],
          "internalType": "struct NftMarket.NftItem[]",
          "name": "",
          "type": "tuple[]"
        }
      ],
      "stateMutability": "view",
      "type": "function",
      "constant": true
    },
    {
      "inputs": [],
      "name": "getOwnedNfts",
      "outputs": [
        {
          "components": [
            {
              "internalType": "uint256",
              "name": "tokenId",
              "type": "uint256"
            },
            {
              "internalType": "uint256",
              "name": "price",
              "type": "uint256"
            },
            {
              "internalType": "address",
              "name": "creator",
              "type": "address"
            },
            {
              "internalType": "bool",
              "name": "isListed",
              "type": "bool"
            }
          ],
          "internalType": "struct NftMarket.NftItem[]",
          "name": "",
          "type": "tuple[]"
        }
      ],
      "stateMutability": "view",
      "type": "function",
      "constant": true
    },
    {
      "inputs": [
        {
          "internalType": "uint256",
          "name": "tokenId",
          "type": "uint256"
        }
      ],
      "name": "buyNft",
      "outputs": [],
      "stateMutability": "payable",
      "type": "function",
      "payable": true
    },
    {
      "inputs": [
        {
          "internalType": "address",
          "name": "owner",
          "type": "address"
        },
        {
          "internalType": "uint256",
          "name": "index",
          "type": "uint256"
        }
      ],
      "name": "tokenOfOwnerByIndex",
      "outputs": [
        {
          "internalType": "uint256",
          "name": "",
          "type": "uint256"
        }
      ],
      "stateMutability": "view",
      "type": "function",
      "constant": true
    },
    {
      "inputs": [
        {
          "internalType": "uint256",
          "name": "tokenId",
          "type": "uint256"
        },
        {
          "internalType": "uint256",
          "name": "newPrice",
          "type": "uint256"
        }
      ],
      "name": "placeNftOnSale",
      "outputs": [],
      "stateMutability": "payable",
      "type": "function",
      "payable": true
    }
  ],
  "bytecode": "0x60806040526658d15e176280006014553480156200001c57600080fd5b506040518060400160405280600c81526020017f4372656174757265734e465400000000000000000000000000000000000000008152506040518060400160405280600481526020017f434e4654000000000000000000000000000000000000000000000000000000008152508160009080519060200190620000a192919062000349565b508060019080519060200190620000ba92919062000349565b505050620000dd620000d1620000fe60201b60201c565b6200010660201b60201c565b620000f833600a620001cc60201b620023df1790919060201c565b62000578565b600033905090565b6000600760009054906101000a900473ffffffffffffffffffffffffffffffffffffffff16905081600760006101000a81548173ffffffffffffffffffffffffffffffffffffffff021916908373ffffffffffffffffffffffffffffffffffffffff1602179055508173ffffffffffffffffffffffffffffffffffffffff168173ffffffffffffffffffffffffffffffffffffffff167f8be0079c531659141344cd1fd0a4f28419497f9722a3daafe3b4186f6b6457e060405160405180910390a35050565b620001de82826200027f60201b60201c565b1562000221576040517f08c379a000000000000000000000000000000000000000000000000000000000815260040162000218906200045a565b60405180910390fd5b60018260000160008373ffffffffffffffffffffffffffffffffffffffff1673ffffffffffffffffffffffffffffffffffffffff16815260200190815260200160002060006101000a81548160ff0219169083151502179055505050565b60008073ffffffffffffffffffffffffffffffffffffffff168273ffffffffffffffffffffffffffffffffffffffff1603620002f2576040517f08c379a0000000000000000000000000000000000000000000000000000000008152600401620002e990620004f2565b60405180910390fd5b8260000160008373ffffffffffffffffffffffffffffffffffffffff1673ffffffffffffffffffffffffffffffffffffffff16815260200190815260200160002060009054906101000a900460ff16905092915050565b828054620003579062000543565b90600052602060002090601f0160209004810192826200037b5760008555620003c7565b82601f106200039657805160ff1916838001178555620003c7565b82800160010185558215620003c7579182015b82811115620003c6578251825591602001919060010190620003a9565b5b509050620003d69190620003da565b5090565b5b80821115620003f5576000816000905550600101620003db565b5090565b600082825260208201905092915050565b7f526f6c65733a206163636f756e7420616c72656164792068617320726f6c6500600082015250565b600062000442601f83620003f9565b91506200044f826200040a565b602082019050919050565b60006020820190508181036000830152620004758162000433565b9050919050565b7f526f6c65733a206163636f756e7420697320746865207a65726f20616464726560008201527f7373000000000000000000000000000000000000000000000000000000000000602082015250565b6000620004da602283620003f9565b9150620004e7826200047c565b604082019050919050565b600060208201905081810360008301526200050d81620004cb565b9050919050565b7f4e487b7100000000000000000000000000000000000000000000000000000000600052602260045260246000fd5b600060028204905060018216806200055c57607f821691505b60208210810362000572576200057162000514565b5b50919050565b615b6480620005886000396000f3fe60806040526004361061020f5760003560e01c80636386c1c711610118578063b7dfcbee116100a0578063c87b56dd1161006f578063c87b56dd146107e6578063ccb4918d14610823578063cd274a401461084e578063e985e9c514610877578063f2fde38b146108b45761020f565b8063b7dfcbee14610739578063b88d4fde14610762578063c046372c1461078b578063c78f19f9146107bb5761020f565b8063715018a6116100e7578063715018a61461067a5780637c726b69146106915780638da5cb5b146106ba57806395d89b41146106e5578063a22cb465146107105761020f565b80636386c1c7146105965780636f1a0af5146105d557806370a082311461061257806370cbcb431461064f5761020f565b806324d7806c1161019b5780634209fff11161016a5780634209fff11461047957806342842e0e146104b657806343d32ae7146104df5780634f6ccce71461051c5780636352211e146105595761020f565b806324d7806c146103975780632f745c59146103d4578063331052181461041157806336b536be1461044e5761020f565b806318160ddd116101e257806318160ddd146102e25780631bfe03081461030d57806321f422e51461033657806323b872dd14610352578063243adbdd1461037b5761020f565b806301ffc9a71461021457806306fdde0314610251578063081812fc1461027c578063095ea7b3146102b9575b600080fd5b34801561022057600080fd5b5061023b60048036038101906102369190613e35565b6108dd565b6040516102489190613e7d565b60405180910390f35b34801561025d57600080fd5b5061026661093e565b6040516102739190613f31565b60405180910390f35b34801561028857600080fd5b506102a3600480360381019061029e9190613f89565b6109d0565b6040516102b09190613ff7565b60405180910390f35b3480156102c557600080fd5b506102e060048036038101906102db919061403e565b610a16565b005b3480156102ee57600080fd5b506102f7610b2d565b604051610304919061408d565b60405180910390f35b34801561031957600080fd5b50610334600480360381019061032f91906141dd565b610b3a565b005b610350600480360381019061034b9190614239565b610d56565b005b34801561035e57600080fd5b5061037960048036038101906103749190614279565b610ed2565b005b61039560048036038101906103909190613f89565b610f32565b005b3480156103a357600080fd5b506103be60048036038101906103b991906142cc565b61109a565b6040516103cb9190613e7d565b60405180910390f35b3480156103e057600080fd5b506103fb60048036038101906103f6919061403e565b6110b7565b604051610408919061408d565b60405180910390f35b34801561041d57600080fd5b50610438600480360381019061043391906142cc565b61115c565b6040516104459190613e7d565b60405180910390f35b34801561045a57600080fd5b50610463611179565b604051610470919061442a565b60405180910390f35b34801561048557600080fd5b506104a0600480360381019061049b91906142cc565b611313565b6040516104ad9190613e7d565b60405180910390f35b3480156104c257600080fd5b506104dd60048036038101906104d89190614279565b611330565b005b3480156104eb57600080fd5b506105066004803603810190610501919061444c565b611350565b6040516105139190613e7d565b60405180910390f35b34801561052857600080fd5b50610543600480360381019061053e9190613f89565b61138c565b604051610550919061408d565b60405180910390f35b34801561056557600080fd5b50610580600480360381019061057b9190613f89565b6113fd565b60405161058d9190613ff7565b60405180910390f35b3480156105a257600080fd5b506105bd60048036038101906105b891906142cc565b611483565b6040516105cc93929190614495565b60405180910390f35b3480156105e157600080fd5b506105fc60048036038101906105f79190613f89565b6116fc565b6040516106099190614536565b60405180910390f35b34801561061e57600080fd5b50610639600480360381019061063491906142cc565b6117ae565b604051610646919061408d565b60405180910390f35b34801561065b57600080fd5b50610664611865565b604051610671919061442a565b60405180910390f35b34801561068657600080fd5b5061068f6119c9565b005b34801561069d57600080fd5b506106b860048036038101906106b39190613f89565b6119dd565b005b3480156106c657600080fd5b506106cf611a32565b6040516106dc9190613ff7565b60405180910390f35b3480156106f157600080fd5b506106fa611a5c565b6040516107079190613f31565b60405180910390f35b34801561071c57600080fd5b506107376004803603810190610732919061457d565b611aee565b005b34801561074557600080fd5b50610760600480360381019061075b91906141dd565b611b04565b005b34801561076e57600080fd5b506107896004803603810190610784919061465e565b611d34565b005b6107a560048036038101906107a091906146e1565b611d96565b6040516107b2919061408d565b60405180910390f35b3480156107c757600080fd5b506107d0611e62565b6040516107dd919061408d565b60405180910390f35b3480156107f257600080fd5b5061080d60048036038101906108089190613f89565b611e68565b60405161081a9190613f31565b60405180910390f35b34801561082f57600080fd5b50610838611f7a565b604051610845919061408d565b60405180910390f35b34801561085a57600080fd5b506108756004803603810190610870919061473d565b611f8b565b005b34801561088357600080fd5b5061089e60048036038101906108999190614828565b6122c8565b6040516108ab9190613e7d565b60405180910390f35b3480156108c057600080fd5b506108db60048036038101906108d691906142cc565b61235c565b005b6000634906490660e01b7bffffffffffffffffffffffffffffffffffffffffffffffffffffffff1916827bffffffffffffffffffffffffffffffffffffffffffffffffffffffff19161480610937575061093682612487565b5b9050919050565b60606000805461094d90614897565b80601f016020809104026020016040519081016040528092919081815260200182805461097990614897565b80156109c65780601f1061099b576101008083540402835291602001916109c6565b820191906000526020600020905b8154815290600101906020018083116109a957829003601f168201915b5050505050905090565b60006109db82612569565b6004600083815260200190815260200160002060009054906101000a900473ffffffffffffffffffffffffffffffffffffffff169050919050565b6000610a21826113fd565b90508073ffffffffffffffffffffffffffffffffffffffff168373ffffffffffffffffffffffffffffffffffffffff1603610a91576040517f08c379a0000000000000000000000000000000000000000000000000000000008152600401610a889061493a565b60405180910390fd5b8073ffffffffffffffffffffffffffffffffffffffff16610ab06125b4565b73ffffffffffffffffffffffffffffffffffffffff161480610adf5750610ade81610ad96125b4565b6122c8565b5b610b1e576040517f08c379a0000000000000000000000000000000000000000000000000000000008152600401610b15906149cc565b60405180910390fd5b610b2883836125bc565b505050565b6000600e80549050905090565b610b4e33600a61267590919063ffffffff16565b610b8d576040517f08c379a0000000000000000000000000000000000000000000000000000000008152600401610b8490614a5e565b60405180910390fd5b600073ffffffffffffffffffffffffffffffffffffffff168273ffffffffffffffffffffffffffffffffffffffff1603610bfc576040517f08c379a0000000000000000000000000000000000000000000000000000000008152600401610bf390614aca565b60405180910390fd5b7f121833d5ee4fda5e1a4034c2b7be8155c158142541dea26f39122c796649233f81604051602001610c2e9190614b26565b6040516020818303038152906040528051906020012003610c6257610c5d82600961273c90919063ffffffff16565b610d04565b7fa729ef4e25027bc652fc8b5c4d1d902947361fa7c8e7b4905e877823f27331b381604051602001610c949190614b26565b6040516020818303038152906040528051906020012003610cc857610cc382600a61273c90919063ffffffff16565b610d03565b6040517f08c379a0000000000000000000000000000000000000000000000000000000008152600401610cfa90614b89565b60405180910390fd5b5b8173ffffffffffffffffffffffffffffffffffffffff167fd211483f91fc6eff862467f8de606587a30c8fc9981056f051b897a418df803a82604051610d4a9190613f31565b60405180910390a25050565b3373ffffffffffffffffffffffffffffffffffffffff16610d76836113fd565b73ffffffffffffffffffffffffffffffffffffffff1614610dcc576040517f08c379a0000000000000000000000000000000000000000000000000000000008152600401610dc390614bf5565b60405180910390fd5b600015156010600084815260200190815260200160002060020160149054906101000a900460ff16151514610e36576040517f08c379a0000000000000000000000000000000000000000000000000000000008152600401610e2d90614c61565b60405180910390fd5b6014543414610e7a576040517f08c379a0000000000000000000000000000000000000000000000000000000008152600401610e7190614cf3565b60405180910390fd5b60016010600084815260200190815260200160002060020160146101000a81548160ff021916908315150217905550806010600084815260200190815260200160002060010181905550610ece600c6127e3565b5050565b610ee3610edd6125b4565b826127f9565b610f22576040517f08c379a0000000000000000000000000000000000000000000000000000000008152600401610f1990614d85565b60405180910390fd5b610f2d83838361288e565b505050565b6000601060008381526020019081526020016000206001015490506000610f58836113fd565b90508073ffffffffffffffffffffffffffffffffffffffff163373ffffffffffffffffffffffffffffffffffffffff1603610fc8576040517f08c379a0000000000000000000000000000000000000000000000000000000008152600401610fbf90614df1565b60405180910390fd5b81341461100a576040517f08c379a000000000000000000000000000000000000000000000000000000000815260040161100190614e5d565b60405180910390fd5b60006010600085815260200190815260200160002060020160146101000a81548160ff021916908315150217905550611043600c612b87565b61104e81338561288e565b8073ffffffffffffffffffffffffffffffffffffffff166108fc349081150290604051600060405180830381858888f19350505050158015611094573d6000803e3d6000fd5b50505050565b60006110b082600a61267590919063ffffffff16565b9050919050565b60006110c2836117ae565b8210611103576040517f08c379a00000000000000000000000000000000000000000000000000000000081526004016110fa90614ec9565b60405180910390fd5b601260008473ffffffffffffffffffffffffffffffffffffffff1673ffffffffffffffffffffffffffffffffffffffff168152602001908152602001600020600083815260200190815260200160002054905092915050565b600061117282600961267590919063ffffffff16565b9050919050565b60606000611185610b2d565b9050600080611194600c612be3565b67ffffffffffffffff8111156111ad576111ac6140b2565b5b6040519080825280602002602001820160405280156111e657816020015b6111d3613ce6565b8152602001906001900390816111cb5790505b50905060005b838110156113095760006111ff8261138c565b90506000601060008381526020019081526020016000209050600115158160020160149054906101000a900460ff161515036112f4578060405180608001604052908160008201548152602001600182015481526020016002820160009054906101000a900473ffffffffffffffffffffffffffffffffffffffff1673ffffffffffffffffffffffffffffffffffffffff1673ffffffffffffffffffffffffffffffffffffffff1681526020016002820160149054906101000a900460ff1615151515815250508486815181106112d9576112d8614ee9565b5b60200260200101819052506001856112f19190614f47565b94505b5050808061130190614f9d565b9150506111ec565b5080935050505090565b600061132982600861267590919063ffffffff16565b9050919050565b61134b83838360405180602001604052806000815250611d34565b505050565b600060011515600f836040516113669190614b26565b908152602001604051809103902060009054906101000a900460ff161515149050919050565b6000611396610b2d565b82106113d7576040517f08c379a00000000000000000000000000000000000000000000000000000000081526004016113ce90614ec9565b60405180910390fd5b600e82815481106113eb576113ea614ee9565b5b90600052602060002001549050919050565b60008061140983612bf1565b9050600073ffffffffffffffffffffffffffffffffffffffff168173ffffffffffffffffffffffffffffffffffffffff160361147a576040517f08c379a000000000000000000000000000000000000000000000000000000000815260040161147190615031565b60405180910390fd5b80915050919050565b606080606061149c84600861267590919063ffffffff16565b6114db576040517f08c379a00000000000000000000000000000000000000000000000000000000081526004016114d29061509d565b60405180910390fd5b6000600b60008673ffffffffffffffffffffffffffffffffffffffff1673ffffffffffffffffffffffffffffffffffffffff16815260200190815260200160002060405180606001604052908160008201805461153790614897565b80601f016020809104026020016040519081016040528092919081815260200182805461156390614897565b80156115b05780601f10611585576101008083540402835291602001916115b0565b820191906000526020600020905b81548152906001019060200180831161159357829003601f168201915b505050505081526020016001820180546115c990614897565b80601f01602080910402602001604051908101604052809291908181526020018280546115f590614897565b80156116425780601f1061161757610100808354040283529160200191611642565b820191906000526020600020905b81548152906001019060200180831161162557829003601f168201915b5050505050815260200160028201805461165b90614897565b80601f016020809104026020016040519081016040528092919081815260200182805461168790614897565b80156116d45780601f106116a9576101008083540402835291602001916116d4565b820191906000526020600020905b8154815290600101906020018083116116b757829003601f168201915b5050505050815250509050806000015181602001518260400151935093509350509193909250565b611704613ce6565b6010600083815260200190815260200160002060405180608001604052908160008201548152602001600182015481526020016002820160009054906101000a900473ffffffffffffffffffffffffffffffffffffffff1673ffffffffffffffffffffffffffffffffffffffff1673ffffffffffffffffffffffffffffffffffffffff1681526020016002820160149054906101000a900460ff1615151515815250509050919050565b60008073ffffffffffffffffffffffffffffffffffffffff168273ffffffffffffffffffffffffffffffffffffffff160361181e576040517f08c379a00000000000000000000000000000000000000000000000000000000081526004016118159061512f565b60405180910390fd5b600360008373ffffffffffffffffffffffffffffffffffffffff1673ffffffffffffffffffffffffffffffffffffffff168152602001908152602001600020549050919050565b60606000611872336117ae565b905060008167ffffffffffffffff8111156118905761188f6140b2565b5b6040519080825280602002602001820160405280156118c957816020015b6118b6613ce6565b8152602001906001900390816118ae5790505b50905060005b828110156119c05760006118e333836110b7565b905060006010600083815260200190815260200160002090508060405180608001604052908160008201548152602001600182015481526020016002820160009054906101000a900473ffffffffffffffffffffffffffffffffffffffff1673ffffffffffffffffffffffffffffffffffffffff1673ffffffffffffffffffffffffffffffffffffffff1681526020016002820160149054906101000a900460ff1615151515815250508484815181106119a05761199f614ee9565b5b6020026020010181905250505080806119b890614f9d565b9150506118cf565b50809250505090565b6119d1612c2e565b6119db6000612cac565b565b6119e5612c2e565b60008111611a28576040517f08c379a0000000000000000000000000000000000000000000000000000000008152600401611a1f9061519b565b60405180910390fd5b8060148190555050565b6000600760009054906101000a900473ffffffffffffffffffffffffffffffffffffffff16905090565b606060018054611a6b90614897565b80601f0160208091040260200160405190810160405280929190818152602001828054611a9790614897565b8015611ae45780601f10611ab957610100808354040283529160200191611ae4565b820191906000526020600020905b815481529060010190602001808311611ac757829003601f168201915b5050505050905090565b611b00611af96125b4565b8383612d72565b5050565b600073ffffffffffffffffffffffffffffffffffffffff168273ffffffffffffffffffffffffffffffffffffffff1603611b73576040517f08c379a0000000000000000000000000000000000000000000000000000000008152600401611b6a90614aca565b60405180910390fd5b7fa48c898f5241be426b79d4b5a3c206f9c9a06576e1b72c338c3ec849771d568681604051602001611ba59190614b26565b6040516020818303038152906040528051906020012003611bd957611bd48260096123df90919063ffffffff16565b611ce2565b7fdf8b4c520ffe197c5343c6f5aec59570151ef9a492f2c624fd45ddde6135ec4281604051602001611c0b9190614b26565b6040516020818303038152906040528051906020012003611c3f57611c3a82600a6123df90919063ffffffff16565b611ce1565b7f2db9fd3d099848027c2383d0a083396f6c41510d7acfd92adc99b6cffcf31e9681604051602001611c719190614b26565b6040516020818303038152906040528051906020012003611ca557611ca08260086123df90919063ffffffff16565b611ce0565b6040517f08c379a0000000000000000000000000000000000000000000000000000000008152600401611cd790614b89565b60405180910390fd5b5b5b8173ffffffffffffffffffffffffffffffffffffffff167f3565795c2fb8842c21347d277937778bbcfe788b5b4f790fc5e408786cbe9c9082604051611d289190613f31565b60405180910390a25050565b611d45611d3f6125b4565b836127f9565b611d84576040517f08c379a0000000000000000000000000000000000000000000000000000000008152600401611d7b90614d85565b60405180910390fd5b611d9084848484612ede565b50505050565b6000611da183611350565b15611de1576040517f08c379a0000000000000000000000000000000000000000000000000000000008152600401611dd890615207565b60405180910390fd5b611deb600d6127e3565b611df5600c6127e3565b6000611e01600d612be3565b9050611e0d3382612f3a565b611e178185612f58565b611e218184613003565b6001600f85604051611e339190614b26565b908152602001604051809103902060006101000a81548160ff0219169083151502179055508091505092915050565b60145481565b6060611e7382612569565b6000600660008481526020019081526020016000208054611e9390614897565b80601f0160208091040260200160405190810160405280929190818152602001828054611ebf90614897565b8015611f0c5780601f10611ee157610100808354040283529160200191611f0c565b820191906000526020600020905b815481529060010190602001808311611eef57829003601f168201915b505050505090506000611f1d613153565b90506000815103611f32578192505050611f75565b600082511115611f67578082604051602001611f4f929190615227565b60405160208183030381529060405292505050611f75565b611f708461316a565b925050505b919050565b6000611f86600c612be3565b905090565b600073ffffffffffffffffffffffffffffffffffffffff168573ffffffffffffffffffffffffffffffffffffffff1603611ffa576040517f08c379a0000000000000000000000000000000000000000000000000000000008152600401611ff190614aca565b60405180910390fd5b61200e85600861267590919063ffffffff16565b1561204e576040517f08c379a000000000000000000000000000000000000000000000000000000000815260040161204590615297565b60405180910390fd5b604051806060016040528085815260200184815260200183815250600b60008773ffffffffffffffffffffffffffffffffffffffff1673ffffffffffffffffffffffffffffffffffffffff16815260200190815260200160002060008201518160000190805190602001906120c4929190613d26565b5060208201518160010190805190602001906120e1929190613d26565b5060408201518160020190805190602001906120fe929190613d26565b509050507fa48c898f5241be426b79d4b5a3c206f9c9a06576e1b72c338c3ec849771d5686816040516020016121349190614b26565b6040516020818303038152906040528051906020012003612168576121638560096123df90919063ffffffff16565b612271565b7fdf8b4c520ffe197c5343c6f5aec59570151ef9a492f2c624fd45ddde6135ec428160405160200161219a9190614b26565b60405160208183030381529060405280519060200120036121ce576121c985600a6123df90919063ffffffff16565b612270565b7f2db9fd3d099848027c2383d0a083396f6c41510d7acfd92adc99b6cffcf31e96816040516020016122009190614b26565b60405160208183030381529060405280519060200120036122345761222f8560086123df90919063ffffffff16565b61226f565b6040517f08c379a000000000000000000000000000000000000000000000000000000000815260040161226690614b89565b60405180910390fd5b5b5b8473ffffffffffffffffffffffffffffffffffffffff167f8eab1db142a914aff8b515eedb9177bd7effaef6d714c41e30bdf1520677860785856040516122b99291906152b7565b60405180910390a25050505050565b6000600560008473ffffffffffffffffffffffffffffffffffffffff1673ffffffffffffffffffffffffffffffffffffffff16815260200190815260200160002060008373ffffffffffffffffffffffffffffffffffffffff1673ffffffffffffffffffffffffffffffffffffffff16815260200190815260200160002060009054906101000a900460ff16905092915050565b612364612c2e565b600073ffffffffffffffffffffffffffffffffffffffff168173ffffffffffffffffffffffffffffffffffffffff16036123d3576040517f08c379a00000000000000000000000000000000000000000000000000000000081526004016123ca90615360565b60405180910390fd5b6123dc81612cac565b50565b6123e98282612675565b15612429576040517f08c379a0000000000000000000000000000000000000000000000000000000008152600401612420906153cc565b60405180910390fd5b60018260000160008373ffffffffffffffffffffffffffffffffffffffff1673ffffffffffffffffffffffffffffffffffffffff16815260200190815260200160002060006101000a81548160ff0219169083151502179055505050565b60007f80ac58cd000000000000000000000000000000000000000000000000000000007bffffffffffffffffffffffffffffffffffffffffffffffffffffffff1916827bffffffffffffffffffffffffffffffffffffffffffffffffffffffff1916148061255257507f5b5e139f000000000000000000000000000000000000000000000000000000007bffffffffffffffffffffffffffffffffffffffffffffffffffffffff1916827bffffffffffffffffffffffffffffffffffffffffffffffffffffffff1916145b806125625750612561826131d2565b5b9050919050565b6125728161323c565b6125b1576040517f08c379a00000000000000000000000000000000000000000000000000000000081526004016125a890615031565b60405180910390fd5b50565b600033905090565b816004600083815260200190815260200160002060006101000a81548173ffffffffffffffffffffffffffffffffffffffff021916908373ffffffffffffffffffffffffffffffffffffffff160217905550808273ffffffffffffffffffffffffffffffffffffffff1661262f836113fd565b73ffffffffffffffffffffffffffffffffffffffff167f8c5be1e5ebec7d5bd14f71427d1e84f3dd0314c0f7b2291e5b200ac8c7c3b92560405160405180910390a45050565b60008073ffffffffffffffffffffffffffffffffffffffff168273ffffffffffffffffffffffffffffffffffffffff16036126e5576040517f08c379a00000000000000000000000000000000000000000000000000000000081526004016126dc9061545e565b60405180910390fd5b8260000160008373ffffffffffffffffffffffffffffffffffffffff1673ffffffffffffffffffffffffffffffffffffffff16815260200190815260200160002060009054906101000a900460ff16905092915050565b6127468282612675565b612785576040517f08c379a000000000000000000000000000000000000000000000000000000000815260040161277c906154f0565b60405180910390fd5b60008260000160008373ffffffffffffffffffffffffffffffffffffffff1673ffffffffffffffffffffffffffffffffffffffff16815260200190815260200160002060006101000a81548160ff0219169083151502179055505050565b6001816000016000828254019250508190555050565b600080612805836113fd565b90508073ffffffffffffffffffffffffffffffffffffffff168473ffffffffffffffffffffffffffffffffffffffff161480612847575061284681856122c8565b5b8061288557508373ffffffffffffffffffffffffffffffffffffffff1661286d846109d0565b73ffffffffffffffffffffffffffffffffffffffff16145b91505092915050565b8273ffffffffffffffffffffffffffffffffffffffff166128ae826113fd565b73ffffffffffffffffffffffffffffffffffffffff1614612904576040517f08c379a00000000000000000000000000000000000000000000000000000000081526004016128fb90615582565b60405180910390fd5b600073ffffffffffffffffffffffffffffffffffffffff168273ffffffffffffffffffffffffffffffffffffffff1603612973576040517f08c379a000000000000000000000000000000000000000000000000000000000815260040161296a90615614565b60405180910390fd5b612980838383600161327d565b8273ffffffffffffffffffffffffffffffffffffffff166129a0826113fd565b73ffffffffffffffffffffffffffffffffffffffff16146129f6576040517f08c379a00000000000000000000000000000000000000000000000000000000081526004016129ed90615582565b60405180910390fd5b6004600082815260200190815260200160002060006101000a81549073ffffffffffffffffffffffffffffffffffffffff02191690556001600360008573ffffffffffffffffffffffffffffffffffffffff1673ffffffffffffffffffffffffffffffffffffffff168152602001908152602001600020600082825403925050819055506001600360008473ffffffffffffffffffffffffffffffffffffffff1673ffffffffffffffffffffffffffffffffffffffff16815260200190815260200160002060008282540192505081905550816002600083815260200190815260200160002060006101000a81548173ffffffffffffffffffffffffffffffffffffffff021916908373ffffffffffffffffffffffffffffffffffffffff160217905550808273ffffffffffffffffffffffffffffffffffffffff168473ffffffffffffffffffffffffffffffffffffffff167fddf252ad1be2c89b69c2b068fc378daa952ba7f163c4a11628f55a4df523b3ef60405160405180910390a4612b828383836001613391565b505050565b60008160000154905060008111612bd3576040517f08c379a0000000000000000000000000000000000000000000000000000000008152600401612bca90615680565b60405180910390fd5b6001810382600001819055505050565b600081600001549050919050565b60006002600083815260200190815260200160002060009054906101000a900473ffffffffffffffffffffffffffffffffffffffff169050919050565b612c366125b4565b73ffffffffffffffffffffffffffffffffffffffff16612c54611a32565b73ffffffffffffffffffffffffffffffffffffffff1614612caa576040517f08c379a0000000000000000000000000000000000000000000000000000000008152600401612ca1906156ec565b60405180910390fd5b565b6000600760009054906101000a900473ffffffffffffffffffffffffffffffffffffffff16905081600760006101000a81548173ffffffffffffffffffffffffffffffffffffffff021916908373ffffffffffffffffffffffffffffffffffffffff1602179055508173ffffffffffffffffffffffffffffffffffffffff168173ffffffffffffffffffffffffffffffffffffffff167f8be0079c531659141344cd1fd0a4f28419497f9722a3daafe3b4186f6b6457e060405160405180910390a35050565b8173ffffffffffffffffffffffffffffffffffffffff168373ffffffffffffffffffffffffffffffffffffffff1603612de0576040517f08c379a0000000000000000000000000000000000000000000000000000000008152600401612dd790615758565b60405180910390fd5b80600560008573ffffffffffffffffffffffffffffffffffffffff1673ffffffffffffffffffffffffffffffffffffffff16815260200190815260200160002060008473ffffffffffffffffffffffffffffffffffffffff1673ffffffffffffffffffffffffffffffffffffffff16815260200190815260200160002060006101000a81548160ff0219169083151502179055508173ffffffffffffffffffffffffffffffffffffffff168373ffffffffffffffffffffffffffffffffffffffff167f17307eab39ab6107e8899845ad3d59bd9653f200f220920489ca2b5937696c3183604051612ed19190613e7d565b60405180910390a3505050565b612ee984848461288e565b612ef584848484613397565b612f34576040517f08c379a0000000000000000000000000000000000000000000000000000000008152600401612f2b906157ea565b60405180910390fd5b50505050565b612f5482826040518060200160405280600081525061351e565b5050565b612f618261323c565b612fa0576040517f08c379a0000000000000000000000000000000000000000000000000000000008152600401612f979061587c565b60405180910390fd5b80600660008481526020019081526020016000209080519060200190612fc7929190613d26565b507ff8e1a15aba9398e019f0b49df1a4fde98ee17ae345cb5f6b5e2c27f5033e8ce782604051612ff7919061408d565b60405180910390a15050565b60008111613046576040517f08c379a000000000000000000000000000000000000000000000000000000000815260040161303d9061519b565b60405180910390fd5b60405180608001604052808381526020018281526020013373ffffffffffffffffffffffffffffffffffffffff1681526020016001151581525060106000848152602001908152602001600020600082015181600001556020820151816001015560408201518160020160006101000a81548173ffffffffffffffffffffffffffffffffffffffff021916908373ffffffffffffffffffffffffffffffffffffffff16021790555060608201518160020160146101000a81548160ff0219169083151502179055509050507f470031062672bc0246e132c723a729c4676710ec663a29e86c88678032daddea8282336001604051613147949392919061589c565b60405180910390a15050565b606060405180602001604052806000815250905090565b606061317582612569565b600061317f613153565b9050600081511161319f57604051806020016040528060008152506131ca565b806131a984613579565b6040516020016131ba929190615227565b6040516020818303038152906040525b915050919050565b60007f01ffc9a7000000000000000000000000000000000000000000000000000000007bffffffffffffffffffffffffffffffffffffffffffffffffffffffff1916827bffffffffffffffffffffffffffffffffffffffffffffffffffffffff1916149050919050565b60008073ffffffffffffffffffffffffffffffffffffffff1661325e83612bf1565b73ffffffffffffffffffffffffffffffffffffffff1614159050919050565b61328984848484613647565b600073ffffffffffffffffffffffffffffffffffffffff168473ffffffffffffffffffffffffffffffffffffffff16036132cb576132c68261364d565b61330a565b8273ffffffffffffffffffffffffffffffffffffffff168473ffffffffffffffffffffffffffffffffffffffff1614613309576133088483613696565b5b5b600073ffffffffffffffffffffffffffffffffffffffff168373ffffffffffffffffffffffffffffffffffffffff160361334c5761334782613803565b61338b565b8373ffffffffffffffffffffffffffffffffffffffff168373ffffffffffffffffffffffffffffffffffffffff161461338a5761338983836138d4565b5b5b50505050565b50505050565b60006133b88473ffffffffffffffffffffffffffffffffffffffff16613953565b15613511578373ffffffffffffffffffffffffffffffffffffffff1663150b7a026133e16125b4565b8786866040518563ffffffff1660e01b81526004016134039493929190615936565b6020604051808303816000875af192505050801561343f57506040513d601f19601f8201168201806040525081019061343c9190615997565b60015b6134c1573d806000811461346f576040519150601f19603f3d011682016040523d82523d6000602084013e613474565b606091505b5060008151036134b9576040517f08c379a00000000000000000000000000000000000000000000000000000000081526004016134b0906157ea565b60405180910390fd5b805181602001fd5b63150b7a0260e01b7bffffffffffffffffffffffffffffffffffffffffffffffffffffffff1916817bffffffffffffffffffffffffffffffffffffffffffffffffffffffff191614915050613516565b600190505b949350505050565b6135288383613976565b6135356000848484613397565b613574576040517f08c379a000000000000000000000000000000000000000000000000000000000815260040161356b906157ea565b60405180910390fd5b505050565b60606000600161358884613b93565b01905060008167ffffffffffffffff8111156135a7576135a66140b2565b5b6040519080825280601f01601f1916602001820160405280156135d95781602001600182028036833780820191505090505b509050600082602001820190505b60011561363c578080600190039150507f3031323334353637383961626364656600000000000000000000000000000000600a86061a8153600a85816136305761362f6159c4565b5b049450600085036135e7575b819350505050919050565b50505050565b600e805490506011600083815260200190815260200160002081905550600e81908060018154018082558091505060019003906000526020600020016000909190919091505550565b600060016136a3846117ae565b6136ad91906159f3565b9050600060136000848152602001908152602001600020549050818114613792576000601260008673ffffffffffffffffffffffffffffffffffffffff1673ffffffffffffffffffffffffffffffffffffffff168152602001908152602001600020600084815260200190815260200160002054905080601260008773ffffffffffffffffffffffffffffffffffffffff1673ffffffffffffffffffffffffffffffffffffffff168152602001908152602001600020600084815260200190815260200160002081905550816013600083815260200190815260200160002081905550505b6013600084815260200190815260200160002060009055601260008573ffffffffffffffffffffffffffffffffffffffff1673ffffffffffffffffffffffffffffffffffffffff16815260200190815260200160002060008381526020019081526020016000206000905550505050565b60006001600e8054905061381791906159f3565b90506000601160008481526020019081526020016000205490506000600e838154811061384757613846614ee9565b5b9060005260206000200154905080600e838154811061386957613868614ee9565b5b90600052602060002001819055508160116000838152602001908152602001600020819055506011600085815260200190815260200160002060009055600e8054806138b8576138b7615a27565b5b6001900381819060005260206000200160009055905550505050565b60006138df836117ae565b905081601260008573ffffffffffffffffffffffffffffffffffffffff1673ffffffffffffffffffffffffffffffffffffffff168152602001908152602001600020600083815260200190815260200160002081905550806013600084815260200190815260200160002081905550505050565b6000808273ffffffffffffffffffffffffffffffffffffffff163b119050919050565b600073ffffffffffffffffffffffffffffffffffffffff168273ffffffffffffffffffffffffffffffffffffffff16036139e5576040517f08c379a00000000000000000000000000000000000000000000000000000000081526004016139dc90615aa2565b60405180910390fd5b6139ee8161323c565b15613a2e576040517f08c379a0000000000000000000000000000000000000000000000000000000008152600401613a2590615b0e565b60405180910390fd5b613a3c60008383600161327d565b613a458161323c565b15613a85576040517f08c379a0000000000000000000000000000000000000000000000000000000008152600401613a7c90615b0e565b60405180910390fd5b6001600360008473ffffffffffffffffffffffffffffffffffffffff1673ffffffffffffffffffffffffffffffffffffffff16815260200190815260200160002060008282540192505081905550816002600083815260200190815260200160002060006101000a81548173ffffffffffffffffffffffffffffffffffffffff021916908373ffffffffffffffffffffffffffffffffffffffff160217905550808273ffffffffffffffffffffffffffffffffffffffff16600073ffffffffffffffffffffffffffffffffffffffff167fddf252ad1be2c89b69c2b068fc378daa952ba7f163c4a11628f55a4df523b3ef60405160405180910390a4613b8f600083836001613391565b5050565b600080600090507a184f03e93ff9f4daa797ed6e38ed64bf6a1f0100000000000000008310613bf1577a184f03e93ff9f4daa797ed6e38ed64bf6a1f0100000000000000008381613be757613be66159c4565b5b0492506040810190505b6d04ee2d6d415b85acef81000000008310613c2e576d04ee2d6d415b85acef81000000008381613c2457613c236159c4565b5b0492506020810190505b662386f26fc100008310613c5d57662386f26fc100008381613c5357613c526159c4565b5b0492506010810190505b6305f5e1008310613c86576305f5e1008381613c7c57613c7b6159c4565b5b0492506008810190505b6127108310613cab576127108381613ca157613ca06159c4565b5b0492506004810190505b60648310613cce5760648381613cc457613cc36159c4565b5b0492506002810190505b600a8310613cdd576001810190505b80915050919050565b60405180608001604052806000815260200160008152602001600073ffffffffffffffffffffffffffffffffffffffff1681526020016000151581525090565b828054613d3290614897565b90600052602060002090601f016020900481019282613d545760008555613d9b565b82601f10613d6d57805160ff1916838001178555613d9b565b82800160010185558215613d9b579182015b82811115613d9a578251825591602001919060010190613d7f565b5b509050613da89190613dac565b5090565b5b80821115613dc5576000816000905550600101613dad565b5090565b6000604051905090565b600080fd5b600080fd5b60007fffffffff0000000000000000000000000000000000000000000000000000000082169050919050565b613e1281613ddd565b8114613e1d57600080fd5b50565b600081359050613e2f81613e09565b92915050565b600060208284031215613e4b57613e4a613dd3565b5b6000613e5984828501613e20565b91505092915050565b60008115159050919050565b613e7781613e62565b82525050565b6000602082019050613e926000830184613e6e565b92915050565b600081519050919050565b600082825260208201905092915050565b60005b83811015613ed2578082015181840152602081019050613eb7565b83811115613ee1576000848401525b50505050565b6000601f19601f8301169050919050565b6000613f0382613e98565b613f0d8185613ea3565b9350613f1d818560208601613eb4565b613f2681613ee7565b840191505092915050565b60006020820190508181036000830152613f4b8184613ef8565b905092915050565b6000819050919050565b613f6681613f53565b8114613f7157600080fd5b50565b600081359050613f8381613f5d565b92915050565b600060208284031215613f9f57613f9e613dd3565b5b6000613fad84828501613f74565b91505092915050565b600073ffffffffffffffffffffffffffffffffffffffff82169050919050565b6000613fe182613fb6565b9050919050565b613ff181613fd6565b82525050565b600060208201905061400c6000830184613fe8565b92915050565b61401b81613fd6565b811461402657600080fd5b50565b60008135905061403881614012565b92915050565b6000806040838503121561405557614054613dd3565b5b600061406385828601614029565b925050602061407485828601613f74565b9150509250929050565b61408781613f53565b82525050565b60006020820190506140a2600083018461407e565b92915050565b600080fd5b600080fd5b7f4e487b7100000000000000000000000000000000000000000000000000000000600052604160045260246000fd5b6140ea82613ee7565b810181811067ffffffffffffffff82111715614109576141086140b2565b5b80604052505050565b600061411c613dc9565b905061412882826140e1565b919050565b600067ffffffffffffffff821115614148576141476140b2565b5b61415182613ee7565b9050602081019050919050565b82818337600083830152505050565b600061418061417b8461412d565b614112565b90508281526020810184848401111561419c5761419b6140ad565b5b6141a784828561415e565b509392505050565b600082601f8301126141c4576141c36140a8565b5b81356141d484826020860161416d565b91505092915050565b600080604083850312156141f4576141f3613dd3565b5b600061420285828601614029565b925050602083013567ffffffffffffffff81111561422357614222613dd8565b5b61422f858286016141af565b9150509250929050565b600080604083850312156142505761424f613dd3565b5b600061425e85828601613f74565b925050602061426f85828601613f74565b9150509250929050565b60008060006060848603121561429257614291613dd3565b5b60006142a086828701614029565b93505060206142b186828701614029565b92505060406142c286828701613f74565b9150509250925092565b6000602082840312156142e2576142e1613dd3565b5b60006142f084828501614029565b91505092915050565b600081519050919050565b600082825260208201905092915050565b6000819050602082019050919050565b61432e81613f53565b82525050565b61433d81613fd6565b82525050565b61434c81613e62565b82525050565b6080820160008201516143686000850182614325565b50602082015161437b6020850182614325565b50604082015161438e6040850182614334565b5060608201516143a16060850182614343565b50505050565b60006143b38383614352565b60808301905092915050565b6000602082019050919050565b60006143d7826142f9565b6143e18185614304565b93506143ec83614315565b8060005b8381101561441d57815161440488826143a7565b975061440f836143bf565b9250506001810190506143f0565b5085935050505092915050565b6000602082019050818103600083015261444481846143cc565b905092915050565b60006020828403121561446257614461613dd3565b5b600082013567ffffffffffffffff8111156144805761447f613dd8565b5b61448c848285016141af565b91505092915050565b600060608201905081810360008301526144af8186613ef8565b905081810360208301526144c38185613ef8565b905081810360408301526144d78184613ef8565b9050949350505050565b6080820160008201516144f76000850182614325565b50602082015161450a6020850182614325565b50604082015161451d6040850182614334565b5060608201516145306060850182614343565b50505050565b600060808201905061454b60008301846144e1565b92915050565b61455a81613e62565b811461456557600080fd5b50565b60008135905061457781614551565b92915050565b6000806040838503121561459457614593613dd3565b5b60006145a285828601614029565b92505060206145b385828601614568565b9150509250929050565b600067ffffffffffffffff8211156145d8576145d76140b2565b5b6145e182613ee7565b9050602081019050919050565b60006146016145fc846145bd565b614112565b90508281526020810184848401111561461d5761461c6140ad565b5b61462884828561415e565b509392505050565b600082601f830112614645576146446140a8565b5b81356146558482602086016145ee565b91505092915050565b6000806000806080858703121561467857614677613dd3565b5b600061468687828801614029565b945050602061469787828801614029565b93505060406146a887828801613f74565b925050606085013567ffffffffffffffff8111156146c9576146c8613dd8565b5b6146d587828801614630565b91505092959194509250565b600080604083850312156146f8576146f7613dd3565b5b600083013567ffffffffffffffff81111561471657614715613dd8565b5b614722858286016141af565b925050602061473385828601613f74565b9150509250929050565b600080600080600060a0868803121561475957614758613dd3565b5b600061476788828901614029565b955050602086013567ffffffffffffffff81111561478857614787613dd8565b5b614794888289016141af565b945050604086013567ffffffffffffffff8111156147b5576147b4613dd8565b5b6147c1888289016141af565b935050606086013567ffffffffffffffff8111156147e2576147e1613dd8565b5b6147ee888289016141af565b925050608086013567ffffffffffffffff81111561480f5761480e613dd8565b5b61481b888289016141af565b9150509295509295909350565b6000806040838503121561483f5761483e613dd3565b5b600061484d85828601614029565b925050602061485e85828601614029565b9150509250929050565b7f4e487b7100000000000000000000000000000000000000000000000000000000600052602260045260246000fd5b600060028204905060018216806148af57607f821691505b6020821081036148c2576148c1614868565b5b50919050565b7f4552433732313a20617070726f76616c20746f2063757272656e74206f776e6560008201527f7200000000000000000000000000000000000000000000000000000000000000602082015250565b6000614924602183613ea3565b915061492f826148c8565b604082019050919050565b6000602082019050818103600083015261495381614917565b9050919050565b7f4552433732313a20617070726f76652063616c6c6572206973206e6f7420746f60008201527f6b656e206f776e6572206f7220617070726f76656420666f7220616c6c000000602082015250565b60006149b6603d83613ea3565b91506149c18261495a565b604082019050919050565b600060208201905081810360008301526149e5816149a9565b9050919050565b7f4f6e6c792061646d696e2063616e20706572666f726d2074686973206163746960008201527f6f6e000000000000000000000000000000000000000000000000000000000000602082015250565b6000614a48602283613ea3565b9150614a53826149ec565b604082019050919050565b60006020820190508181036000830152614a7781614a3b565b9050919050565b7f496e76616c696420616464726573730000000000000000000000000000000000600082015250565b6000614ab4600f83613ea3565b9150614abf82614a7e565b602082019050919050565b60006020820190508181036000830152614ae381614aa7565b9050919050565b600081905092915050565b6000614b0082613e98565b614b0a8185614aea565b9350614b1a818560208601613eb4565b80840191505092915050565b6000614b328284614af5565b915081905092915050565b7f496e76616c696420726f6c650000000000000000000000000000000000000000600082015250565b6000614b73600c83613ea3565b9150614b7e82614b3d565b602082019050919050565b60006020820190508181036000830152614ba281614b66565b9050919050565b7f596f7520617265206e6f74206f776e6572206f662074686973206e6674000000600082015250565b6000614bdf601d83613ea3565b9150614bea82614ba9565b602082019050919050565b60006020820190508181036000830152614c0e81614bd2565b9050919050565b7f4974656d20697320616c7265616479206f6e2073616c65000000000000000000600082015250565b6000614c4b601783613ea3565b9150614c5682614c15565b602082019050919050565b60006020820190508181036000830152614c7a81614c3e565b9050919050565b7f5072696365206d75737420626520657175616c20746f206c697374696e67207060008201527f7269636500000000000000000000000000000000000000000000000000000000602082015250565b6000614cdd602483613ea3565b9150614ce882614c81565b604082019050919050565b60006020820190508181036000830152614d0c81614cd0565b9050919050565b7f4552433732313a2063616c6c6572206973206e6f7420746f6b656e206f776e6560008201527f72206f7220617070726f76656400000000000000000000000000000000000000602082015250565b6000614d6f602d83613ea3565b9150614d7a82614d13565b604082019050919050565b60006020820190508181036000830152614d9e81614d62565b9050919050565b7f596f7520616c7265616479206f776e2074686973204e46540000000000000000600082015250565b6000614ddb601883613ea3565b9150614de682614da5565b602082019050919050565b60006020820190508181036000830152614e0a81614dce565b9050919050565b7f506c65617365207375626d6974207468652061736b696e672070726963650000600082015250565b6000614e47601e83613ea3565b9150614e5282614e11565b602082019050919050565b60006020820190508181036000830152614e7681614e3a565b9050919050565b7f496e646578206f7574206f6620626f756e647300000000000000000000000000600082015250565b6000614eb3601383613ea3565b9150614ebe82614e7d565b602082019050919050565b60006020820190508181036000830152614ee281614ea6565b9050919050565b7f4e487b7100000000000000000000000000000000000000000000000000000000600052603260045260246000fd5b7f4e487b7100000000000000000000000000000000000000000000000000000000600052601160045260246000fd5b6000614f5282613f53565b9150614f5d83613f53565b9250827fffffffffffffffffffffffffffffffffffffffffffffffffffffffffffffffff03821115614f9257614f91614f18565b5b828201905092915050565b6000614fa882613f53565b91507fffffffffffffffffffffffffffffffffffffffffffffffffffffffffffffffff8203614fda57614fd9614f18565b5b600182019050919050565b7f4552433732313a20696e76616c696420746f6b656e2049440000000000000000600082015250565b600061501b601883613ea3565b915061502682614fe5565b602082019050919050565b6000602082019050818103600083015261504a8161500e565b9050919050565b7f5573657220646f6573206e6f7420657869737400000000000000000000000000600082015250565b6000615087601383613ea3565b915061509282615051565b602082019050919050565b600060208201905081810360008301526150b68161507a565b9050919050565b7f4552433732313a2061646472657373207a65726f206973206e6f74206120766160008201527f6c6964206f776e65720000000000000000000000000000000000000000000000602082015250565b6000615119602983613ea3565b9150615124826150bd565b604082019050919050565b600060208201905081810360008301526151488161510c565b9050919050565b7f5072696365206d757374206265206174206c6561737420312077656900000000600082015250565b6000615185601c83613ea3565b91506151908261514f565b602082019050919050565b600060208201905081810360008301526151b481615178565b9050919050565b7f546f6b656e2055524920616c7265616479206578697374730000000000000000600082015250565b60006151f1601883613ea3565b91506151fc826151bb565b602082019050919050565b60006020820190508181036000830152615220816151e4565b9050919050565b60006152338285614af5565b915061523f8284614af5565b91508190509392505050565b7f5573657220616c72656164792065786973747300000000000000000000000000600082015250565b6000615281601383613ea3565b915061528c8261524b565b602082019050919050565b600060208201905081810360008301526152b081615274565b9050919050565b600060408201905081810360008301526152d18185613ef8565b905081810360208301526152e58184613ef8565b90509392505050565b7f4f776e61626c653a206e6577206f776e657220697320746865207a65726f206160008201527f6464726573730000000000000000000000000000000000000000000000000000602082015250565b600061534a602683613ea3565b9150615355826152ee565b604082019050919050565b600060208201905081810360008301526153798161533d565b9050919050565b7f526f6c65733a206163636f756e7420616c72656164792068617320726f6c6500600082015250565b60006153b6601f83613ea3565b91506153c182615380565b602082019050919050565b600060208201905081810360008301526153e5816153a9565b9050919050565b7f526f6c65733a206163636f756e7420697320746865207a65726f20616464726560008201527f7373000000000000000000000000000000000000000000000000000000000000602082015250565b6000615448602283613ea3565b9150615453826153ec565b604082019050919050565b600060208201905081810360008301526154778161543b565b9050919050565b7f526f6c65733a206163636f756e7420646f6573206e6f74206861766520726f6c60008201527f6500000000000000000000000000000000000000000000000000000000000000602082015250565b60006154da602183613ea3565b91506154e58261547e565b604082019050919050565b60006020820190508181036000830152615509816154cd565b9050919050565b7f4552433732313a207472616e736665722066726f6d20696e636f72726563742060008201527f6f776e6572000000000000000000000000000000000000000000000000000000602082015250565b600061556c602583613ea3565b915061557782615510565b604082019050919050565b6000602082019050818103600083015261559b8161555f565b9050919050565b7f4552433732313a207472616e7366657220746f20746865207a65726f2061646460008201527f7265737300000000000000000000000000000000000000000000000000000000602082015250565b60006155fe602483613ea3565b9150615609826155a2565b604082019050919050565b6000602082019050818103600083015261562d816155f1565b9050919050565b7f436f756e7465723a2064656372656d656e74206f766572666c6f770000000000600082015250565b600061566a601b83613ea3565b915061567582615634565b602082019050919050565b600060208201905081810360008301526156998161565d565b9050919050565b7f4f776e61626c653a2063616c6c6572206973206e6f7420746865206f776e6572600082015250565b60006156d6602083613ea3565b91506156e1826156a0565b602082019050919050565b60006020820190508181036000830152615705816156c9565b9050919050565b7f4552433732313a20617070726f766520746f2063616c6c657200000000000000600082015250565b6000615742601983613ea3565b915061574d8261570c565b602082019050919050565b6000602082019050818103600083015261577181615735565b9050919050565b7f4552433732313a207472616e7366657220746f206e6f6e20455243373231526560008201527f63656976657220696d706c656d656e7465720000000000000000000000000000602082015250565b60006157d4603283613ea3565b91506157df82615778565b604082019050919050565b60006020820190508181036000830152615803816157c7565b9050919050565b7f45524337323155524953746f726167653a2055524920736574206f66206e6f6e60008201527f6578697374656e7420746f6b656e000000000000000000000000000000000000602082015250565b6000615866602e83613ea3565b91506158718261580a565b604082019050919050565b6000602082019050818103600083015261589581615859565b9050919050565b60006080820190506158b1600083018761407e565b6158be602083018661407e565b6158cb6040830185613fe8565b6158d86060830184613e6e565b95945050505050565b600081519050919050565b600082825260208201905092915050565b6000615908826158e1565b61591281856158ec565b9350615922818560208601613eb4565b61592b81613ee7565b840191505092915050565b600060808201905061594b6000830187613fe8565b6159586020830186613fe8565b615965604083018561407e565b818103606083015261597781846158fd565b905095945050505050565b60008151905061599181613e09565b92915050565b6000602082840312156159ad576159ac613dd3565b5b60006159bb84828501615982565b91505092915050565b7f4e487b7100000000000000000000000000000000000000000000000000000000600052601260045260246000fd5b60006159fe82613f53565b9150615a0983613f53565b925082821015615a1c57615a1b614f18565b5b828203905092915050565b7f4e487b7100000000000000000000000000000000000000000000000000000000600052603160045260246000fd5b7f4552433732313a206d696e7420746f20746865207a65726f2061646472657373600082015250565b6000615a8c602083613ea3565b9150615a9782615a56565b602082019050919050565b60006020820190508181036000830152615abb81615a7f565b9050919050565b7f4552433732313a20746f6b656e20616c7265616479206d696e74656400000000600082015250565b6000615af8601c83613ea3565b9150615b0382615ac2565b602082019050919050565b60006020820190508181036000830152615b2781615aeb565b905091905056fea26469706673582212203393a77b448c4b9bbfa14d2d1ecca2ed71fa6baa75d275b07f31c8c3390a77e664736f6c634300080d0033",
  "immutableReferences": {},
  "source": "// SPDX-License-Identifier: MIT\r\npragma solidity >=0.4.22 <0.9.0;\r\nimport \"@openzeppelin/contracts/token/ERC721/extensions/ERC721URIStorage.sol\";\r\nimport \"@openzeppelin/contracts/utils/Counters.sol\";\r\nimport \"@openzeppelin/contracts/access/Ownable.sol\";\r\nimport \"../contracts/access/AccessManage.sol\";\r\n\r\ncontract NftMarket is ERC721URIStorage, Ownable, AccessManage {\r\n  using Counters for Counters.Counter;\r\n\r\n  Counters.Counter private _listedItems;\r\n  Counters.Counter private _tokenIds;\r\n  uint256[] private _allNfts;\r\n\r\n  mapping(string => bool) private _usedTokenURIs;\r\n  mapping(uint => NftItem) private _idToNftItem;\r\n  mapping(uint => uint) private _idToNftIndex;\r\n  mapping(address => mapping(uint => uint)) private _ownedTokens;\r\n  mapping(uint => uint) private _idToOwnedIndex;\r\n\r\n  struct NftItem {\r\n    uint tokenId;\r\n    uint price;\r\n    address creator;\r\n    bool isListed;\r\n  }\r\n\r\n  event NftItemCreated (\r\n    uint tokenId,\r\n    uint price,\r\n    address creator,\r\n    bool isListed\r\n  );\r\n  uint public listingPrice = 0.025 ether;\r\n\r\n  constructor() ERC721(\"CreaturesNFT\", \"CNFT\") {}\r\n  \r\n  function getNftItem(uint tokenId) public view returns (NftItem memory) {\r\n    return _idToNftItem[tokenId];\r\n  }\r\n\r\n  function listedItemsCount() public view returns (uint) {\r\n    return _listedItems.current();\r\n  }\r\n\r\n  function setListingPrice(uint newPrice) external onlyOwner {\r\n    require(newPrice > 0, \"Price must be at least 1 wei\");\r\n    listingPrice = newPrice;\r\n  }\r\n  function tokenURIExists(string memory tokenURI) public view returns (bool) {\r\n    return _usedTokenURIs[tokenURI] == true;\r\n  }\r\n\r\n  function totalSupply() public view returns (uint) {\r\n    return _allNfts.length;\r\n  }\r\n\r\n  function tokenByIndex(uint index) public view returns (uint) {\r\n    require(index < totalSupply(), \"Index out of bounds\");\r\n    return _allNfts[index];\r\n  }\r\n  \r\n  function mintToken(string memory tokenURI, uint price) public payable returns (uint) {\r\n    //require(isVerifier(msg.sender), \"Only verifiers can access this\");    \r\n    require(!tokenURIExists(tokenURI), \"Token URI already exists\");\r\n   // require(msg.value == listingPrice, \"Price must be equal to listing price\");\r\n    _tokenIds.increment();\r\n    _listedItems.increment();\r\n\r\n    uint newTokenId = _tokenIds.current();\r\n\r\n    _safeMint(msg.sender, newTokenId);\r\n    _setTokenURI(newTokenId, tokenURI);\r\n    _createNftItem(newTokenId, price);\r\n    _usedTokenURIs[tokenURI] = true;\r\n    return newTokenId;\r\n  }\r\n\r\n  function getAllNftsOnSale() public view returns (NftItem[] memory) {\r\n    uint allItemsCounts = totalSupply();\r\n    uint currentIndex = 0;\r\n    NftItem[] memory items = new NftItem[](_listedItems.current());\r\n\r\n    for (uint i = 0; i < allItemsCounts; i++) {\r\n      uint tokenId = tokenByIndex(i);\r\n      NftItem storage item = _idToNftItem[tokenId];\r\n\r\n      if (item.isListed == true) {\r\n        items[currentIndex] = item;\r\n        currentIndex += 1;\r\n      }\r\n    }\r\n\r\n    return items;\r\n  }\r\n\r\n\r\n  function getOwnedNfts() public view returns (NftItem[] memory) {\r\n    uint ownedItemsCount = ERC721.balanceOf(msg.sender);\r\n    NftItem[] memory items = new NftItem[](ownedItemsCount);\r\n\r\n    for (uint i = 0; i < ownedItemsCount; i++) {\r\n      uint tokenId = tokenOfOwnerByIndex(msg.sender, i);\r\n      NftItem storage item = _idToNftItem[tokenId];\r\n      items[i] = item;\r\n    }\r\n\r\n    return items;\r\n  }\r\n\r\n  \r\n  function _createNftItem(\r\n    uint tokenId,\r\n    uint price\r\n  ) private {\r\n    require(price > 0, \"Price must be at least 1 wei\");\r\n\r\n    _idToNftItem[tokenId] = NftItem(\r\n      tokenId,\r\n      price,\r\n      msg.sender,\r\n      true\r\n    );\r\n\r\n    emit NftItemCreated(tokenId, price, msg.sender, true);\r\n  }\r\n\r\n  function buyNft(\r\n    uint tokenId\r\n  ) public payable {\r\n    uint price = _idToNftItem[tokenId].price;\r\n    address owner = ERC721.ownerOf(tokenId);\r\n\r\n    require(msg.sender != owner, \"You already own this NFT\");\r\n    require(msg.value == price, \"Please submit the asking price\");\r\n\r\n    _idToNftItem[tokenId].isListed = false;\r\n    _listedItems.decrement();\r\n\r\n    _transfer(owner, msg.sender, tokenId);\r\n    payable(owner).transfer(msg.value);\r\n  }\r\n\r\n  function _beforeTokenTransfer(\r\n    address from,\r\n    address to,\r\n    uint tokenId,\r\n    uint256 batchSize\r\n  ) internal virtual override {\r\n    super._beforeTokenTransfer(from, to, tokenId, batchSize);\r\n\r\n    if (from == address(0)) {\r\n      _addTokenToAllTokensEnumaration(tokenId);\r\n    }else if (from != to) {\r\n      _removeTokenFromOwnerEnumeration(from, tokenId);\r\n    }\r\n     if (to == address(0)) {\r\n      _removeTokenFromAllTokensEnumeration(tokenId);\r\n    } else if (to != from) {\r\n      _addTokenToOwnerEnumaration(to, tokenId);\r\n    }\r\n  } \r\n\r\n\r\n  function _addTokenToAllTokensEnumaration(uint tokenId) private {\r\n    _idToNftIndex[tokenId] = _allNfts.length;\r\n    _allNfts.push(tokenId);\r\n  }\r\n  function _addTokenToOwnerEnumaration(address to, uint tokenId) private {\r\n    uint length = ERC721.balanceOf(to);\r\n    _ownedTokens[to][length] = tokenId;\r\n    _idToOwnedIndex[tokenId] = length;\r\n  }\r\n\r\n  function tokenOfOwnerByIndex(address owner, uint index) public view returns (uint) {\r\n    require(index < ERC721.balanceOf(owner), \"Index out of bounds\");\r\n    return _ownedTokens[owner][index];\r\n  }\r\n\r\n   function _removeTokenFromOwnerEnumeration(address from, uint tokenId) private {\r\n    uint lastTokenIndex = ERC721.balanceOf(from) - 1;\r\n    uint tokenIndex = _idToOwnedIndex[tokenId];\r\n\r\n    if (tokenIndex != lastTokenIndex) {\r\n      uint lastTokenId = _ownedTokens[from][lastTokenIndex];\r\n\r\n      _ownedTokens[from][tokenIndex] = lastTokenId;\r\n      _idToOwnedIndex[lastTokenId] = tokenIndex;\r\n    }\r\n\r\n    delete _idToOwnedIndex[tokenId];\r\n    delete _ownedTokens[from][lastTokenIndex];\r\n  }\r\n\r\n\r\n  function _removeTokenFromAllTokensEnumeration(uint tokenId) private {\r\n    uint lastTokenIndex = _allNfts.length - 1;\r\n    uint tokenIndex = _idToNftIndex[tokenId];\r\n    uint lastTokenId = _allNfts[lastTokenIndex];\r\n\r\n    _allNfts[tokenIndex] = lastTokenId;\r\n    _idToNftIndex[lastTokenId] = tokenIndex;\r\n\r\n    delete _idToNftIndex[tokenId];\r\n    _allNfts.pop();\r\n  }\r\n\r\n  function placeNftOnSale(uint tokenId, uint newPrice) public payable {\r\n    require(ERC721.ownerOf(tokenId) == msg.sender, \"You are not owner of this nft\");\r\n    require(_idToNftItem[tokenId].isListed == false, \"Item is already on sale\");\r\n    require(msg.value == listingPrice, \"Price must be equal to listing price\");\r\n\r\n    _idToNftItem[tokenId].isListed = true;\r\n    _idToNftItem[tokenId].price = newPrice;\r\n    _listedItems.increment();\r\n  }\r\n}\r\n\r\n",
  "sourcePath": "C:\\HCMUS\\KhoaLuan\\Udemy\\NFT_Marketplace\\nft_marketplace\\contracts\\NftMarket.sol",
  "compiler": {
    "name": "solc",
    "version": "0.8.13+commit.abaa5c0e.Emscripten.clang"
  },
  "schemaVersion": "3.4.16",
  "updatedAt": "2025-01-24T06:57:52.786Z",
  "networkType": "ethereum",
  "devdoc": {
    "kind": "dev",
    "methods": {
      "approve(address,uint256)": {
        "details": "See {IERC721-approve}."
      },
      "balanceOf(address)": {
        "details": "See {IERC721-balanceOf}."
      },
      "getApproved(uint256)": {
        "details": "See {IERC721-getApproved}."
      },
      "isApprovedForAll(address,address)": {
        "details": "See {IERC721-isApprovedForAll}."
      },
      "name()": {
        "details": "See {IERC721Metadata-name}."
      },
      "owner()": {
        "details": "Returns the address of the current owner."
      },
      "ownerOf(uint256)": {
        "details": "See {IERC721-ownerOf}."
      },
      "renounceOwnership()": {
        "details": "Leaves the contract without owner. It will not be possible to call `onlyOwner` functions. Can only be called by the current owner. NOTE: Renouncing ownership will leave the contract without an owner, thereby disabling any functionality that is only available to the owner."
      },
      "safeTransferFrom(address,address,uint256)": {
        "details": "See {IERC721-safeTransferFrom}."
      },
      "safeTransferFrom(address,address,uint256,bytes)": {
        "details": "See {IERC721-safeTransferFrom}."
      },
      "setApprovalForAll(address,bool)": {
        "details": "See {IERC721-setApprovalForAll}."
      },
      "supportsInterface(bytes4)": {
        "details": "See {IERC165-supportsInterface}"
      },
      "symbol()": {
        "details": "See {IERC721Metadata-symbol}."
      },
      "tokenURI(uint256)": {
        "details": "See {IERC721Metadata-tokenURI}."
      },
      "transferFrom(address,address,uint256)": {
        "details": "See {IERC721-transferFrom}."
      },
      "transferOwnership(address)": {
        "details": "Transfers ownership of the contract to a new account (`newOwner`). Can only be called by the current owner."
      }
    },
    "version": 1
  },
  "userdoc": {
    "kind": "user",
    "methods": {},
    "version": 1
  }
}