{
  "contractName": "NftMarket",
  "abi": [
    {
      "inputs": [],
      "stateMutability": "nonpayable",
      "type": "constructor"
    },
    {
      "anonymous": false,
      "inputs": [
        {
          "indexed": true,
          "internalType": "address",
          "name": "owner",
          "type": "address"
        },
        {
          "indexed": true,
          "internalType": "address",
          "name": "approved",
          "type": "address"
        },
        {
          "indexed": true,
          "internalType": "uint256",
          "name": "tokenId",
          "type": "uint256"
        }
      ],
      "name": "Approval",
      "type": "event"
    },
    {
      "anonymous": false,
      "inputs": [
        {
          "indexed": true,
          "internalType": "address",
          "name": "owner",
          "type": "address"
        },
        {
          "indexed": true,
          "internalType": "address",
          "name": "operator",
          "type": "address"
        },
        {
          "indexed": false,
          "internalType": "bool",
          "name": "approved",
          "type": "bool"
        }
      ],
      "name": "ApprovalForAll",
      "type": "event"
    },
    {
      "anonymous": false,
      "inputs": [
        {
          "indexed": false,
          "internalType": "uint256",
          "name": "_fromTokenId",
          "type": "uint256"
        },
        {
          "indexed": false,
          "internalType": "uint256",
          "name": "_toTokenId",
          "type": "uint256"
        }
      ],
      "name": "BatchMetadataUpdate",
      "type": "event"
    },
    {
      "anonymous": false,
      "inputs": [
        {
          "indexed": false,
          "internalType": "uint256",
          "name": "_tokenId",
          "type": "uint256"
        }
      ],
      "name": "MetadataUpdate",
      "type": "event"
    },
    {
      "anonymous": false,
      "inputs": [
        {
          "indexed": false,
          "internalType": "uint256",
          "name": "tokenId",
          "type": "uint256"
        },
        {
          "indexed": false,
          "internalType": "uint256",
          "name": "price",
          "type": "uint256"
        },
        {
          "indexed": false,
          "internalType": "address",
          "name": "creator",
          "type": "address"
        },
        {
          "indexed": false,
          "internalType": "bool",
          "name": "isListed",
          "type": "bool"
        },
        {
          "indexed": false,
          "internalType": "uint256",
          "name": "status",
          "type": "uint256"
        }
      ],
      "name": "NftItemCreated",
      "type": "event"
    },
    {
      "anonymous": false,
      "inputs": [
        {
          "indexed": true,
          "internalType": "address",
          "name": "previousOwner",
          "type": "address"
        },
        {
          "indexed": true,
          "internalType": "address",
          "name": "newOwner",
          "type": "address"
        }
      ],
      "name": "OwnershipTransferred",
      "type": "event"
    },
    {
      "anonymous": false,
      "inputs": [
        {
          "indexed": true,
          "internalType": "address",
          "name": "account",
          "type": "address"
        },
        {
          "indexed": false,
          "internalType": "string",
          "name": "role",
          "type": "string"
        }
      ],
      "name": "RoleAssigned",
      "type": "event"
    },
    {
      "anonymous": false,
      "inputs": [
        {
          "indexed": true,
          "internalType": "address",
          "name": "account",
          "type": "address"
        },
        {
          "indexed": false,
          "internalType": "string",
          "name": "role",
          "type": "string"
        }
      ],
      "name": "RoleRemoved",
      "type": "event"
    },
    {
      "anonymous": false,
      "inputs": [
        {
          "indexed": true,
          "internalType": "address",
          "name": "from",
          "type": "address"
        },
        {
          "indexed": true,
          "internalType": "address",
          "name": "to",
          "type": "address"
        },
        {
          "indexed": true,
          "internalType": "uint256",
          "name": "tokenId",
          "type": "uint256"
        }
      ],
      "name": "Transfer",
      "type": "event"
    },
    {
      "anonymous": false,
      "inputs": [
        {
          "indexed": true,
          "internalType": "address",
          "name": "account",
          "type": "address"
        },
        {
          "indexed": false,
          "internalType": "string",
          "name": "name",
          "type": "string"
        },
        {
          "indexed": false,
          "internalType": "string",
          "name": "email",
          "type": "string"
        }
      ],
      "name": "UserAdded",
      "type": "event"
    },
    {
      "inputs": [
        {
          "internalType": "address",
          "name": "account",
          "type": "address"
        },
        {
          "internalType": "string",
          "name": "name",
          "type": "string"
        },
        {
          "internalType": "string",
          "name": "email",
          "type": "string"
        },
        {
          "internalType": "string",
          "name": "tokenURI",
          "type": "string"
        },
        {
          "internalType": "string",
          "name": "role",
          "type": "string"
        }
      ],
      "name": "addUser",
      "outputs": [],
      "stateMutability": "nonpayable",
      "type": "function"
    },
    {
      "inputs": [
        {
          "internalType": "address",
          "name": "to",
          "type": "address"
        },
        {
          "internalType": "uint256",
          "name": "tokenId",
          "type": "uint256"
        }
      ],
      "name": "approve",
      "outputs": [],
      "stateMutability": "nonpayable",
      "type": "function"
    },
    {
      "inputs": [
        {
          "internalType": "address",
          "name": "account",
          "type": "address"
        },
        {
          "internalType": "string",
          "name": "role",
          "type": "string"
        }
      ],
      "name": "assignRole",
      "outputs": [],
      "stateMutability": "nonpayable",
      "type": "function"
    },
    {
      "inputs": [
        {
          "internalType": "address",
          "name": "owner",
          "type": "address"
        }
      ],
      "name": "balanceOf",
      "outputs": [
        {
          "internalType": "uint256",
          "name": "",
          "type": "uint256"
        }
      ],
      "stateMutability": "view",
      "type": "function",
      "constant": true
    },
    {
      "inputs": [
        {
          "internalType": "uint256",
          "name": "tokenId",
          "type": "uint256"
        }
      ],
      "name": "getApproved",
      "outputs": [
        {
          "internalType": "address",
          "name": "",
          "type": "address"
        }
      ],
      "stateMutability": "view",
      "type": "function",
      "constant": true
    },
    {
      "inputs": [
        {
          "internalType": "address",
          "name": "account",
          "type": "address"
        }
      ],
      "name": "getUserInfo",
      "outputs": [
        {
          "internalType": "string",
          "name": "name",
          "type": "string"
        },
        {
          "internalType": "string",
          "name": "email",
          "type": "string"
        },
        {
          "internalType": "string",
          "name": "tokenURI",
          "type": "string"
        }
      ],
      "stateMutability": "view",
      "type": "function",
      "constant": true
    },
    {
      "inputs": [
        {
          "internalType": "address",
          "name": "account",
          "type": "address"
        }
      ],
      "name": "isAdmin",
      "outputs": [
        {
          "internalType": "bool",
          "name": "",
          "type": "bool"
        }
      ],
      "stateMutability": "view",
      "type": "function",
      "constant": true
    },
    {
      "inputs": [
        {
          "internalType": "address",
          "name": "owner",
          "type": "address"
        },
        {
          "internalType": "address",
          "name": "operator",
          "type": "address"
        }
      ],
      "name": "isApprovedForAll",
      "outputs": [
        {
          "internalType": "bool",
          "name": "",
          "type": "bool"
        }
      ],
      "stateMutability": "view",
      "type": "function",
      "constant": true
    },
    {
      "inputs": [
        {
          "internalType": "address",
          "name": "account",
          "type": "address"
        }
      ],
      "name": "isUser",
      "outputs": [
        {
          "internalType": "bool",
          "name": "",
          "type": "bool"
        }
      ],
      "stateMutability": "view",
      "type": "function",
      "constant": true
    },
    {
      "inputs": [
        {
          "internalType": "address",
          "name": "account",
          "type": "address"
        }
      ],
      "name": "isVerifier",
      "outputs": [
        {
          "internalType": "bool",
          "name": "",
          "type": "bool"
        }
      ],
      "stateMutability": "view",
      "type": "function",
      "constant": true
    },
    {
      "inputs": [],
      "name": "listingPrice",
      "outputs": [
        {
          "internalType": "uint256",
          "name": "",
          "type": "uint256"
        }
      ],
      "stateMutability": "view",
      "type": "function",
      "constant": true
    },
    {
      "inputs": [],
      "name": "name",
      "outputs": [
        {
          "internalType": "string",
          "name": "",
          "type": "string"
        }
      ],
      "stateMutability": "view",
      "type": "function",
      "constant": true
    },
    {
      "inputs": [],
      "name": "owner",
      "outputs": [
        {
          "internalType": "address",
          "name": "",
          "type": "address"
        }
      ],
      "stateMutability": "view",
      "type": "function",
      "constant": true
    },
    {
      "inputs": [
        {
          "internalType": "uint256",
          "name": "tokenId",
          "type": "uint256"
        }
      ],
      "name": "ownerOf",
      "outputs": [
        {
          "internalType": "address",
          "name": "",
          "type": "address"
        }
      ],
      "stateMutability": "view",
      "type": "function",
      "constant": true
    },
    {
      "inputs": [
        {
          "internalType": "address",
          "name": "account",
          "type": "address"
        },
        {
          "internalType": "string",
          "name": "role",
          "type": "string"
        }
      ],
      "name": "removeRole",
      "outputs": [],
      "stateMutability": "nonpayable",
      "type": "function"
    },
    {
      "inputs": [],
      "name": "renounceOwnership",
      "outputs": [],
      "stateMutability": "nonpayable",
      "type": "function"
    },
    {
      "inputs": [
        {
          "internalType": "address",
          "name": "from",
          "type": "address"
        },
        {
          "internalType": "address",
          "name": "to",
          "type": "address"
        },
        {
          "internalType": "uint256",
          "name": "tokenId",
          "type": "uint256"
        }
      ],
      "name": "safeTransferFrom",
      "outputs": [],
      "stateMutability": "nonpayable",
      "type": "function"
    },
    {
      "inputs": [
        {
          "internalType": "address",
          "name": "from",
          "type": "address"
        },
        {
          "internalType": "address",
          "name": "to",
          "type": "address"
        },
        {
          "internalType": "uint256",
          "name": "tokenId",
          "type": "uint256"
        },
        {
          "internalType": "bytes",
          "name": "data",
          "type": "bytes"
        }
      ],
      "name": "safeTransferFrom",
      "outputs": [],
      "stateMutability": "nonpayable",
      "type": "function"
    },
    {
      "inputs": [
        {
          "internalType": "address",
          "name": "operator",
          "type": "address"
        },
        {
          "internalType": "bool",
          "name": "approved",
          "type": "bool"
        }
      ],
      "name": "setApprovalForAll",
      "outputs": [],
      "stateMutability": "nonpayable",
      "type": "function"
    },
    {
      "inputs": [
        {
          "internalType": "bytes4",
          "name": "interfaceId",
          "type": "bytes4"
        }
      ],
      "name": "supportsInterface",
      "outputs": [
        {
          "internalType": "bool",
          "name": "",
          "type": "bool"
        }
      ],
      "stateMutability": "view",
      "type": "function",
      "constant": true
    },
    {
      "inputs": [],
      "name": "symbol",
      "outputs": [
        {
          "internalType": "string",
          "name": "",
          "type": "string"
        }
      ],
      "stateMutability": "view",
      "type": "function",
      "constant": true
    },
    {
      "inputs": [
        {
          "internalType": "uint256",
          "name": "tokenId",
          "type": "uint256"
        }
      ],
      "name": "tokenURI",
      "outputs": [
        {
          "internalType": "string",
          "name": "",
          "type": "string"
        }
      ],
      "stateMutability": "view",
      "type": "function",
      "constant": true
    },
    {
      "inputs": [
        {
          "internalType": "address",
          "name": "from",
          "type": "address"
        },
        {
          "internalType": "address",
          "name": "to",
          "type": "address"
        },
        {
          "internalType": "uint256",
          "name": "tokenId",
          "type": "uint256"
        }
      ],
      "name": "transferFrom",
      "outputs": [],
      "stateMutability": "nonpayable",
      "type": "function"
    },
    {
      "inputs": [
        {
          "internalType": "address",
          "name": "newOwner",
          "type": "address"
        }
      ],
      "name": "transferOwnership",
      "outputs": [],
      "stateMutability": "nonpayable",
      "type": "function"
    },
    {
      "inputs": [
        {
          "internalType": "uint256",
          "name": "tokenId",
          "type": "uint256"
        }
      ],
      "name": "getNftItem",
      "outputs": [
        {
          "components": [
            {
              "internalType": "uint256",
              "name": "tokenId",
              "type": "uint256"
            },
            {
              "internalType": "uint256",
              "name": "price",
              "type": "uint256"
            },
            {
              "internalType": "address",
              "name": "creator",
              "type": "address"
            },
            {
              "internalType": "bool",
              "name": "isListed",
              "type": "bool"
            },
            {
              "internalType": "uint256",
              "name": "status",
              "type": "uint256"
            }
          ],
          "internalType": "struct NftMarket.NftItem",
          "name": "",
          "type": "tuple"
        }
      ],
      "stateMutability": "view",
      "type": "function",
      "constant": true
    },
    {
      "inputs": [],
      "name": "listedItemsCount",
      "outputs": [
        {
          "internalType": "uint256",
          "name": "",
          "type": "uint256"
        }
      ],
      "stateMutability": "view",
      "type": "function",
      "constant": true
    },
    {
      "inputs": [
        {
          "internalType": "uint256",
          "name": "newPrice",
          "type": "uint256"
        }
      ],
      "name": "setListingPrice",
      "outputs": [],
      "stateMutability": "nonpayable",
      "type": "function"
    },
    {
      "inputs": [
        {
          "internalType": "string",
          "name": "tokenURI",
          "type": "string"
        }
      ],
      "name": "tokenURIExists",
      "outputs": [
        {
          "internalType": "bool",
          "name": "",
          "type": "bool"
        }
      ],
      "stateMutability": "view",
      "type": "function",
      "constant": true
    },
    {
      "inputs": [],
      "name": "totalSupply",
      "outputs": [
        {
          "internalType": "uint256",
          "name": "",
          "type": "uint256"
        }
      ],
      "stateMutability": "view",
      "type": "function",
      "constant": true
    },
    {
      "inputs": [
        {
          "internalType": "uint256",
          "name": "index",
          "type": "uint256"
        }
      ],
      "name": "tokenByIndex",
      "outputs": [
        {
          "internalType": "uint256",
          "name": "",
          "type": "uint256"
        }
      ],
      "stateMutability": "view",
      "type": "function",
      "constant": true
    },
    {
      "inputs": [
        {
          "internalType": "string",
          "name": "tokenURI",
          "type": "string"
        },
        {
          "internalType": "uint256",
          "name": "price",
          "type": "uint256"
        }
      ],
      "name": "mintToken",
      "outputs": [
        {
          "internalType": "uint256",
          "name": "",
          "type": "uint256"
        }
      ],
      "stateMutability": "payable",
      "type": "function",
      "payable": true
    },
    {
      "inputs": [
        {
          "internalType": "uint256",
          "name": "tokenId",
          "type": "uint256"
        },
        {
          "internalType": "string",
          "name": "uri",
          "type": "string"
        }
      ],
      "name": "updateUri",
      "outputs": [],
      "stateMutability": "nonpayable",
      "type": "function"
    },
    {
      "inputs": [],
      "name": "getAllNftsOnSale",
      "outputs": [
        {
          "components": [
            {
              "internalType": "uint256",
              "name": "tokenId",
              "type": "uint256"
            },
            {
              "internalType": "uint256",
              "name": "price",
              "type": "uint256"
            },
            {
              "internalType": "address",
              "name": "creator",
              "type": "address"
            },
            {
              "internalType": "bool",
              "name": "isListed",
              "type": "bool"
            },
            {
              "internalType": "uint256",
              "name": "status",
              "type": "uint256"
            }
          ],
          "internalType": "struct NftMarket.NftItem[]",
          "name": "",
          "type": "tuple[]"
        }
      ],
      "stateMutability": "view",
      "type": "function",
      "constant": true
    },
    {
      "inputs": [],
      "name": "getOwnedNfts",
      "outputs": [
        {
          "components": [
            {
              "internalType": "uint256",
              "name": "tokenId",
              "type": "uint256"
            },
            {
              "internalType": "uint256",
              "name": "price",
              "type": "uint256"
            },
            {
              "internalType": "address",
              "name": "creator",
              "type": "address"
            },
            {
              "internalType": "bool",
              "name": "isListed",
              "type": "bool"
            },
            {
              "internalType": "uint256",
              "name": "status",
              "type": "uint256"
            }
          ],
          "internalType": "struct NftMarket.NftItem[]",
          "name": "",
          "type": "tuple[]"
        }
      ],
      "stateMutability": "view",
      "type": "function",
      "constant": true
    },
    {
      "inputs": [
        {
          "internalType": "uint256",
          "name": "tokenId",
          "type": "uint256"
        },
        {
          "internalType": "address",
          "name": "user",
          "type": "address"
        }
      ],
      "name": "transferTo",
      "outputs": [],
      "stateMutability": "nonpayable",
      "type": "function"
    },
    {
      "inputs": [
        {
          "internalType": "uint256",
          "name": "tokenId",
          "type": "uint256"
        }
      ],
      "name": "buyNft",
      "outputs": [],
      "stateMutability": "payable",
      "type": "function",
      "payable": true
    },
    {
      "inputs": [
        {
          "internalType": "address",
          "name": "owner",
          "type": "address"
        },
        {
          "internalType": "uint256",
          "name": "index",
          "type": "uint256"
        }
      ],
      "name": "tokenOfOwnerByIndex",
      "outputs": [
        {
          "internalType": "uint256",
          "name": "",
          "type": "uint256"
        }
      ],
      "stateMutability": "view",
      "type": "function",
      "constant": true
    },
    {
      "inputs": [
        {
          "internalType": "uint256",
          "name": "tokenId",
          "type": "uint256"
        },
        {
          "internalType": "uint256",
          "name": "newPrice",
          "type": "uint256"
        }
      ],
      "name": "placeNftOnSale",
      "outputs": [],
      "stateMutability": "payable",
      "type": "function",
      "payable": true
    },
    {
      "inputs": [
        {
          "internalType": "uint256",
          "name": "tokenId",
          "type": "uint256"
        },
        {
          "internalType": "uint256",
          "name": "newStatus",
          "type": "uint256"
        }
      ],
      "name": "updateStatus",
      "outputs": [],
      "stateMutability": "nonpayable",
      "type": "function"
    },
    {
      "inputs": [
        {
          "internalType": "string",
          "name": "tokenURI",
          "type": "string"
        }
      ],
      "name": "getTokenIdByURI",
      "outputs": [
        {
          "internalType": "uint256",
          "name": "",
          "type": "uint256"
        }
      ],
      "stateMutability": "view",
      "type": "function",
      "constant": true
    }
  ],
  "bytecode": "0x60806040526658d15e176280006015553480156200001c57600080fd5b506040518060400160405280600c81526020017f4372656174757265734e465400000000000000000000000000000000000000008152506040518060400160405280600481526020017f434e4654000000000000000000000000000000000000000000000000000000008152508160009080519060200190620000a192919062000349565b508060019080519060200190620000ba92919062000349565b505050620000dd620000d1620000fe60201b60201c565b6200010660201b60201c565b620000f833600a620001cc60201b620026d11790919060201c565b62000578565b600033905090565b6000600760009054906101000a900473ffffffffffffffffffffffffffffffffffffffff16905081600760006101000a81548173ffffffffffffffffffffffffffffffffffffffff021916908373ffffffffffffffffffffffffffffffffffffffff1602179055508173ffffffffffffffffffffffffffffffffffffffff168173ffffffffffffffffffffffffffffffffffffffff167f8be0079c531659141344cd1fd0a4f28419497f9722a3daafe3b4186f6b6457e060405160405180910390a35050565b620001de82826200027f60201b60201c565b1562000221576040517f08c379a000000000000000000000000000000000000000000000000000000000815260040162000218906200045a565b60405180910390fd5b60018260000160008373ffffffffffffffffffffffffffffffffffffffff1673ffffffffffffffffffffffffffffffffffffffff16815260200190815260200160002060006101000a81548160ff0219169083151502179055505050565b60008073ffffffffffffffffffffffffffffffffffffffff168273ffffffffffffffffffffffffffffffffffffffff1603620002f2576040517f08c379a0000000000000000000000000000000000000000000000000000000008152600401620002e990620004f2565b60405180910390fd5b8260000160008373ffffffffffffffffffffffffffffffffffffffff1673ffffffffffffffffffffffffffffffffffffffff16815260200190815260200160002060009054906101000a900460ff16905092915050565b828054620003579062000543565b90600052602060002090601f0160209004810192826200037b5760008555620003c7565b82601f106200039657805160ff1916838001178555620003c7565b82800160010185558215620003c7579182015b82811115620003c6578251825591602001919060010190620003a9565b5b509050620003d69190620003da565b5090565b5b80821115620003f5576000816000905550600101620003db565b5090565b600082825260208201905092915050565b7f526f6c65733a206163636f756e7420616c72656164792068617320726f6c6500600082015250565b600062000442601f83620003f9565b91506200044f826200040a565b602082019050919050565b60006020820190508181036000830152620004758162000433565b9050919050565b7f526f6c65733a206163636f756e7420697320746865207a65726f20616464726560008201527f7373000000000000000000000000000000000000000000000000000000000000602082015250565b6000620004da602283620003f9565b9150620004e7826200047c565b604082019050919050565b600060208201905081810360008301526200050d81620004cb565b9050919050565b7f4e487b7100000000000000000000000000000000000000000000000000000000600052602260045260246000fd5b600060028204905060018216806200055c57607f821691505b60208210810362000572576200057162000514565b5b50919050565b615be080620005886000396000f3fe60806040526004361061023b5760003560e01c80636386c1c71161012e578063b88d4fde116100ab578063cd274a401161006f578063cd274a40146108e0578063d4822fbf14610909578063e2f3182914610932578063e985e9c51461095b578063f2fde38b146109985761023b565b8063b88d4fde146107f4578063c046372c1461081d578063c78f19f91461084d578063c87b56dd14610878578063ccb4918d146108b55761023b565b80637c726b69116100f25780637c726b69146107235780638da5cb5b1461074c57806395d89b4114610777578063a22cb465146107a2578063b7dfcbee146107cb5761023b565b80636386c1c7146106285780636f1a0af51461066757806370a08231146106a457806370cbcb43146106e1578063715018a61461070c5761023b565b8063243adbdd116101bc5780634209fff1116101805780634209fff11461050b57806342842e0e1461054857806343d32ae7146105715780634f6ccce7146105ae5780636352211e146105eb5761023b565b8063243adbdd1461040d57806324d7806c146104295780632f745c591461046657806333105218146104a357806336b536be146104e05761023b565b8063118f970811610203578063118f97081461033757806318160ddd146103745780631bfe03081461039f57806321f422e5146103c857806323b872dd146103e45761023b565b806301ffc9a714610240578063057512041461027d57806306fdde03146102a6578063081812fc146102d1578063095ea7b31461030e575b600080fd5b34801561024c57600080fd5b5061026760048036038101906102629190613d27565b6109c1565b6040516102749190613d6f565b60405180910390f35b34801561028957600080fd5b506102a4600480360381019061029f9190613f06565b610a22565b005b3480156102b257600080fd5b506102bb610a30565b6040516102c89190613fea565b60405180910390f35b3480156102dd57600080fd5b506102f860048036038101906102f3919061400c565b610ac2565b604051610305919061407a565b60405180910390f35b34801561031a57600080fd5b50610335600480360381019061033091906140c1565b610b08565b005b34801561034357600080fd5b5061035e60048036038101906103599190614101565b610c1f565b60405161036b9190614159565b60405180910390f35b34801561038057600080fd5b50610389610ca7565b6040516103969190614159565b60405180910390f35b3480156103ab57600080fd5b506103c660048036038101906103c19190614174565b610cb4565b005b6103e260048036038101906103dd91906141d0565b610ed0565b005b3480156103f057600080fd5b5061040b60048036038101906104069190614210565b61104c565b005b6104276004803603810190610422919061400c565b6110ac565b005b34801561043557600080fd5b50610450600480360381019061044b9190614263565b611214565b60405161045d9190613d6f565b60405180910390f35b34801561047257600080fd5b5061048d600480360381019061048891906140c1565b611231565b60405161049a9190614159565b60405180910390f35b3480156104af57600080fd5b506104ca60048036038101906104c59190614263565b6112d6565b6040516104d79190613d6f565b60405180910390f35b3480156104ec57600080fd5b506104f56112f3565b60405161050291906143d4565b60405180910390f35b34801561051757600080fd5b50610532600480360381019061052d9190614263565b611497565b60405161053f9190613d6f565b60405180910390f35b34801561055457600080fd5b5061056f600480360381019061056a9190614210565b6114b4565b005b34801561057d57600080fd5b5061059860048036038101906105939190614101565b6114d4565b6040516105a59190613d6f565b60405180910390f35b3480156105ba57600080fd5b506105d560048036038101906105d0919061400c565b611510565b6040516105e29190614159565b60405180910390f35b3480156105f757600080fd5b50610612600480360381019061060d919061400c565b611581565b60405161061f919061407a565b60405180910390f35b34801561063457600080fd5b5061064f600480360381019061064a9190614263565b611607565b60405161065e939291906143f6565b60405180910390f35b34801561067357600080fd5b5061068e6004803603810190610689919061400c565b611880565b60405161069b91906144aa565b60405180910390f35b3480156106b057600080fd5b506106cb60048036038101906106c69190614263565b61193c565b6040516106d89190614159565b60405180910390f35b3480156106ed57600080fd5b506106f66119f3565b60405161070391906143d4565b60405180910390f35b34801561071857600080fd5b50610721611b61565b005b34801561072f57600080fd5b5061074a6004803603810190610745919061400c565b611b75565b005b34801561075857600080fd5b50610761611bca565b60405161076e919061407a565b60405180910390f35b34801561078357600080fd5b5061078c611bf4565b6040516107999190613fea565b60405180910390f35b3480156107ae57600080fd5b506107c960048036038101906107c491906144f1565b611c86565b005b3480156107d757600080fd5b506107f260048036038101906107ed9190614174565b611c9c565b005b34801561080057600080fd5b5061081b600480360381019061081691906145d2565b611ecc565b005b61083760048036038101906108329190614655565b611f2e565b6040516108449190614159565b60405180910390f35b34801561085957600080fd5b5061086261201d565b60405161086f9190614159565b60405180910390f35b34801561088457600080fd5b5061089f600480360381019061089a919061400c565b612023565b6040516108ac9190613fea565b60405180910390f35b3480156108c157600080fd5b506108ca612135565b6040516108d79190614159565b60405180910390f35b3480156108ec57600080fd5b50610907600480360381019061090291906146b1565b612146565b005b34801561091557600080fd5b50610930600480360381019061092b919061479c565b612483565b005b34801561093e57600080fd5b50610959600480360381019061095491906141d0565b6124a0565b005b34801561096757600080fd5b50610982600480360381019061097d91906147dc565b6125ba565b60405161098f9190613d6f565b60405180910390f35b3480156109a457600080fd5b506109bf60048036038101906109ba9190614263565b61264e565b005b6000634906490660e01b7bffffffffffffffffffffffffffffffffffffffffffffffffffffffff1916827bffffffffffffffffffffffffffffffffffffffffffffffffffffffff19161480610a1b5750610a1a82612779565b5b9050919050565b610a2c828261285b565b5050565b606060008054610a3f9061484b565b80601f0160208091040260200160405190810160405280929190818152602001828054610a6b9061484b565b8015610ab85780601f10610a8d57610100808354040283529160200191610ab8565b820191906000526020600020905b815481529060010190602001808311610a9b57829003601f168201915b5050505050905090565b6000610acd82612906565b6004600083815260200190815260200160002060009054906101000a900473ffffffffffffffffffffffffffffffffffffffff169050919050565b6000610b1382611581565b90508073ffffffffffffffffffffffffffffffffffffffff168373ffffffffffffffffffffffffffffffffffffffff1603610b83576040517f08c379a0000000000000000000000000000000000000000000000000000000008152600401610b7a906148ee565b60405180910390fd5b8073ffffffffffffffffffffffffffffffffffffffff16610ba2612951565b73ffffffffffffffffffffffffffffffffffffffff161480610bd15750610bd081610bcb612951565b6125ba565b5b610c10576040517f08c379a0000000000000000000000000000000000000000000000000000000008152600401610c0790614980565b60405180910390fd5b610c1a8383612959565b505050565b600080601483604051610c3291906149dc565b90815260200160405180910390205403610c81576040517f08c379a0000000000000000000000000000000000000000000000000000000008152600401610c7890614a3f565b60405180910390fd5b601482604051610c9191906149dc565b9081526020016040518091039020549050919050565b6000600e80549050905090565b610cc833600a612a1290919063ffffffff16565b610d07576040517f08c379a0000000000000000000000000000000000000000000000000000000008152600401610cfe90614ad1565b60405180910390fd5b600073ffffffffffffffffffffffffffffffffffffffff168273ffffffffffffffffffffffffffffffffffffffff1603610d76576040517f08c379a0000000000000000000000000000000000000000000000000000000008152600401610d6d90614b3d565b60405180910390fd5b7f121833d5ee4fda5e1a4034c2b7be8155c158142541dea26f39122c796649233f81604051602001610da891906149dc565b6040516020818303038152906040528051906020012003610ddc57610dd7826009612ad990919063ffffffff16565b610e7e565b7fa729ef4e25027bc652fc8b5c4d1d902947361fa7c8e7b4905e877823f27331b381604051602001610e0e91906149dc565b6040516020818303038152906040528051906020012003610e4257610e3d82600a612ad990919063ffffffff16565b610e7d565b6040517f08c379a0000000000000000000000000000000000000000000000000000000008152600401610e7490614ba9565b60405180910390fd5b5b8173ffffffffffffffffffffffffffffffffffffffff167fd211483f91fc6eff862467f8de606587a30c8fc9981056f051b897a418df803a82604051610ec49190613fea565b60405180910390a25050565b3373ffffffffffffffffffffffffffffffffffffffff16610ef083611581565b73ffffffffffffffffffffffffffffffffffffffff1614610f46576040517f08c379a0000000000000000000000000000000000000000000000000000000008152600401610f3d90614c15565b60405180910390fd5b600015156010600084815260200190815260200160002060020160149054906101000a900460ff16151514610fb0576040517f08c379a0000000000000000000000000000000000000000000000000000000008152600401610fa790614c81565b60405180910390fd5b6015543414610ff4576040517f08c379a0000000000000000000000000000000000000000000000000000000008152600401610feb90614d13565b60405180910390fd5b60016010600084815260200190815260200160002060020160146101000a81548160ff021916908315150217905550806010600084815260200190815260200160002060010181905550611048600c612b80565b5050565b61105d611057612951565b82612b96565b61109c576040517f08c379a000000000000000000000000000000000000000000000000000000000815260040161109390614da5565b60405180910390fd5b6110a7838383612c2b565b505050565b60006010600083815260200190815260200160002060010154905060006110d283611581565b90508073ffffffffffffffffffffffffffffffffffffffff163373ffffffffffffffffffffffffffffffffffffffff1603611142576040517f08c379a000000000000000000000000000000000000000000000000000000000815260040161113990614e11565b60405180910390fd5b813414611184576040517f08c379a000000000000000000000000000000000000000000000000000000000815260040161117b90614e7d565b60405180910390fd5b60006010600085815260200190815260200160002060020160146101000a81548160ff0219169083151502179055506111bd600c612f24565b6111c8813385612c2b565b8073ffffffffffffffffffffffffffffffffffffffff166108fc349081150290604051600060405180830381858888f1935050505015801561120e573d6000803e3d6000fd5b50505050565b600061122a82600a612a1290919063ffffffff16565b9050919050565b600061123c8361193c565b821061127d576040517f08c379a000000000000000000000000000000000000000000000000000000000815260040161127490614ee9565b60405180910390fd5b601260008473ffffffffffffffffffffffffffffffffffffffff1673ffffffffffffffffffffffffffffffffffffffff168152602001908152602001600020600083815260200190815260200160002054905092915050565b60006112ec826009612a1290919063ffffffff16565b9050919050565b606060006112ff610ca7565b905060008061130e600c612f80565b67ffffffffffffffff81111561132757611326613ddb565b5b60405190808252806020026020018201604052801561136057816020015b61134d613bd1565b8152602001906001900390816113455790505b50905060005b8381101561148d57600061137982611510565b90506000601060008381526020019081526020016000209050600115158160020160149054906101000a900460ff1615150361147857806040518060a001604052908160008201548152602001600182015481526020016002820160009054906101000a900473ffffffffffffffffffffffffffffffffffffffff1673ffffffffffffffffffffffffffffffffffffffff1673ffffffffffffffffffffffffffffffffffffffff1681526020016002820160149054906101000a900460ff1615151515815260200160038201548152505084868151811061145d5761145c614f09565b5b60200260200101819052506001856114759190614f67565b94505b5050808061148590614fbd565b915050611366565b5080935050505090565b60006114ad826008612a1290919063ffffffff16565b9050919050565b6114cf83838360405180602001604052806000815250611ecc565b505050565b600060011515600f836040516114ea91906149dc565b908152602001604051809103902060009054906101000a900460ff161515149050919050565b600061151a610ca7565b821061155b576040517f08c379a000000000000000000000000000000000000000000000000000000000815260040161155290614ee9565b60405180910390fd5b600e828154811061156f5761156e614f09565b5b90600052602060002001549050919050565b60008061158d83612f8e565b9050600073ffffffffffffffffffffffffffffffffffffffff168173ffffffffffffffffffffffffffffffffffffffff16036115fe576040517f08c379a00000000000000000000000000000000000000000000000000000000081526004016115f590615051565b60405180910390fd5b80915050919050565b6060806060611620846008612a1290919063ffffffff16565b61165f576040517f08c379a0000000000000000000000000000000000000000000000000000000008152600401611656906150bd565b60405180910390fd5b6000600b60008673ffffffffffffffffffffffffffffffffffffffff1673ffffffffffffffffffffffffffffffffffffffff1681526020019081526020016000206040518060600160405290816000820180546116bb9061484b565b80601f01602080910402602001604051908101604052809291908181526020018280546116e79061484b565b80156117345780601f1061170957610100808354040283529160200191611734565b820191906000526020600020905b81548152906001019060200180831161171757829003601f168201915b5050505050815260200160018201805461174d9061484b565b80601f01602080910402602001604051908101604052809291908181526020018280546117799061484b565b80156117c65780601f1061179b576101008083540402835291602001916117c6565b820191906000526020600020905b8154815290600101906020018083116117a957829003601f168201915b505050505081526020016002820180546117df9061484b565b80601f016020809104026020016040519081016040528092919081815260200182805461180b9061484b565b80156118585780601f1061182d57610100808354040283529160200191611858565b820191906000526020600020905b81548152906001019060200180831161183b57829003601f168201915b5050505050815250509050806000015181602001518260400151935093509350509193909250565b611888613bd1565b601060008381526020019081526020016000206040518060a001604052908160008201548152602001600182015481526020016002820160009054906101000a900473ffffffffffffffffffffffffffffffffffffffff1673ffffffffffffffffffffffffffffffffffffffff1673ffffffffffffffffffffffffffffffffffffffff1681526020016002820160149054906101000a900460ff161515151581526020016003820154815250509050919050565b60008073ffffffffffffffffffffffffffffffffffffffff168273ffffffffffffffffffffffffffffffffffffffff16036119ac576040517f08c379a00000000000000000000000000000000000000000000000000000000081526004016119a39061514f565b60405180910390fd5b600360008373ffffffffffffffffffffffffffffffffffffffff1673ffffffffffffffffffffffffffffffffffffffff168152602001908152602001600020549050919050565b60606000611a003361193c565b905060008167ffffffffffffffff811115611a1e57611a1d613ddb565b5b604051908082528060200260200182016040528015611a5757816020015b611a44613bd1565b815260200190600190039081611a3c5790505b50905060005b82811015611b58576000611a713383611231565b90506000601060008381526020019081526020016000209050806040518060a001604052908160008201548152602001600182015481526020016002820160009054906101000a900473ffffffffffffffffffffffffffffffffffffffff1673ffffffffffffffffffffffffffffffffffffffff1673ffffffffffffffffffffffffffffffffffffffff1681526020016002820160149054906101000a900460ff16151515158152602001600382015481525050848481518110611b3857611b37614f09565b5b602002602001018190525050508080611b5090614fbd565b915050611a5d565b50809250505090565b611b69612fcb565b611b736000613049565b565b611b7d612fcb565b60008111611bc0576040517f08c379a0000000000000000000000000000000000000000000000000000000008152600401611bb7906151bb565b60405180910390fd5b8060158190555050565b6000600760009054906101000a900473ffffffffffffffffffffffffffffffffffffffff16905090565b606060018054611c039061484b565b80601f0160208091040260200160405190810160405280929190818152602001828054611c2f9061484b565b8015611c7c5780601f10611c5157610100808354040283529160200191611c7c565b820191906000526020600020905b815481529060010190602001808311611c5f57829003601f168201915b5050505050905090565b611c98611c91612951565b838361310f565b5050565b600073ffffffffffffffffffffffffffffffffffffffff168273ffffffffffffffffffffffffffffffffffffffff1603611d0b576040517f08c379a0000000000000000000000000000000000000000000000000000000008152600401611d0290614b3d565b60405180910390fd5b7fa48c898f5241be426b79d4b5a3c206f9c9a06576e1b72c338c3ec849771d568681604051602001611d3d91906149dc565b6040516020818303038152906040528051906020012003611d7157611d6c8260096126d190919063ffffffff16565b611e7a565b7fdf8b4c520ffe197c5343c6f5aec59570151ef9a492f2c624fd45ddde6135ec4281604051602001611da391906149dc565b6040516020818303038152906040528051906020012003611dd757611dd282600a6126d190919063ffffffff16565b611e79565b7f2db9fd3d099848027c2383d0a083396f6c41510d7acfd92adc99b6cffcf31e9681604051602001611e0991906149dc565b6040516020818303038152906040528051906020012003611e3d57611e388260086126d190919063ffffffff16565b611e78565b6040517f08c379a0000000000000000000000000000000000000000000000000000000008152600401611e6f90614ba9565b60405180910390fd5b5b5b8173ffffffffffffffffffffffffffffffffffffffff167f3565795c2fb8842c21347d277937778bbcfe788b5b4f790fc5e408786cbe9c9082604051611ec09190613fea565b60405180910390a25050565b611edd611ed7612951565b83612b96565b611f1c576040517f08c379a0000000000000000000000000000000000000000000000000000000008152600401611f1390614da5565b60405180910390fd5b611f288484848461327b565b50505050565b6000611f39836114d4565b15611f79576040517f08c379a0000000000000000000000000000000000000000000000000000000008152600401611f7090615227565b60405180910390fd5b611f83600d612b80565b611f8d600c612b80565b6000611f99600d612f80565b9050611fa533826132d7565b611faf818561285b565b611fb981846132f5565b6001600f85604051611fcb91906149dc565b908152602001604051809103902060006101000a81548160ff0219169083151502179055508060148560405161200191906149dc565b9081526020016040518091039020819055508091505092915050565b60155481565b606061202e82612906565b600060066000848152602001908152602001600020805461204e9061484b565b80601f016020809104026020016040519081016040528092919081815260200182805461207a9061484b565b80156120c75780601f1061209c576101008083540402835291602001916120c7565b820191906000526020600020905b8154815290600101906020018083116120aa57829003601f168201915b5050505050905060006120d8613458565b905060008151036120ed578192505050612130565b60008251111561212257808260405160200161210a929190615247565b60405160208183030381529060405292505050612130565b61212b8461346f565b925050505b919050565b6000612141600c612f80565b905090565b600073ffffffffffffffffffffffffffffffffffffffff168573ffffffffffffffffffffffffffffffffffffffff16036121b5576040517f08c379a00000000000000000000000000000000000000000000000000000000081526004016121ac90614b3d565b60405180910390fd5b6121c9856008612a1290919063ffffffff16565b15612209576040517f08c379a0000000000000000000000000000000000000000000000000000000008152600401612200906152b7565b60405180910390fd5b604051806060016040528085815260200184815260200183815250600b60008773ffffffffffffffffffffffffffffffffffffffff1673ffffffffffffffffffffffffffffffffffffffff168152602001908152602001600020600082015181600001908051906020019061227f929190613c18565b50602082015181600101908051906020019061229c929190613c18565b5060408201518160020190805190602001906122b9929190613c18565b509050507fa48c898f5241be426b79d4b5a3c206f9c9a06576e1b72c338c3ec849771d5686816040516020016122ef91906149dc565b60405160208183030381529060405280519060200120036123235761231e8560096126d190919063ffffffff16565b61242c565b7fdf8b4c520ffe197c5343c6f5aec59570151ef9a492f2c624fd45ddde6135ec428160405160200161235591906149dc565b60405160208183030381529060405280519060200120036123895761238485600a6126d190919063ffffffff16565b61242b565b7f2db9fd3d099848027c2383d0a083396f6c41510d7acfd92adc99b6cffcf31e96816040516020016123bb91906149dc565b60405160208183030381529060405280519060200120036123ef576123ea8560086126d190919063ffffffff16565b61242a565b6040517f08c379a000000000000000000000000000000000000000000000000000000000815260040161242190614ba9565b60405180910390fd5b5b5b8473ffffffffffffffffffffffffffffffffffffffff167f8eab1db142a914aff8b515eedb9177bd7effaef6d714c41e30bdf1520677860785856040516124749291906152d7565b60405180910390a25050505050565b600061248e83611581565b905061249b818385612c2b565b505050565b6124a9826134d7565b6124e8576040517f08c379a00000000000000000000000000000000000000000000000000000000081526004016124df90614a3f565b60405180910390fd5b3373ffffffffffffffffffffffffffffffffffffffff1661250883611581565b73ffffffffffffffffffffffffffffffffffffffff16148061255c575061252d611bca565b73ffffffffffffffffffffffffffffffffffffffff163373ffffffffffffffffffffffffffffffffffffffff16145b61259b576040517f08c379a00000000000000000000000000000000000000000000000000000000081526004016125929061535a565b60405180910390fd5b8060106000848152602001908152602001600020600301819055505050565b6000600560008473ffffffffffffffffffffffffffffffffffffffff1673ffffffffffffffffffffffffffffffffffffffff16815260200190815260200160002060008373ffffffffffffffffffffffffffffffffffffffff1673ffffffffffffffffffffffffffffffffffffffff16815260200190815260200160002060009054906101000a900460ff16905092915050565b612656612fcb565b600073ffffffffffffffffffffffffffffffffffffffff168173ffffffffffffffffffffffffffffffffffffffff16036126c5576040517f08c379a00000000000000000000000000000000000000000000000000000000081526004016126bc906153ec565b60405180910390fd5b6126ce81613049565b50565b6126db8282612a12565b1561271b576040517f08c379a000000000000000000000000000000000000000000000000000000000815260040161271290615458565b60405180910390fd5b60018260000160008373ffffffffffffffffffffffffffffffffffffffff1673ffffffffffffffffffffffffffffffffffffffff16815260200190815260200160002060006101000a81548160ff0219169083151502179055505050565b60007f80ac58cd000000000000000000000000000000000000000000000000000000007bffffffffffffffffffffffffffffffffffffffffffffffffffffffff1916827bffffffffffffffffffffffffffffffffffffffffffffffffffffffff1916148061284457507f5b5e139f000000000000000000000000000000000000000000000000000000007bffffffffffffffffffffffffffffffffffffffffffffffffffffffff1916827bffffffffffffffffffffffffffffffffffffffffffffffffffffffff1916145b80612854575061285382613518565b5b9050919050565b612864826134d7565b6128a3576040517f08c379a000000000000000000000000000000000000000000000000000000000815260040161289a906154ea565b60405180910390fd5b806006600084815260200190815260200160002090805190602001906128ca929190613c18565b507ff8e1a15aba9398e019f0b49df1a4fde98ee17ae345cb5f6b5e2c27f5033e8ce7826040516128fa9190614159565b60405180910390a15050565b61290f816134d7565b61294e576040517f08c379a000000000000000000000000000000000000000000000000000000000815260040161294590615051565b60405180910390fd5b50565b600033905090565b816004600083815260200190815260200160002060006101000a81548173ffffffffffffffffffffffffffffffffffffffff021916908373ffffffffffffffffffffffffffffffffffffffff160217905550808273ffffffffffffffffffffffffffffffffffffffff166129cc83611581565b73ffffffffffffffffffffffffffffffffffffffff167f8c5be1e5ebec7d5bd14f71427d1e84f3dd0314c0f7b2291e5b200ac8c7c3b92560405160405180910390a45050565b60008073ffffffffffffffffffffffffffffffffffffffff168273ffffffffffffffffffffffffffffffffffffffff1603612a82576040517f08c379a0000000000000000000000000000000000000000000000000000000008152600401612a799061557c565b60405180910390fd5b8260000160008373ffffffffffffffffffffffffffffffffffffffff1673ffffffffffffffffffffffffffffffffffffffff16815260200190815260200160002060009054906101000a900460ff16905092915050565b612ae38282612a12565b612b22576040517f08c379a0000000000000000000000000000000000000000000000000000000008152600401612b199061560e565b60405180910390fd5b60008260000160008373ffffffffffffffffffffffffffffffffffffffff1673ffffffffffffffffffffffffffffffffffffffff16815260200190815260200160002060006101000a81548160ff0219169083151502179055505050565b6001816000016000828254019250508190555050565b600080612ba283611581565b90508073ffffffffffffffffffffffffffffffffffffffff168473ffffffffffffffffffffffffffffffffffffffff161480612be45750612be381856125ba565b5b80612c2257508373ffffffffffffffffffffffffffffffffffffffff16612c0a84610ac2565b73ffffffffffffffffffffffffffffffffffffffff16145b91505092915050565b8273ffffffffffffffffffffffffffffffffffffffff16612c4b82611581565b73ffffffffffffffffffffffffffffffffffffffff1614612ca1576040517f08c379a0000000000000000000000000000000000000000000000000000000008152600401612c98906156a0565b60405180910390fd5b600073ffffffffffffffffffffffffffffffffffffffff168273ffffffffffffffffffffffffffffffffffffffff1603612d10576040517f08c379a0000000000000000000000000000000000000000000000000000000008152600401612d0790615732565b60405180910390fd5b612d1d8383836001613582565b8273ffffffffffffffffffffffffffffffffffffffff16612d3d82611581565b73ffffffffffffffffffffffffffffffffffffffff1614612d93576040517f08c379a0000000000000000000000000000000000000000000000000000000008152600401612d8a906156a0565b60405180910390fd5b6004600082815260200190815260200160002060006101000a81549073ffffffffffffffffffffffffffffffffffffffff02191690556001600360008573ffffffffffffffffffffffffffffffffffffffff1673ffffffffffffffffffffffffffffffffffffffff168152602001908152602001600020600082825403925050819055506001600360008473ffffffffffffffffffffffffffffffffffffffff1673ffffffffffffffffffffffffffffffffffffffff16815260200190815260200160002060008282540192505081905550816002600083815260200190815260200160002060006101000a81548173ffffffffffffffffffffffffffffffffffffffff021916908373ffffffffffffffffffffffffffffffffffffffff160217905550808273ffffffffffffffffffffffffffffffffffffffff168473ffffffffffffffffffffffffffffffffffffffff167fddf252ad1be2c89b69c2b068fc378daa952ba7f163c4a11628f55a4df523b3ef60405160405180910390a4612f1f8383836001613588565b505050565b60008160000154905060008111612f70576040517f08c379a0000000000000000000000000000000000000000000000000000000008152600401612f679061579e565b60405180910390fd5b6001810382600001819055505050565b600081600001549050919050565b60006002600083815260200190815260200160002060009054906101000a900473ffffffffffffffffffffffffffffffffffffffff169050919050565b612fd3612951565b73ffffffffffffffffffffffffffffffffffffffff16612ff1611bca565b73ffffffffffffffffffffffffffffffffffffffff1614613047576040517f08c379a000000000000000000000000000000000000000000000000000000000815260040161303e9061580a565b60405180910390fd5b565b6000600760009054906101000a900473ffffffffffffffffffffffffffffffffffffffff16905081600760006101000a81548173ffffffffffffffffffffffffffffffffffffffff021916908373ffffffffffffffffffffffffffffffffffffffff1602179055508173ffffffffffffffffffffffffffffffffffffffff168173ffffffffffffffffffffffffffffffffffffffff167f8be0079c531659141344cd1fd0a4f28419497f9722a3daafe3b4186f6b6457e060405160405180910390a35050565b8173ffffffffffffffffffffffffffffffffffffffff168373ffffffffffffffffffffffffffffffffffffffff160361317d576040517f08c379a000000000000000000000000000000000000000000000000000000000815260040161317490615876565b60405180910390fd5b80600560008573ffffffffffffffffffffffffffffffffffffffff1673ffffffffffffffffffffffffffffffffffffffff16815260200190815260200160002060008473ffffffffffffffffffffffffffffffffffffffff1673ffffffffffffffffffffffffffffffffffffffff16815260200190815260200160002060006101000a81548160ff0219169083151502179055508173ffffffffffffffffffffffffffffffffffffffff168373ffffffffffffffffffffffffffffffffffffffff167f17307eab39ab6107e8899845ad3d59bd9653f200f220920489ca2b5937696c318360405161326e9190613d6f565b60405180910390a3505050565b613286848484612c2b565b6132928484848461358e565b6132d1576040517f08c379a00000000000000000000000000000000000000000000000000000000081526004016132c890615908565b60405180910390fd5b50505050565b6132f1828260405180602001604052806000815250613715565b5050565b60008111613338576040517f08c379a000000000000000000000000000000000000000000000000000000000815260040161332f906151bb565b60405180910390fd5b6040518060a001604052808381526020018281526020013373ffffffffffffffffffffffffffffffffffffffff168152602001600115158152602001600181525060106000848152602001908152602001600020600082015181600001556020820151816001015560408201518160020160006101000a81548173ffffffffffffffffffffffffffffffffffffffff021916908373ffffffffffffffffffffffffffffffffffffffff16021790555060608201518160020160146101000a81548160ff021916908315150217905550608082015181600301559050507f9ab1f586813b2aedd36f9d1e03a48968715545009d66169f9711b4d14f06698f82823360018060405161344c95949392919061596d565b60405180910390a15050565b606060405180602001604052806000815250905090565b606061347a82612906565b6000613484613458565b905060008151116134a457604051806020016040528060008152506134cf565b806134ae84613770565b6040516020016134bf929190615247565b6040516020818303038152906040525b915050919050565b60008073ffffffffffffffffffffffffffffffffffffffff166134f983612f8e565b73ffffffffffffffffffffffffffffffffffffffff1614159050919050565b60007f01ffc9a7000000000000000000000000000000000000000000000000000000007bffffffffffffffffffffffffffffffffffffffffffffffffffffffff1916827bffffffffffffffffffffffffffffffffffffffffffffffffffffffff1916149050919050565b50505050565b50505050565b60006135af8473ffffffffffffffffffffffffffffffffffffffff1661383e565b15613708578373ffffffffffffffffffffffffffffffffffffffff1663150b7a026135d8612951565b8786866040518563ffffffff1660e01b81526004016135fa9493929190615a15565b6020604051808303816000875af192505050801561363657506040513d601f19601f820116820180604052508101906136339190615a76565b60015b6136b8573d8060008114613666576040519150601f19603f3d011682016040523d82523d6000602084013e61366b565b606091505b5060008151036136b0576040517f08c379a00000000000000000000000000000000000000000000000000000000081526004016136a790615908565b60405180910390fd5b805181602001fd5b63150b7a0260e01b7bffffffffffffffffffffffffffffffffffffffffffffffffffffffff1916817bffffffffffffffffffffffffffffffffffffffffffffffffffffffff19161491505061370d565b600190505b949350505050565b61371f8383613861565b61372c600084848461358e565b61376b576040517f08c379a000000000000000000000000000000000000000000000000000000000815260040161376290615908565b60405180910390fd5b505050565b60606000600161377f84613a7e565b01905060008167ffffffffffffffff81111561379e5761379d613ddb565b5b6040519080825280601f01601f1916602001820160405280156137d05781602001600182028036833780820191505090505b509050600082602001820190505b600115613833578080600190039150507f3031323334353637383961626364656600000000000000000000000000000000600a86061a8153600a858161382757613826615aa3565b5b049450600085036137de575b819350505050919050565b6000808273ffffffffffffffffffffffffffffffffffffffff163b119050919050565b600073ffffffffffffffffffffffffffffffffffffffff168273ffffffffffffffffffffffffffffffffffffffff16036138d0576040517f08c379a00000000000000000000000000000000000000000000000000000000081526004016138c790615b1e565b60405180910390fd5b6138d9816134d7565b15613919576040517f08c379a000000000000000000000000000000000000000000000000000000000815260040161391090615b8a565b60405180910390fd5b613927600083836001613582565b613930816134d7565b15613970576040517f08c379a000000000000000000000000000000000000000000000000000000000815260040161396790615b8a565b60405180910390fd5b6001600360008473ffffffffffffffffffffffffffffffffffffffff1673ffffffffffffffffffffffffffffffffffffffff16815260200190815260200160002060008282540192505081905550816002600083815260200190815260200160002060006101000a81548173ffffffffffffffffffffffffffffffffffffffff021916908373ffffffffffffffffffffffffffffffffffffffff160217905550808273ffffffffffffffffffffffffffffffffffffffff16600073ffffffffffffffffffffffffffffffffffffffff167fddf252ad1be2c89b69c2b068fc378daa952ba7f163c4a11628f55a4df523b3ef60405160405180910390a4613a7a600083836001613588565b5050565b600080600090507a184f03e93ff9f4daa797ed6e38ed64bf6a1f0100000000000000008310613adc577a184f03e93ff9f4daa797ed6e38ed64bf6a1f0100000000000000008381613ad257613ad1615aa3565b5b0492506040810190505b6d04ee2d6d415b85acef81000000008310613b19576d04ee2d6d415b85acef81000000008381613b0f57613b0e615aa3565b5b0492506020810190505b662386f26fc100008310613b4857662386f26fc100008381613b3e57613b3d615aa3565b5b0492506010810190505b6305f5e1008310613b71576305f5e1008381613b6757613b66615aa3565b5b0492506008810190505b6127108310613b96576127108381613b8c57613b8b615aa3565b5b0492506004810190505b60648310613bb95760648381613baf57613bae615aa3565b5b0492506002810190505b600a8310613bc8576001810190505b80915050919050565b6040518060a001604052806000815260200160008152602001600073ffffffffffffffffffffffffffffffffffffffff168152602001600015158152602001600081525090565b828054613c249061484b565b90600052602060002090601f016020900481019282613c465760008555613c8d565b82601f10613c5f57805160ff1916838001178555613c8d565b82800160010185558215613c8d579182015b82811115613c8c578251825591602001919060010190613c71565b5b509050613c9a9190613c9e565b5090565b5b80821115613cb7576000816000905550600101613c9f565b5090565b6000604051905090565b600080fd5b600080fd5b60007fffffffff0000000000000000000000000000000000000000000000000000000082169050919050565b613d0481613ccf565b8114613d0f57600080fd5b50565b600081359050613d2181613cfb565b92915050565b600060208284031215613d3d57613d3c613cc5565b5b6000613d4b84828501613d12565b91505092915050565b60008115159050919050565b613d6981613d54565b82525050565b6000602082019050613d846000830184613d60565b92915050565b6000819050919050565b613d9d81613d8a565b8114613da857600080fd5b50565b600081359050613dba81613d94565b92915050565b600080fd5b600080fd5b6000601f19601f8301169050919050565b7f4e487b7100000000000000000000000000000000000000000000000000000000600052604160045260246000fd5b613e1382613dca565b810181811067ffffffffffffffff82111715613e3257613e31613ddb565b5b80604052505050565b6000613e45613cbb565b9050613e518282613e0a565b919050565b600067ffffffffffffffff821115613e7157613e70613ddb565b5b613e7a82613dca565b9050602081019050919050565b82818337600083830152505050565b6000613ea9613ea484613e56565b613e3b565b905082815260208101848484011115613ec557613ec4613dc5565b5b613ed0848285613e87565b509392505050565b600082601f830112613eed57613eec613dc0565b5b8135613efd848260208601613e96565b91505092915050565b60008060408385031215613f1d57613f1c613cc5565b5b6000613f2b85828601613dab565b925050602083013567ffffffffffffffff811115613f4c57613f4b613cca565b5b613f5885828601613ed8565b9150509250929050565b600081519050919050565b600082825260208201905092915050565b60005b83811015613f9c578082015181840152602081019050613f81565b83811115613fab576000848401525b50505050565b6000613fbc82613f62565b613fc68185613f6d565b9350613fd6818560208601613f7e565b613fdf81613dca565b840191505092915050565b600060208201905081810360008301526140048184613fb1565b905092915050565b60006020828403121561402257614021613cc5565b5b600061403084828501613dab565b91505092915050565b600073ffffffffffffffffffffffffffffffffffffffff82169050919050565b600061406482614039565b9050919050565b61407481614059565b82525050565b600060208201905061408f600083018461406b565b92915050565b61409e81614059565b81146140a957600080fd5b50565b6000813590506140bb81614095565b92915050565b600080604083850312156140d8576140d7613cc5565b5b60006140e6858286016140ac565b92505060206140f785828601613dab565b9150509250929050565b60006020828403121561411757614116613cc5565b5b600082013567ffffffffffffffff81111561413557614134613cca565b5b61414184828501613ed8565b91505092915050565b61415381613d8a565b82525050565b600060208201905061416e600083018461414a565b92915050565b6000806040838503121561418b5761418a613cc5565b5b6000614199858286016140ac565b925050602083013567ffffffffffffffff8111156141ba576141b9613cca565b5b6141c685828601613ed8565b9150509250929050565b600080604083850312156141e7576141e6613cc5565b5b60006141f585828601613dab565b925050602061420685828601613dab565b9150509250929050565b60008060006060848603121561422957614228613cc5565b5b6000614237868287016140ac565b9350506020614248868287016140ac565b925050604061425986828701613dab565b9150509250925092565b60006020828403121561427957614278613cc5565b5b6000614287848285016140ac565b91505092915050565b600081519050919050565b600082825260208201905092915050565b6000819050602082019050919050565b6142c581613d8a565b82525050565b6142d481614059565b82525050565b6142e381613d54565b82525050565b60a0820160008201516142ff60008501826142bc565b50602082015161431260208501826142bc565b50604082015161432560408501826142cb565b50606082015161433860608501826142da565b50608082015161434b60808501826142bc565b50505050565b600061435d83836142e9565b60a08301905092915050565b6000602082019050919050565b600061438182614290565b61438b818561429b565b9350614396836142ac565b8060005b838110156143c75781516143ae8882614351565b97506143b983614369565b92505060018101905061439a565b5085935050505092915050565b600060208201905081810360008301526143ee8184614376565b905092915050565b600060608201905081810360008301526144108186613fb1565b905081810360208301526144248185613fb1565b905081810360408301526144388184613fb1565b9050949350505050565b60a08201600082015161445860008501826142bc565b50602082015161446b60208501826142bc565b50604082015161447e60408501826142cb565b50606082015161449160608501826142da565b5060808201516144a460808501826142bc565b50505050565b600060a0820190506144bf6000830184614442565b92915050565b6144ce81613d54565b81146144d957600080fd5b50565b6000813590506144eb816144c5565b92915050565b6000806040838503121561450857614507613cc5565b5b6000614516858286016140ac565b9250506020614527858286016144dc565b9150509250929050565b600067ffffffffffffffff82111561454c5761454b613ddb565b5b61455582613dca565b9050602081019050919050565b600061457561457084614531565b613e3b565b90508281526020810184848401111561459157614590613dc5565b5b61459c848285613e87565b509392505050565b600082601f8301126145b9576145b8613dc0565b5b81356145c9848260208601614562565b91505092915050565b600080600080608085870312156145ec576145eb613cc5565b5b60006145fa878288016140ac565b945050602061460b878288016140ac565b935050604061461c87828801613dab565b925050606085013567ffffffffffffffff81111561463d5761463c613cca565b5b614649878288016145a4565b91505092959194509250565b6000806040838503121561466c5761466b613cc5565b5b600083013567ffffffffffffffff81111561468a57614689613cca565b5b61469685828601613ed8565b92505060206146a785828601613dab565b9150509250929050565b600080600080600060a086880312156146cd576146cc613cc5565b5b60006146db888289016140ac565b955050602086013567ffffffffffffffff8111156146fc576146fb613cca565b5b61470888828901613ed8565b945050604086013567ffffffffffffffff81111561472957614728613cca565b5b61473588828901613ed8565b935050606086013567ffffffffffffffff81111561475657614755613cca565b5b61476288828901613ed8565b925050608086013567ffffffffffffffff81111561478357614782613cca565b5b61478f88828901613ed8565b9150509295509295909350565b600080604083850312156147b3576147b2613cc5565b5b60006147c185828601613dab565b92505060206147d2858286016140ac565b9150509250929050565b600080604083850312156147f3576147f2613cc5565b5b6000614801858286016140ac565b9250506020614812858286016140ac565b9150509250929050565b7f4e487b7100000000000000000000000000000000000000000000000000000000600052602260045260246000fd5b6000600282049050600182168061486357607f821691505b6020821081036148765761487561481c565b5b50919050565b7f4552433732313a20617070726f76616c20746f2063757272656e74206f776e6560008201527f7200000000000000000000000000000000000000000000000000000000000000602082015250565b60006148d8602183613f6d565b91506148e38261487c565b604082019050919050565b60006020820190508181036000830152614907816148cb565b9050919050565b7f4552433732313a20617070726f76652063616c6c6572206973206e6f7420746f60008201527f6b656e206f776e6572206f7220617070726f76656420666f7220616c6c000000602082015250565b600061496a603d83613f6d565b91506149758261490e565b604082019050919050565b600060208201905081810360008301526149998161495d565b9050919050565b600081905092915050565b60006149b682613f62565b6149c081856149a0565b93506149d0818560208601613f7e565b80840191505092915050565b60006149e882846149ab565b915081905092915050565b7f546f6b656e20646f6573206e6f74206578697374000000000000000000000000600082015250565b6000614a29601483613f6d565b9150614a34826149f3565b602082019050919050565b60006020820190508181036000830152614a5881614a1c565b9050919050565b7f4f6e6c792061646d696e2063616e20706572666f726d2074686973206163746960008201527f6f6e000000000000000000000000000000000000000000000000000000000000602082015250565b6000614abb602283613f6d565b9150614ac682614a5f565b604082019050919050565b60006020820190508181036000830152614aea81614aae565b9050919050565b7f496e76616c696420616464726573730000000000000000000000000000000000600082015250565b6000614b27600f83613f6d565b9150614b3282614af1565b602082019050919050565b60006020820190508181036000830152614b5681614b1a565b9050919050565b7f496e76616c696420726f6c650000000000000000000000000000000000000000600082015250565b6000614b93600c83613f6d565b9150614b9e82614b5d565b602082019050919050565b60006020820190508181036000830152614bc281614b86565b9050919050565b7f596f7520617265206e6f74206f776e6572206f662074686973206e6674000000600082015250565b6000614bff601d83613f6d565b9150614c0a82614bc9565b602082019050919050565b60006020820190508181036000830152614c2e81614bf2565b9050919050565b7f4974656d20697320616c7265616479206f6e2073616c65000000000000000000600082015250565b6000614c6b601783613f6d565b9150614c7682614c35565b602082019050919050565b60006020820190508181036000830152614c9a81614c5e565b9050919050565b7f5072696365206d75737420626520657175616c20746f206c697374696e67207060008201527f7269636500000000000000000000000000000000000000000000000000000000602082015250565b6000614cfd602483613f6d565b9150614d0882614ca1565b604082019050919050565b60006020820190508181036000830152614d2c81614cf0565b9050919050565b7f4552433732313a2063616c6c6572206973206e6f7420746f6b656e206f776e6560008201527f72206f7220617070726f76656400000000000000000000000000000000000000602082015250565b6000614d8f602d83613f6d565b9150614d9a82614d33565b604082019050919050565b60006020820190508181036000830152614dbe81614d82565b9050919050565b7f596f7520616c7265616479206f776e2074686973204e46540000000000000000600082015250565b6000614dfb601883613f6d565b9150614e0682614dc5565b602082019050919050565b60006020820190508181036000830152614e2a81614dee565b9050919050565b7f506c65617365207375626d6974207468652061736b696e672070726963650000600082015250565b6000614e67601e83613f6d565b9150614e7282614e31565b602082019050919050565b60006020820190508181036000830152614e9681614e5a565b9050919050565b7f496e646578206f7574206f6620626f756e647300000000000000000000000000600082015250565b6000614ed3601383613f6d565b9150614ede82614e9d565b602082019050919050565b60006020820190508181036000830152614f0281614ec6565b9050919050565b7f4e487b7100000000000000000000000000000000000000000000000000000000600052603260045260246000fd5b7f4e487b7100000000000000000000000000000000000000000000000000000000600052601160045260246000fd5b6000614f7282613d8a565b9150614f7d83613d8a565b9250827fffffffffffffffffffffffffffffffffffffffffffffffffffffffffffffffff03821115614fb257614fb1614f38565b5b828201905092915050565b6000614fc882613d8a565b91507fffffffffffffffffffffffffffffffffffffffffffffffffffffffffffffffff8203614ffa57614ff9614f38565b5b600182019050919050565b7f4552433732313a20696e76616c696420746f6b656e2049440000000000000000600082015250565b600061503b601883613f6d565b915061504682615005565b602082019050919050565b6000602082019050818103600083015261506a8161502e565b9050919050565b7f5573657220646f6573206e6f7420657869737400000000000000000000000000600082015250565b60006150a7601383613f6d565b91506150b282615071565b602082019050919050565b600060208201905081810360008301526150d68161509a565b9050919050565b7f4552433732313a2061646472657373207a65726f206973206e6f74206120766160008201527f6c6964206f776e65720000000000000000000000000000000000000000000000602082015250565b6000615139602983613f6d565b9150615144826150dd565b604082019050919050565b600060208201905081810360008301526151688161512c565b9050919050565b7f5072696365206d757374206265206174206c6561737420312077656900000000600082015250565b60006151a5601c83613f6d565b91506151b08261516f565b602082019050919050565b600060208201905081810360008301526151d481615198565b9050919050565b7f546f6b656e2055524920616c7265616479206578697374730000000000000000600082015250565b6000615211601883613f6d565b915061521c826151db565b602082019050919050565b6000602082019050818103600083015261524081615204565b9050919050565b600061525382856149ab565b915061525f82846149ab565b91508190509392505050565b7f5573657220616c72656164792065786973747300000000000000000000000000600082015250565b60006152a1601383613f6d565b91506152ac8261526b565b602082019050919050565b600060208201905081810360008301526152d081615294565b9050919050565b600060408201905081810360008301526152f18185613fb1565b905081810360208301526153058184613fb1565b90509392505050565b7f4e6f7420617574686f72697a6564000000000000000000000000000000000000600082015250565b6000615344600e83613f6d565b915061534f8261530e565b602082019050919050565b6000602082019050818103600083015261537381615337565b9050919050565b7f4f776e61626c653a206e6577206f776e657220697320746865207a65726f206160008201527f6464726573730000000000000000000000000000000000000000000000000000602082015250565b60006153d6602683613f6d565b91506153e18261537a565b604082019050919050565b60006020820190508181036000830152615405816153c9565b9050919050565b7f526f6c65733a206163636f756e7420616c72656164792068617320726f6c6500600082015250565b6000615442601f83613f6d565b915061544d8261540c565b602082019050919050565b6000602082019050818103600083015261547181615435565b9050919050565b7f45524337323155524953746f726167653a2055524920736574206f66206e6f6e60008201527f6578697374656e7420746f6b656e000000000000000000000000000000000000602082015250565b60006154d4602e83613f6d565b91506154df82615478565b604082019050919050565b60006020820190508181036000830152615503816154c7565b9050919050565b7f526f6c65733a206163636f756e7420697320746865207a65726f20616464726560008201527f7373000000000000000000000000000000000000000000000000000000000000602082015250565b6000615566602283613f6d565b91506155718261550a565b604082019050919050565b6000602082019050818103600083015261559581615559565b9050919050565b7f526f6c65733a206163636f756e7420646f6573206e6f74206861766520726f6c60008201527f6500000000000000000000000000000000000000000000000000000000000000602082015250565b60006155f8602183613f6d565b91506156038261559c565b604082019050919050565b60006020820190508181036000830152615627816155eb565b9050919050565b7f4552433732313a207472616e736665722066726f6d20696e636f72726563742060008201527f6f776e6572000000000000000000000000000000000000000000000000000000602082015250565b600061568a602583613f6d565b91506156958261562e565b604082019050919050565b600060208201905081810360008301526156b98161567d565b9050919050565b7f4552433732313a207472616e7366657220746f20746865207a65726f2061646460008201527f7265737300000000000000000000000000000000000000000000000000000000602082015250565b600061571c602483613f6d565b9150615727826156c0565b604082019050919050565b6000602082019050818103600083015261574b8161570f565b9050919050565b7f436f756e7465723a2064656372656d656e74206f766572666c6f770000000000600082015250565b6000615788601b83613f6d565b915061579382615752565b602082019050919050565b600060208201905081810360008301526157b78161577b565b9050919050565b7f4f776e61626c653a2063616c6c6572206973206e6f7420746865206f776e6572600082015250565b60006157f4602083613f6d565b91506157ff826157be565b602082019050919050565b60006020820190508181036000830152615823816157e7565b9050919050565b7f4552433732313a20617070726f766520746f2063616c6c657200000000000000600082015250565b6000615860601983613f6d565b915061586b8261582a565b602082019050919050565b6000602082019050818103600083015261588f81615853565b9050919050565b7f4552433732313a207472616e7366657220746f206e6f6e20455243373231526560008201527f63656976657220696d706c656d656e7465720000000000000000000000000000602082015250565b60006158f2603283613f6d565b91506158fd82615896565b604082019050919050565b60006020820190508181036000830152615921816158e5565b9050919050565b6000819050919050565b6000819050919050565b600061595761595261594d84615928565b615932565b613d8a565b9050919050565b6159678161593c565b82525050565b600060a082019050615982600083018861414a565b61598f602083018761414a565b61599c604083018661406b565b6159a96060830185613d60565b6159b6608083018461595e565b9695505050505050565b600081519050919050565b600082825260208201905092915050565b60006159e7826159c0565b6159f181856159cb565b9350615a01818560208601613f7e565b615a0a81613dca565b840191505092915050565b6000608082019050615a2a600083018761406b565b615a37602083018661406b565b615a44604083018561414a565b8181036060830152615a5681846159dc565b905095945050505050565b600081519050615a7081613cfb565b92915050565b600060208284031215615a8c57615a8b613cc5565b5b6000615a9a84828501615a61565b91505092915050565b7f4e487b7100000000000000000000000000000000000000000000000000000000600052601260045260246000fd5b7f4552433732313a206d696e7420746f20746865207a65726f2061646472657373600082015250565b6000615b08602083613f6d565b9150615b1382615ad2565b602082019050919050565b60006020820190508181036000830152615b3781615afb565b9050919050565b7f4552433732313a20746f6b656e20616c7265616479206d696e74656400000000600082015250565b6000615b74601c83613f6d565b9150615b7f82615b3e565b602082019050919050565b60006020820190508181036000830152615ba381615b67565b905091905056fea264697066735822122051353fbb53bc0c6d0e80a729834502e91239aed9f94504a40d348853488880d964736f6c634300080d0033",
  "immutableReferences": {},
  "source": "// SPDX-License-Identifier: MIT\r\npragma solidity >=0.4.22 <0.9.0;\r\nimport \"@openzeppelin/contracts/token/ERC721/extensions/ERC721URIStorage.sol\";\r\nimport \"@openzeppelin/contracts/utils/Counters.sol\";\r\nimport \"@openzeppelin/contracts/access/Ownable.sol\";\r\nimport \"../contracts/access/AccessManage.sol\";\r\n\r\ncontract NftMarket is ERC721URIStorage, Ownable, AccessManage {\r\n    using Counters for Counters.Counter;\r\n\r\n    Counters.Counter private _listedItems;\r\n    Counters.Counter private _tokenIds;\r\n    uint256[] private _allNfts;\r\n\r\n    mapping(string => bool) private _usedTokenURIs;\r\n    mapping(uint => NftItem) private _idToNftItem;\r\n    mapping(uint => uint) private _idToNftIndex;\r\n    mapping(address => mapping(uint => uint)) private _ownedTokens;\r\n    mapping(uint => uint) private _idToOwnedIndex;\r\n    mapping(string => uint256) private _uriToTokenId;\r\n\r\n    struct NftItem {\r\n        uint tokenId;\r\n        uint price;\r\n        address creator;\r\n        bool isListed;\r\n        uint status;\r\n    }\r\n\r\n    event NftItemCreated(\r\n        uint tokenId,\r\n        uint price,\r\n        address creator,\r\n        bool isListed,\r\n        uint status\r\n    );\r\n\r\n\r\n    \r\n    uint public listingPrice = 0.025 ether;\r\n\r\n    constructor() ERC721(\"CreaturesNFT\", \"CNFT\") {}\r\n\r\n    function getNftItem(uint tokenId) public view returns (NftItem memory) {\r\n        return _idToNftItem[tokenId];\r\n    }\r\n\r\n    function listedItemsCount() public view returns (uint) {\r\n        return _listedItems.current();\r\n    }\r\n\r\n    function setListingPrice(uint newPrice) external onlyOwner {\r\n        require(newPrice > 0, \"Price must be at least 1 wei\");\r\n        listingPrice = newPrice;\r\n    }\r\n    function tokenURIExists(string memory tokenURI) public view returns (bool) {\r\n        return _usedTokenURIs[tokenURI] == true;\r\n    }\r\n\r\n    function totalSupply() public view returns (uint) {\r\n        return _allNfts.length;\r\n    }\r\n\r\n    function tokenByIndex(uint index) public view returns (uint) {\r\n        require(index < totalSupply(), \"Index out of bounds\");\r\n        return _allNfts[index];\r\n    }\r\n\r\n    function mintToken(\r\n        string memory tokenURI,\r\n        uint price\r\n    ) public payable returns (uint) {\r\n        //require(isVerifier(msg.sender), \"Only verifiers can access this\");\r\n        require(!tokenURIExists(tokenURI), \"Token URI already exists\");\r\n        // require(msg.value == listingPrice, \"Price must be equal to listing price\");\r\n        _tokenIds.increment();\r\n        _listedItems.increment();\r\n\r\n        uint newTokenId = _tokenIds.current();\r\n\r\n        _safeMint(msg.sender, newTokenId);\r\n\r\n        _setTokenURI(newTokenId, tokenURI);\r\n\r\n        _createNftItem(newTokenId, price);\r\n        _usedTokenURIs[tokenURI] = true;\r\n        _uriToTokenId[tokenURI] = newTokenId;\r\n        return newTokenId;\r\n    }\r\n\r\n    function updateUri(uint tokenId, string memory uri) public {\r\n        _setTokenURI(tokenId, uri);\r\n    }\r\n\r\n    function getAllNftsOnSale() public view returns (NftItem[] memory) {\r\n        uint allItemsCounts = totalSupply();\r\n        uint currentIndex = 0;\r\n        NftItem[] memory items = new NftItem[](_listedItems.current());\r\n\r\n        for (uint i = 0; i < allItemsCounts; i++) {\r\n            uint tokenId = tokenByIndex(i);\r\n            NftItem storage item = _idToNftItem[tokenId];\r\n\r\n            if (item.isListed == true) {\r\n                items[currentIndex] = item;\r\n                currentIndex += 1;\r\n            }\r\n        }\r\n\r\n        return items;\r\n    }\r\n\r\n    function getOwnedNfts() public view returns (NftItem[] memory) {\r\n        uint ownedItemsCount = ERC721.balanceOf(msg.sender);\r\n        NftItem[] memory items = new NftItem[](ownedItemsCount);\r\n\r\n        for (uint i = 0; i < ownedItemsCount; i++) {\r\n            uint tokenId = tokenOfOwnerByIndex(msg.sender, i);\r\n            NftItem storage item = _idToNftItem[tokenId];\r\n            items[i] = item;\r\n        }\r\n\r\n        return items;\r\n    }\r\n\r\n    function _createNftItem(uint tokenId, uint price) private {\r\n        require(price > 0, \"Price must be at least 1 wei\");\r\n\r\n        _idToNftItem[tokenId] = NftItem(\r\n            tokenId,\r\n            price,\r\n            msg.sender,\r\n            true,\r\n            1\r\n        );\r\n\r\n        emit NftItemCreated(tokenId, price, msg.sender, true,  1);\r\n    }\r\n\r\n    function transferTo(uint tokenId, address user) public {\r\n        address owner = ERC721.ownerOf(tokenId);\r\n        _transfer(owner, user, tokenId);\r\n    }\r\n\r\n    function buyNft(uint tokenId) public payable {\r\n        uint price = _idToNftItem[tokenId].price;\r\n        address owner = ERC721.ownerOf(tokenId);\r\n\r\n        require(msg.sender != owner, \"You already own this NFT\");\r\n        require(msg.value == price, \"Please submit the asking price\");\r\n\r\n        _idToNftItem[tokenId].isListed = false;\r\n        _listedItems.decrement();\r\n\r\n        _transfer(owner, msg.sender, tokenId);\r\n        payable(owner).transfer(msg.value);\r\n    }\r\n\r\n\r\n\r\n    function _addTokenToAllTokensEnumaration(uint tokenId) private {\r\n        _idToNftIndex[tokenId] = _allNfts.length;\r\n        _allNfts.push(tokenId);\r\n    }\r\n    function _addTokenToOwnerEnumaration(address to, uint tokenId) private {\r\n        uint length = ERC721.balanceOf(to);\r\n        _ownedTokens[to][length] = tokenId;\r\n        _idToOwnedIndex[tokenId] = length;\r\n    }\r\n\r\n    function tokenOfOwnerByIndex(\r\n        address owner,\r\n        uint index\r\n    ) public view returns (uint) {\r\n        require(index < ERC721.balanceOf(owner), \"Index out of bounds\");\r\n        return _ownedTokens[owner][index];\r\n    }\r\n\r\n    function _removeTokenFromOwnerEnumeration(\r\n        address from,\r\n        uint tokenId\r\n    ) private {\r\n        uint lastTokenIndex = ERC721.balanceOf(from) - 1;\r\n        uint tokenIndex = _idToOwnedIndex[tokenId];\r\n\r\n        if (tokenIndex != lastTokenIndex) {\r\n            uint lastTokenId = _ownedTokens[from][lastTokenIndex];\r\n\r\n            _ownedTokens[from][tokenIndex] = lastTokenId;\r\n            _idToOwnedIndex[lastTokenId] = tokenIndex;\r\n        }\r\n\r\n        delete _idToOwnedIndex[tokenId];\r\n        delete _ownedTokens[from][lastTokenIndex];\r\n    }\r\n\r\n    function _removeTokenFromAllTokensEnumeration(uint tokenId) private {\r\n        uint lastTokenIndex = _allNfts.length - 1;\r\n        uint tokenIndex = _idToNftIndex[tokenId];\r\n        uint lastTokenId = _allNfts[lastTokenIndex];\r\n\r\n        _allNfts[tokenIndex] = lastTokenId;\r\n        _idToNftIndex[lastTokenId] = tokenIndex;\r\n\r\n        delete _idToNftIndex[tokenId];\r\n        _allNfts.pop();\r\n    }\r\n\r\n    function placeNftOnSale(uint tokenId, uint newPrice) public payable {\r\n        require(\r\n            ERC721.ownerOf(tokenId) == msg.sender,\r\n            \"You are not owner of this nft\"\r\n        );\r\n        require(\r\n            _idToNftItem[tokenId].isListed == false,\r\n            \"Item is already on sale\"\r\n        );\r\n        require(\r\n            msg.value == listingPrice,\r\n            \"Price must be equal to listing price\"\r\n        );\r\n\r\n        _idToNftItem[tokenId].isListed = true;\r\n        _idToNftItem[tokenId].price = newPrice;\r\n        _listedItems.increment();\r\n    }\r\n\r\n    function updateStatus(uint tokenId, uint newStatus) public {\r\n        require(_exists(tokenId), \"Token does not exist\");\r\n        require(\r\n            ERC721.ownerOf(tokenId) == msg.sender || msg.sender == owner(),\r\n            \"Not authorized\"\r\n        );\r\n        _idToNftItem[tokenId].status = newStatus;\r\n    }\r\n    function getTokenIdByURI(\r\n        string memory tokenURI\r\n    ) public view returns (uint256) {\r\n        require(_uriToTokenId[tokenURI] != 0, \"Token does not exist\");\r\n        return _uriToTokenId[tokenURI];\r\n    }\r\n}\r\n",
  "sourcePath": "C:\\HCMUS\\KhoaLuan\\Udemy\\NFT_Marketplace\\nft_marketplace\\contracts\\NftMarket.sol",
  "compiler": {
    "name": "solc",
    "version": "0.8.13+commit.abaa5c0e.Emscripten.clang"
  },
  "schemaVersion": "3.4.16",
  "updatedAt": "2025-02-10T15:31:11.290Z",
  "networkType": "ethereum",
  "devdoc": {
    "kind": "dev",
    "methods": {
      "approve(address,uint256)": {
        "details": "See {IERC721-approve}."
      },
      "balanceOf(address)": {
        "details": "See {IERC721-balanceOf}."
      },
      "getApproved(uint256)": {
        "details": "See {IERC721-getApproved}."
      },
      "isApprovedForAll(address,address)": {
        "details": "See {IERC721-isApprovedForAll}."
      },
      "name()": {
        "details": "See {IERC721Metadata-name}."
      },
      "owner()": {
        "details": "Returns the address of the current owner."
      },
      "ownerOf(uint256)": {
        "details": "See {IERC721-ownerOf}."
      },
      "renounceOwnership()": {
        "details": "Leaves the contract without owner. It will not be possible to call `onlyOwner` functions. Can only be called by the current owner. NOTE: Renouncing ownership will leave the contract without an owner, thereby disabling any functionality that is only available to the owner."
      },
      "safeTransferFrom(address,address,uint256)": {
        "details": "See {IERC721-safeTransferFrom}."
      },
      "safeTransferFrom(address,address,uint256,bytes)": {
        "details": "See {IERC721-safeTransferFrom}."
      },
      "setApprovalForAll(address,bool)": {
        "details": "See {IERC721-setApprovalForAll}."
      },
      "supportsInterface(bytes4)": {
        "details": "See {IERC165-supportsInterface}"
      },
      "symbol()": {
        "details": "See {IERC721Metadata-symbol}."
      },
      "tokenURI(uint256)": {
        "details": "See {IERC721Metadata-tokenURI}."
      },
      "transferFrom(address,address,uint256)": {
        "details": "See {IERC721-transferFrom}."
      },
      "transferOwnership(address)": {
        "details": "Transfers ownership of the contract to a new account (`newOwner`). Can only be called by the current owner."
      }
    },
    "version": 1
  },
  "userdoc": {
    "kind": "user",
    "methods": {},
    "version": 1
  }
}