{
  "contractName": "NftMarket",
  "abi": [
    {
      "inputs": [],
      "stateMutability": "nonpayable",
      "type": "constructor"
    },
    {
      "anonymous": false,
      "inputs": [
        {
          "indexed": true,
          "internalType": "address",
          "name": "owner",
          "type": "address"
        },
        {
          "indexed": true,
          "internalType": "address",
          "name": "approved",
          "type": "address"
        },
        {
          "indexed": true,
          "internalType": "uint256",
          "name": "tokenId",
          "type": "uint256"
        }
      ],
      "name": "Approval",
      "type": "event"
    },
    {
      "anonymous": false,
      "inputs": [
        {
          "indexed": true,
          "internalType": "address",
          "name": "owner",
          "type": "address"
        },
        {
          "indexed": true,
          "internalType": "address",
          "name": "operator",
          "type": "address"
        },
        {
          "indexed": false,
          "internalType": "bool",
          "name": "approved",
          "type": "bool"
        }
      ],
      "name": "ApprovalForAll",
      "type": "event"
    },
    {
      "anonymous": false,
      "inputs": [
        {
          "indexed": false,
          "internalType": "uint256",
          "name": "_fromTokenId",
          "type": "uint256"
        },
        {
          "indexed": false,
          "internalType": "uint256",
          "name": "_toTokenId",
          "type": "uint256"
        }
      ],
      "name": "BatchMetadataUpdate",
      "type": "event"
    },
    {
      "anonymous": false,
      "inputs": [
        {
          "indexed": false,
          "internalType": "uint256",
          "name": "_tokenId",
          "type": "uint256"
        }
      ],
      "name": "MetadataUpdate",
      "type": "event"
    },
    {
      "anonymous": false,
      "inputs": [
        {
          "indexed": false,
          "internalType": "uint256",
          "name": "tokenId",
          "type": "uint256"
        },
        {
          "indexed": false,
          "internalType": "string",
          "name": "uri",
          "type": "string"
        },
        {
          "indexed": false,
          "internalType": "uint256",
          "name": "price",
          "type": "uint256"
        },
        {
          "indexed": false,
          "internalType": "address",
          "name": "creator",
          "type": "address"
        },
        {
          "indexed": false,
          "internalType": "bool",
          "name": "isListed",
          "type": "bool"
        }
      ],
      "name": "NftItemCreated",
      "type": "event"
    },
    {
      "anonymous": false,
      "inputs": [
        {
          "indexed": true,
          "internalType": "address",
          "name": "previousOwner",
          "type": "address"
        },
        {
          "indexed": true,
          "internalType": "address",
          "name": "newOwner",
          "type": "address"
        }
      ],
      "name": "OwnershipTransferred",
      "type": "event"
    },
    {
      "anonymous": false,
      "inputs": [
        {
          "indexed": true,
          "internalType": "address",
          "name": "account",
          "type": "address"
        },
        {
          "indexed": false,
          "internalType": "string",
          "name": "role",
          "type": "string"
        }
      ],
      "name": "RoleAssigned",
      "type": "event"
    },
    {
      "anonymous": false,
      "inputs": [
        {
          "indexed": true,
          "internalType": "address",
          "name": "account",
          "type": "address"
        },
        {
          "indexed": false,
          "internalType": "string",
          "name": "role",
          "type": "string"
        }
      ],
      "name": "RoleRemoved",
      "type": "event"
    },
    {
      "anonymous": false,
      "inputs": [
        {
          "indexed": true,
          "internalType": "address",
          "name": "from",
          "type": "address"
        },
        {
          "indexed": true,
          "internalType": "address",
          "name": "to",
          "type": "address"
        },
        {
          "indexed": true,
          "internalType": "uint256",
          "name": "tokenId",
          "type": "uint256"
        }
      ],
      "name": "Transfer",
      "type": "event"
    },
    {
      "anonymous": false,
      "inputs": [
        {
          "indexed": true,
          "internalType": "address",
          "name": "account",
          "type": "address"
        },
        {
          "indexed": false,
          "internalType": "string",
          "name": "name",
          "type": "string"
        },
        {
          "indexed": false,
          "internalType": "string",
          "name": "email",
          "type": "string"
        }
      ],
      "name": "UserAdded",
      "type": "event"
    },
    {
      "inputs": [
        {
          "internalType": "address",
          "name": "account",
          "type": "address"
        },
        {
          "internalType": "string",
          "name": "name",
          "type": "string"
        },
        {
          "internalType": "string",
          "name": "email",
          "type": "string"
        },
        {
          "internalType": "string",
          "name": "tokenURI",
          "type": "string"
        },
        {
          "internalType": "string",
          "name": "role",
          "type": "string"
        }
      ],
      "name": "addUser",
      "outputs": [],
      "stateMutability": "nonpayable",
      "type": "function"
    },
    {
      "inputs": [
        {
          "internalType": "address",
          "name": "to",
          "type": "address"
        },
        {
          "internalType": "uint256",
          "name": "tokenId",
          "type": "uint256"
        }
      ],
      "name": "approve",
      "outputs": [],
      "stateMutability": "nonpayable",
      "type": "function"
    },
    {
      "inputs": [
        {
          "internalType": "address",
          "name": "account",
          "type": "address"
        },
        {
          "internalType": "string",
          "name": "role",
          "type": "string"
        }
      ],
      "name": "assignRole",
      "outputs": [],
      "stateMutability": "nonpayable",
      "type": "function"
    },
    {
      "inputs": [
        {
          "internalType": "address",
          "name": "owner",
          "type": "address"
        }
      ],
      "name": "balanceOf",
      "outputs": [
        {
          "internalType": "uint256",
          "name": "",
          "type": "uint256"
        }
      ],
      "stateMutability": "view",
      "type": "function",
      "constant": true
    },
    {
      "inputs": [
        {
          "internalType": "uint256",
          "name": "tokenId",
          "type": "uint256"
        }
      ],
      "name": "getApproved",
      "outputs": [
        {
          "internalType": "address",
          "name": "",
          "type": "address"
        }
      ],
      "stateMutability": "view",
      "type": "function",
      "constant": true
    },
    {
      "inputs": [
        {
          "internalType": "address",
          "name": "account",
          "type": "address"
        }
      ],
      "name": "getUserInfo",
      "outputs": [
        {
          "internalType": "string",
          "name": "name",
          "type": "string"
        },
        {
          "internalType": "string",
          "name": "email",
          "type": "string"
        },
        {
          "internalType": "string",
          "name": "tokenURI",
          "type": "string"
        }
      ],
      "stateMutability": "view",
      "type": "function",
      "constant": true
    },
    {
      "inputs": [
        {
          "internalType": "address",
          "name": "account",
          "type": "address"
        }
      ],
      "name": "isAdmin",
      "outputs": [
        {
          "internalType": "bool",
          "name": "",
          "type": "bool"
        }
      ],
      "stateMutability": "view",
      "type": "function",
      "constant": true
    },
    {
      "inputs": [
        {
          "internalType": "address",
          "name": "owner",
          "type": "address"
        },
        {
          "internalType": "address",
          "name": "operator",
          "type": "address"
        }
      ],
      "name": "isApprovedForAll",
      "outputs": [
        {
          "internalType": "bool",
          "name": "",
          "type": "bool"
        }
      ],
      "stateMutability": "view",
      "type": "function",
      "constant": true
    },
    {
      "inputs": [
        {
          "internalType": "address",
          "name": "account",
          "type": "address"
        }
      ],
      "name": "isUser",
      "outputs": [
        {
          "internalType": "bool",
          "name": "",
          "type": "bool"
        }
      ],
      "stateMutability": "view",
      "type": "function",
      "constant": true
    },
    {
      "inputs": [
        {
          "internalType": "address",
          "name": "account",
          "type": "address"
        }
      ],
      "name": "isVerifier",
      "outputs": [
        {
          "internalType": "bool",
          "name": "",
          "type": "bool"
        }
      ],
      "stateMutability": "view",
      "type": "function",
      "constant": true
    },
    {
      "inputs": [],
      "name": "listingPrice",
      "outputs": [
        {
          "internalType": "uint256",
          "name": "",
          "type": "uint256"
        }
      ],
      "stateMutability": "view",
      "type": "function",
      "constant": true
    },
    {
      "inputs": [],
      "name": "name",
      "outputs": [
        {
          "internalType": "string",
          "name": "",
          "type": "string"
        }
      ],
      "stateMutability": "view",
      "type": "function",
      "constant": true
    },
    {
      "inputs": [],
      "name": "owner",
      "outputs": [
        {
          "internalType": "address",
          "name": "",
          "type": "address"
        }
      ],
      "stateMutability": "view",
      "type": "function",
      "constant": true
    },
    {
      "inputs": [
        {
          "internalType": "uint256",
          "name": "tokenId",
          "type": "uint256"
        }
      ],
      "name": "ownerOf",
      "outputs": [
        {
          "internalType": "address",
          "name": "",
          "type": "address"
        }
      ],
      "stateMutability": "view",
      "type": "function",
      "constant": true
    },
    {
      "inputs": [
        {
          "internalType": "address",
          "name": "account",
          "type": "address"
        },
        {
          "internalType": "string",
          "name": "role",
          "type": "string"
        }
      ],
      "name": "removeRole",
      "outputs": [],
      "stateMutability": "nonpayable",
      "type": "function"
    },
    {
      "inputs": [],
      "name": "renounceOwnership",
      "outputs": [],
      "stateMutability": "nonpayable",
      "type": "function"
    },
    {
      "inputs": [
        {
          "internalType": "address",
          "name": "from",
          "type": "address"
        },
        {
          "internalType": "address",
          "name": "to",
          "type": "address"
        },
        {
          "internalType": "uint256",
          "name": "tokenId",
          "type": "uint256"
        }
      ],
      "name": "safeTransferFrom",
      "outputs": [],
      "stateMutability": "nonpayable",
      "type": "function"
    },
    {
      "inputs": [
        {
          "internalType": "address",
          "name": "from",
          "type": "address"
        },
        {
          "internalType": "address",
          "name": "to",
          "type": "address"
        },
        {
          "internalType": "uint256",
          "name": "tokenId",
          "type": "uint256"
        },
        {
          "internalType": "bytes",
          "name": "data",
          "type": "bytes"
        }
      ],
      "name": "safeTransferFrom",
      "outputs": [],
      "stateMutability": "nonpayable",
      "type": "function"
    },
    {
      "inputs": [
        {
          "internalType": "address",
          "name": "operator",
          "type": "address"
        },
        {
          "internalType": "bool",
          "name": "approved",
          "type": "bool"
        }
      ],
      "name": "setApprovalForAll",
      "outputs": [],
      "stateMutability": "nonpayable",
      "type": "function"
    },
    {
      "inputs": [
        {
          "internalType": "bytes4",
          "name": "interfaceId",
          "type": "bytes4"
        }
      ],
      "name": "supportsInterface",
      "outputs": [
        {
          "internalType": "bool",
          "name": "",
          "type": "bool"
        }
      ],
      "stateMutability": "view",
      "type": "function",
      "constant": true
    },
    {
      "inputs": [],
      "name": "symbol",
      "outputs": [
        {
          "internalType": "string",
          "name": "",
          "type": "string"
        }
      ],
      "stateMutability": "view",
      "type": "function",
      "constant": true
    },
    {
      "inputs": [
        {
          "internalType": "uint256",
          "name": "tokenId",
          "type": "uint256"
        }
      ],
      "name": "tokenURI",
      "outputs": [
        {
          "internalType": "string",
          "name": "",
          "type": "string"
        }
      ],
      "stateMutability": "view",
      "type": "function",
      "constant": true
    },
    {
      "inputs": [
        {
          "internalType": "address",
          "name": "from",
          "type": "address"
        },
        {
          "internalType": "address",
          "name": "to",
          "type": "address"
        },
        {
          "internalType": "uint256",
          "name": "tokenId",
          "type": "uint256"
        }
      ],
      "name": "transferFrom",
      "outputs": [],
      "stateMutability": "nonpayable",
      "type": "function"
    },
    {
      "inputs": [
        {
          "internalType": "address",
          "name": "newOwner",
          "type": "address"
        }
      ],
      "name": "transferOwnership",
      "outputs": [],
      "stateMutability": "nonpayable",
      "type": "function"
    },
    {
      "inputs": [
        {
          "internalType": "uint256",
          "name": "tokenId",
          "type": "uint256"
        }
      ],
      "name": "getNftItem",
      "outputs": [
        {
          "components": [
            {
              "internalType": "uint256",
              "name": "tokenId",
              "type": "uint256"
            },
            {
              "internalType": "uint256",
              "name": "price",
              "type": "uint256"
            },
            {
              "internalType": "address",
              "name": "creator",
              "type": "address"
            },
            {
              "internalType": "bool",
              "name": "isListed",
              "type": "bool"
            },
            {
              "internalType": "uint256",
              "name": "status",
              "type": "uint256"
            }
          ],
          "internalType": "struct NftMarket.NftItem",
          "name": "",
          "type": "tuple"
        }
      ],
      "stateMutability": "view",
      "type": "function",
      "constant": true
    },
    {
      "inputs": [],
      "name": "listedItemsCount",
      "outputs": [
        {
          "internalType": "uint256",
          "name": "",
          "type": "uint256"
        }
      ],
      "stateMutability": "view",
      "type": "function",
      "constant": true
    },
    {
      "inputs": [
        {
          "internalType": "uint256",
          "name": "newPrice",
          "type": "uint256"
        }
      ],
      "name": "setListingPrice",
      "outputs": [],
      "stateMutability": "nonpayable",
      "type": "function"
    },
    {
      "inputs": [
        {
          "internalType": "string",
          "name": "tokenURI",
          "type": "string"
        }
      ],
      "name": "tokenURIExists",
      "outputs": [
        {
          "internalType": "bool",
          "name": "",
          "type": "bool"
        }
      ],
      "stateMutability": "view",
      "type": "function",
      "constant": true
    },
    {
      "inputs": [],
      "name": "totalSupply",
      "outputs": [
        {
          "internalType": "uint256",
          "name": "",
          "type": "uint256"
        }
      ],
      "stateMutability": "view",
      "type": "function",
      "constant": true
    },
    {
      "inputs": [
        {
          "internalType": "uint256",
          "name": "index",
          "type": "uint256"
        }
      ],
      "name": "tokenByIndex",
      "outputs": [
        {
          "internalType": "uint256",
          "name": "",
          "type": "uint256"
        }
      ],
      "stateMutability": "view",
      "type": "function",
      "constant": true
    },
    {
      "inputs": [
        {
          "internalType": "string",
          "name": "tokenURI",
          "type": "string"
        },
        {
          "internalType": "uint256",
          "name": "price",
          "type": "uint256"
        }
      ],
      "name": "mintToken",
      "outputs": [
        {
          "internalType": "uint256",
          "name": "",
          "type": "uint256"
        }
      ],
      "stateMutability": "payable",
      "type": "function",
      "payable": true
    },
    {
      "inputs": [
        {
          "internalType": "uint256",
          "name": "tokenId",
          "type": "uint256"
        },
        {
          "internalType": "string",
          "name": "uri",
          "type": "string"
        }
      ],
      "name": "updateUri",
      "outputs": [],
      "stateMutability": "nonpayable",
      "type": "function"
    },
    {
      "inputs": [
        {
          "internalType": "uint256",
          "name": "tokenId",
          "type": "uint256"
        },
        {
          "internalType": "uint256",
          "name": "status",
          "type": "uint256"
        }
      ],
      "name": "updateStatus",
      "outputs": [],
      "stateMutability": "nonpayable",
      "type": "function"
    },
    {
      "inputs": [],
      "name": "getAllNftsOnSale",
      "outputs": [
        {
          "components": [
            {
              "internalType": "uint256",
              "name": "tokenId",
              "type": "uint256"
            },
            {
              "internalType": "uint256",
              "name": "price",
              "type": "uint256"
            },
            {
              "internalType": "address",
              "name": "creator",
              "type": "address"
            },
            {
              "internalType": "bool",
              "name": "isListed",
              "type": "bool"
            },
            {
              "internalType": "uint256",
              "name": "status",
              "type": "uint256"
            }
          ],
          "internalType": "struct NftMarket.NftItem[]",
          "name": "",
          "type": "tuple[]"
        }
      ],
      "stateMutability": "view",
      "type": "function",
      "constant": true
    },
    {
      "inputs": [],
      "name": "getOwnedNfts",
      "outputs": [
        {
          "components": [
            {
              "internalType": "uint256",
              "name": "tokenId",
              "type": "uint256"
            },
            {
              "internalType": "uint256",
              "name": "price",
              "type": "uint256"
            },
            {
              "internalType": "address",
              "name": "creator",
              "type": "address"
            },
            {
              "internalType": "bool",
              "name": "isListed",
              "type": "bool"
            },
            {
              "internalType": "uint256",
              "name": "status",
              "type": "uint256"
            }
          ],
          "internalType": "struct NftMarket.NftItem[]",
          "name": "",
          "type": "tuple[]"
        }
      ],
      "stateMutability": "view",
      "type": "function",
      "constant": true
    },
    {
      "inputs": [
        {
          "internalType": "uint256",
          "name": "tokenId",
          "type": "uint256"
        },
        {
          "internalType": "address",
          "name": "user",
          "type": "address"
        }
      ],
      "name": "transferTo",
      "outputs": [],
      "stateMutability": "nonpayable",
      "type": "function"
    },
    {
      "inputs": [
        {
          "internalType": "uint256",
          "name": "tokenId",
          "type": "uint256"
        }
      ],
      "name": "buyNft",
      "outputs": [],
      "stateMutability": "payable",
      "type": "function",
      "payable": true
    },
    {
      "inputs": [
        {
          "internalType": "address",
          "name": "owner",
          "type": "address"
        },
        {
          "internalType": "uint256",
          "name": "index",
          "type": "uint256"
        }
      ],
      "name": "tokenOfOwnerByIndex",
      "outputs": [
        {
          "internalType": "uint256",
          "name": "",
          "type": "uint256"
        }
      ],
      "stateMutability": "view",
      "type": "function",
      "constant": true
    },
    {
      "inputs": [
        {
          "internalType": "uint256",
          "name": "tokenId",
          "type": "uint256"
        },
        {
          "internalType": "uint256",
          "name": "newPrice",
          "type": "uint256"
        }
      ],
      "name": "placeNftOnSale",
      "outputs": [],
      "stateMutability": "payable",
      "type": "function",
      "payable": true
    }
  ],
  "bytecode": "0x60806040526658d15e176280006014553480156200001c57600080fd5b506040518060400160405280600c81526020017f4372656174757265734e465400000000000000000000000000000000000000008152506040518060400160405280600481526020017f434e4654000000000000000000000000000000000000000000000000000000008152508160009080519060200190620000a192919062000349565b508060019080519060200190620000ba92919062000349565b505050620000dd620000d1620000fe60201b60201c565b6200010660201b60201c565b620000f833600a620001cc60201b620025881790919060201c565b62000578565b600033905090565b6000600760009054906101000a900473ffffffffffffffffffffffffffffffffffffffff16905081600760006101000a81548173ffffffffffffffffffffffffffffffffffffffff021916908373ffffffffffffffffffffffffffffffffffffffff1602179055508173ffffffffffffffffffffffffffffffffffffffff168173ffffffffffffffffffffffffffffffffffffffff167f8be0079c531659141344cd1fd0a4f28419497f9722a3daafe3b4186f6b6457e060405160405180910390a35050565b620001de82826200027f60201b60201c565b1562000221576040517f08c379a000000000000000000000000000000000000000000000000000000000815260040162000218906200045a565b60405180910390fd5b60018260000160008373ffffffffffffffffffffffffffffffffffffffff1673ffffffffffffffffffffffffffffffffffffffff16815260200190815260200160002060006101000a81548160ff0219169083151502179055505050565b60008073ffffffffffffffffffffffffffffffffffffffff168273ffffffffffffffffffffffffffffffffffffffff1603620002f2576040517f08c379a0000000000000000000000000000000000000000000000000000000008152600401620002e990620004f2565b60405180910390fd5b8260000160008373ffffffffffffffffffffffffffffffffffffffff1673ffffffffffffffffffffffffffffffffffffffff16815260200190815260200160002060009054906101000a900460ff16905092915050565b828054620003579062000543565b90600052602060002090601f0160209004810192826200037b5760008555620003c7565b82601f106200039657805160ff1916838001178555620003c7565b82800160010185558215620003c7579182015b82811115620003c6578251825591602001919060010190620003a9565b5b509050620003d69190620003da565b5090565b5b80821115620003f5576000816000905550600101620003db565b5090565b600082825260208201905092915050565b7f526f6c65733a206163636f756e7420616c72656164792068617320726f6c6500600082015250565b600062000442601f83620003f9565b91506200044f826200040a565b602082019050919050565b60006020820190508181036000830152620004758162000433565b9050919050565b7f526f6c65733a206163636f756e7420697320746865207a65726f20616464726560008201527f7373000000000000000000000000000000000000000000000000000000000000602082015250565b6000620004da602283620003f9565b9150620004e7826200047c565b604082019050919050565b600060208201905081810360008301526200050d81620004cb565b9050919050565b7f4e487b7100000000000000000000000000000000000000000000000000000000600052602260045260246000fd5b600060028204905060018216806200055c57607f821691505b60208210810362000572576200057162000514565b5b50919050565b615da980620005886000396000f3fe6080604052600436106102305760003560e01c80636386c1c71161012e578063b88d4fde116100ab578063cd274a401161006f578063cd274a4014610898578063d4822fbf146108c1578063e2f31829146108ea578063e985e9c514610913578063f2fde38b1461095057610230565b8063b88d4fde146107ac578063c046372c146107d5578063c78f19f914610805578063c87b56dd14610830578063ccb4918d1461086d57610230565b80637c726b69116100f25780637c726b69146106db5780638da5cb5b1461070457806395d89b411461072f578063a22cb4651461075a578063b7dfcbee1461078357610230565b80636386c1c7146105e05780636f1a0af51461061f57806370a082311461065c57806370cbcb4314610699578063715018a6146106c457610230565b8063243adbdd116101bc5780634209fff1116101805780634209fff1146104c357806342842e0e1461050057806343d32ae7146105295780634f6ccce7146105665780636352211e146105a357610230565b8063243adbdd146103c557806324d7806c146103e15780632f745c591461041e578063331052181461045b57806336b536be1461049857610230565b8063095ea7b311610203578063095ea7b31461030357806318160ddd1461032c5780631bfe03081461035757806321f422e51461038057806323b872dd1461039c57610230565b806301ffc9a714610235578063057512041461027257806306fdde031461029b578063081812fc146102c6575b600080fd5b34801561024157600080fd5b5061025c60048036038101906102579190613ff9565b610979565b6040516102699190614041565b60405180910390f35b34801561027e57600080fd5b50610299600480360381019061029491906141d8565b6109da565b005b3480156102a757600080fd5b506102b06109e8565b6040516102bd91906142bc565b60405180910390f35b3480156102d257600080fd5b506102ed60048036038101906102e891906142de565b610a7a565b6040516102fa919061434c565b60405180910390f35b34801561030f57600080fd5b5061032a60048036038101906103259190614393565b610ac0565b005b34801561033857600080fd5b50610341610bd7565b60405161034e91906143e2565b60405180910390f35b34801561036357600080fd5b5061037e600480360381019061037991906143fd565b610be4565b005b61039a60048036038101906103959190614459565b610e00565b005b3480156103a857600080fd5b506103c360048036038101906103be9190614499565b610f7c565b005b6103df60048036038101906103da91906142de565b610fdc565b005b3480156103ed57600080fd5b50610408600480360381019061040391906144ec565b611144565b6040516104159190614041565b60405180910390f35b34801561042a57600080fd5b5061044560048036038101906104409190614393565b611161565b60405161045291906143e2565b60405180910390f35b34801561046757600080fd5b50610482600480360381019061047d91906144ec565b611206565b60405161048f9190614041565b60405180910390f35b3480156104a457600080fd5b506104ad611223565b6040516104ba919061465d565b60405180910390f35b3480156104cf57600080fd5b506104ea60048036038101906104e591906144ec565b611436565b6040516104f79190614041565b60405180910390f35b34801561050c57600080fd5b5061052760048036038101906105229190614499565b611453565b005b34801561053557600080fd5b50610550600480360381019061054b919061467f565b611473565b60405161055d9190614041565b60405180910390f35b34801561057257600080fd5b5061058d600480360381019061058891906142de565b6114af565b60405161059a91906143e2565b60405180910390f35b3480156105af57600080fd5b506105ca60048036038101906105c591906142de565b611520565b6040516105d7919061434c565b60405180910390f35b3480156105ec57600080fd5b50610607600480360381019061060291906144ec565b6115a6565b604051610616939291906146c8565b60405180910390f35b34801561062b57600080fd5b50610646600480360381019061064191906142de565b61181f565b604051610653919061477c565b60405180910390f35b34801561066857600080fd5b50610683600480360381019061067e91906144ec565b6118db565b60405161069091906143e2565b60405180910390f35b3480156106a557600080fd5b506106ae611992565b6040516106bb919061465d565b60405180910390f35b3480156106d057600080fd5b506106d9611b00565b005b3480156106e757600080fd5b5061070260048036038101906106fd91906142de565b611b14565b005b34801561071057600080fd5b50610719611b69565b604051610726919061434c565b60405180910390f35b34801561073b57600080fd5b50610744611b93565b60405161075191906142bc565b60405180910390f35b34801561076657600080fd5b50610781600480360381019061077c91906147c3565b611c25565b005b34801561078f57600080fd5b506107aa60048036038101906107a591906143fd565b611c3b565b005b3480156107b857600080fd5b506107d360048036038101906107ce91906148a4565b611e6b565b005b6107ef60048036038101906107ea9190614927565b611ecd565b6040516107fc91906143e2565b60405180910390f35b34801561081157600080fd5b5061081a611f9a565b60405161082791906143e2565b60405180910390f35b34801561083c57600080fd5b50610857600480360381019061085291906142de565b611fa0565b60405161086491906142bc565b60405180910390f35b34801561087957600080fd5b506108826120b2565b60405161088f91906143e2565b60405180910390f35b3480156108a457600080fd5b506108bf60048036038101906108ba9190614983565b6120c3565b005b3480156108cd57600080fd5b506108e860048036038101906108e39190614a6e565b612400565b005b3480156108f657600080fd5b50610911600480360381019061090c9190614459565b61244c565b005b34801561091f57600080fd5b5061093a60048036038101906109359190614aae565b612471565b6040516109479190614041565b60405180910390f35b34801561095c57600080fd5b50610977600480360381019061097291906144ec565b612505565b005b6000634906490660e01b7bffffffffffffffffffffffffffffffffffffffffffffffffffffffff1916827bffffffffffffffffffffffffffffffffffffffffffffffffffffffff191614806109d357506109d282612630565b5b9050919050565b6109e48282612712565b5050565b6060600080546109f790614b1d565b80601f0160208091040260200160405190810160405280929190818152602001828054610a2390614b1d565b8015610a705780601f10610a4557610100808354040283529160200191610a70565b820191906000526020600020905b815481529060010190602001808311610a5357829003601f168201915b5050505050905090565b6000610a85826127bd565b6004600083815260200190815260200160002060009054906101000a900473ffffffffffffffffffffffffffffffffffffffff169050919050565b6000610acb82611520565b90508073ffffffffffffffffffffffffffffffffffffffff168373ffffffffffffffffffffffffffffffffffffffff1603610b3b576040517f08c379a0000000000000000000000000000000000000000000000000000000008152600401610b3290614bc0565b60405180910390fd5b8073ffffffffffffffffffffffffffffffffffffffff16610b5a612808565b73ffffffffffffffffffffffffffffffffffffffff161480610b895750610b8881610b83612808565b612471565b5b610bc8576040517f08c379a0000000000000000000000000000000000000000000000000000000008152600401610bbf90614c52565b60405180910390fd5b610bd28383612810565b505050565b6000600e80549050905090565b610bf833600a6128c990919063ffffffff16565b610c37576040517f08c379a0000000000000000000000000000000000000000000000000000000008152600401610c2e90614ce4565b60405180910390fd5b600073ffffffffffffffffffffffffffffffffffffffff168273ffffffffffffffffffffffffffffffffffffffff1603610ca6576040517f08c379a0000000000000000000000000000000000000000000000000000000008152600401610c9d90614d50565b60405180910390fd5b7f121833d5ee4fda5e1a4034c2b7be8155c158142541dea26f39122c796649233f81604051602001610cd89190614dac565b6040516020818303038152906040528051906020012003610d0c57610d0782600961299090919063ffffffff16565b610dae565b7fa729ef4e25027bc652fc8b5c4d1d902947361fa7c8e7b4905e877823f27331b381604051602001610d3e9190614dac565b6040516020818303038152906040528051906020012003610d7257610d6d82600a61299090919063ffffffff16565b610dad565b6040517f08c379a0000000000000000000000000000000000000000000000000000000008152600401610da490614e0f565b60405180910390fd5b5b8173ffffffffffffffffffffffffffffffffffffffff167fd211483f91fc6eff862467f8de606587a30c8fc9981056f051b897a418df803a82604051610df491906142bc565b60405180910390a25050565b3373ffffffffffffffffffffffffffffffffffffffff16610e2083611520565b73ffffffffffffffffffffffffffffffffffffffff1614610e76576040517f08c379a0000000000000000000000000000000000000000000000000000000008152600401610e6d90614e7b565b60405180910390fd5b600015156010600084815260200190815260200160002060020160149054906101000a900460ff16151514610ee0576040517f08c379a0000000000000000000000000000000000000000000000000000000008152600401610ed790614ee7565b60405180910390fd5b6014543414610f24576040517f08c379a0000000000000000000000000000000000000000000000000000000008152600401610f1b90614f79565b60405180910390fd5b60016010600084815260200190815260200160002060020160146101000a81548160ff021916908315150217905550806010600084815260200190815260200160002060010181905550610f78600c612a37565b5050565b610f8d610f87612808565b82612a4d565b610fcc576040517f08c379a0000000000000000000000000000000000000000000000000000000008152600401610fc39061500b565b60405180910390fd5b610fd7838383612ae2565b505050565b600060106000838152602001908152602001600020600101549050600061100283611520565b90508073ffffffffffffffffffffffffffffffffffffffff163373ffffffffffffffffffffffffffffffffffffffff1603611072576040517f08c379a000000000000000000000000000000000000000000000000000000000815260040161106990615077565b60405180910390fd5b8134146110b4576040517f08c379a00000000000000000000000000000000000000000000000000000000081526004016110ab906150e3565b60405180910390fd5b60006010600085815260200190815260200160002060020160146101000a81548160ff0219169083151502179055506110ed600c612ddb565b6110f8813385612ae2565b8073ffffffffffffffffffffffffffffffffffffffff166108fc349081150290604051600060405180830381858888f1935050505015801561113e573d6000803e3d6000fd5b50505050565b600061115a82600a6128c990919063ffffffff16565b9050919050565b600061116c836118db565b82106111ad576040517f08c379a00000000000000000000000000000000000000000000000000000000081526004016111a49061514f565b60405180910390fd5b601260008473ffffffffffffffffffffffffffffffffffffffff1673ffffffffffffffffffffffffffffffffffffffff168152602001908152602001600020600083815260200190815260200160002054905092915050565b600061121c8260096128c990919063ffffffff16565b9050919050565b6060600061122f610bd7565b90506000805b8281101561129c576000611248826114af565b9050600115156010600083815260200190815260200160002060020160149054906101000a900460ff161515036112885782806112849061519e565b9350505b5080806112949061519e565b915050611235565b5060008167ffffffffffffffff8111156112b9576112b86140ad565b5b6040519080825280602002602001820160405280156112f257816020015b6112df613ea3565b8152602001906001900390816112d75790505b5090506000805b8481101561142b57600061130c826114af565b9050600115156010600083815260200190815260200160002060020160149054906101000a900460ff1615150361141757601060008281526020019081526020016000206040518060a001604052908160008201548152602001600182015481526020016002820160009054906101000a900473ffffffffffffffffffffffffffffffffffffffff1673ffffffffffffffffffffffffffffffffffffffff1673ffffffffffffffffffffffffffffffffffffffff1681526020016002820160149054906101000a900460ff161515151581526020016003820154815250508484815181106113fd576113fc6151e6565b5b602002602001018190525082806114139061519e565b9350505b5080806114239061519e565b9150506112f9565b508194505050505090565b600061144c8260086128c990919063ffffffff16565b9050919050565b61146e83838360405180602001604052806000815250611e6b565b505050565b600060011515600f836040516114899190614dac565b908152602001604051809103902060009054906101000a900460ff161515149050919050565b60006114b9610bd7565b82106114fa576040517f08c379a00000000000000000000000000000000000000000000000000000000081526004016114f19061514f565b60405180910390fd5b600e828154811061150e5761150d6151e6565b5b90600052602060002001549050919050565b60008061152c83612e37565b9050600073ffffffffffffffffffffffffffffffffffffffff168173ffffffffffffffffffffffffffffffffffffffff160361159d576040517f08c379a000000000000000000000000000000000000000000000000000000000815260040161159490615261565b60405180910390fd5b80915050919050565b60608060606115bf8460086128c990919063ffffffff16565b6115fe576040517f08c379a00000000000000000000000000000000000000000000000000000000081526004016115f5906152cd565b60405180910390fd5b6000600b60008673ffffffffffffffffffffffffffffffffffffffff1673ffffffffffffffffffffffffffffffffffffffff16815260200190815260200160002060405180606001604052908160008201805461165a90614b1d565b80601f016020809104026020016040519081016040528092919081815260200182805461168690614b1d565b80156116d35780601f106116a8576101008083540402835291602001916116d3565b820191906000526020600020905b8154815290600101906020018083116116b657829003601f168201915b505050505081526020016001820180546116ec90614b1d565b80601f016020809104026020016040519081016040528092919081815260200182805461171890614b1d565b80156117655780601f1061173a57610100808354040283529160200191611765565b820191906000526020600020905b81548152906001019060200180831161174857829003601f168201915b5050505050815260200160028201805461177e90614b1d565b80601f01602080910402602001604051908101604052809291908181526020018280546117aa90614b1d565b80156117f75780601f106117cc576101008083540402835291602001916117f7565b820191906000526020600020905b8154815290600101906020018083116117da57829003601f168201915b5050505050815250509050806000015181602001518260400151935093509350509193909250565b611827613ea3565b601060008381526020019081526020016000206040518060a001604052908160008201548152602001600182015481526020016002820160009054906101000a900473ffffffffffffffffffffffffffffffffffffffff1673ffffffffffffffffffffffffffffffffffffffff1673ffffffffffffffffffffffffffffffffffffffff1681526020016002820160149054906101000a900460ff161515151581526020016003820154815250509050919050565b60008073ffffffffffffffffffffffffffffffffffffffff168273ffffffffffffffffffffffffffffffffffffffff160361194b576040517f08c379a00000000000000000000000000000000000000000000000000000000081526004016119429061535f565b60405180910390fd5b600360008373ffffffffffffffffffffffffffffffffffffffff1673ffffffffffffffffffffffffffffffffffffffff168152602001908152602001600020549050919050565b6060600061199f336118db565b905060008167ffffffffffffffff8111156119bd576119bc6140ad565b5b6040519080825280602002602001820160405280156119f657816020015b6119e3613ea3565b8152602001906001900390816119db5790505b50905060005b82811015611af7576000611a103383611161565b90506000601060008381526020019081526020016000209050806040518060a001604052908160008201548152602001600182015481526020016002820160009054906101000a900473ffffffffffffffffffffffffffffffffffffffff1673ffffffffffffffffffffffffffffffffffffffff1673ffffffffffffffffffffffffffffffffffffffff1681526020016002820160149054906101000a900460ff16151515158152602001600382015481525050848481518110611ad757611ad66151e6565b5b602002602001018190525050508080611aef9061519e565b9150506119fc565b50809250505090565b611b08612e74565b611b126000612ef2565b565b611b1c612e74565b60008111611b5f576040517f08c379a0000000000000000000000000000000000000000000000000000000008152600401611b56906153cb565b60405180910390fd5b8060148190555050565b6000600760009054906101000a900473ffffffffffffffffffffffffffffffffffffffff16905090565b606060018054611ba290614b1d565b80601f0160208091040260200160405190810160405280929190818152602001828054611bce90614b1d565b8015611c1b5780601f10611bf057610100808354040283529160200191611c1b565b820191906000526020600020905b815481529060010190602001808311611bfe57829003601f168201915b5050505050905090565b611c37611c30612808565b8383612fb8565b5050565b600073ffffffffffffffffffffffffffffffffffffffff168273ffffffffffffffffffffffffffffffffffffffff1603611caa576040517f08c379a0000000000000000000000000000000000000000000000000000000008152600401611ca190614d50565b60405180910390fd5b7fa48c898f5241be426b79d4b5a3c206f9c9a06576e1b72c338c3ec849771d568681604051602001611cdc9190614dac565b6040516020818303038152906040528051906020012003611d1057611d0b82600961258890919063ffffffff16565b611e19565b7fdf8b4c520ffe197c5343c6f5aec59570151ef9a492f2c624fd45ddde6135ec4281604051602001611d429190614dac565b6040516020818303038152906040528051906020012003611d7657611d7182600a61258890919063ffffffff16565b611e18565b7f2db9fd3d099848027c2383d0a083396f6c41510d7acfd92adc99b6cffcf31e9681604051602001611da89190614dac565b6040516020818303038152906040528051906020012003611ddc57611dd782600861258890919063ffffffff16565b611e17565b6040517f08c379a0000000000000000000000000000000000000000000000000000000008152600401611e0e90614e0f565b60405180910390fd5b5b5b8173ffffffffffffffffffffffffffffffffffffffff167f3565795c2fb8842c21347d277937778bbcfe788b5b4f790fc5e408786cbe9c9082604051611e5f91906142bc565b60405180910390a25050565b611e7c611e76612808565b83612a4d565b611ebb576040517f08c379a0000000000000000000000000000000000000000000000000000000008152600401611eb29061500b565b60405180910390fd5b611ec784848484613124565b50505050565b6000611ed883611473565b15611f18576040517f08c379a0000000000000000000000000000000000000000000000000000000008152600401611f0f90615437565b60405180910390fd5b611f22600d612a37565b611f2c600c612a37565b6000611f38600d613180565b9050611f44338261318e565b611f4e8185612712565b611f598185856131ac565b6001600f85604051611f6b9190614dac565b908152602001604051809103902060006101000a81548160ff0219169083151502179055508091505092915050565b60145481565b6060611fab826127bd565b6000600660008481526020019081526020016000208054611fcb90614b1d565b80601f0160208091040260200160405190810160405280929190818152602001828054611ff790614b1d565b80156120445780601f1061201957610100808354040283529160200191612044565b820191906000526020600020905b81548152906001019060200180831161202757829003601f168201915b505050505090506000612055613310565b9050600081510361206a5781925050506120ad565b60008251111561209f578082604051602001612087929190615457565b604051602081830303815290604052925050506120ad565b6120a884613327565b925050505b919050565b60006120be600c613180565b905090565b600073ffffffffffffffffffffffffffffffffffffffff168573ffffffffffffffffffffffffffffffffffffffff1603612132576040517f08c379a000000000000000000000000000000000000000000000000000000000815260040161212990614d50565b60405180910390fd5b6121468560086128c990919063ffffffff16565b15612186576040517f08c379a000000000000000000000000000000000000000000000000000000000815260040161217d906154c7565b60405180910390fd5b604051806060016040528085815260200184815260200183815250600b60008773ffffffffffffffffffffffffffffffffffffffff1673ffffffffffffffffffffffffffffffffffffffff16815260200190815260200160002060008201518160000190805190602001906121fc929190613eea565b506020820151816001019080519060200190612219929190613eea565b506040820151816002019080519060200190612236929190613eea565b509050507fa48c898f5241be426b79d4b5a3c206f9c9a06576e1b72c338c3ec849771d56868160405160200161226c9190614dac565b60405160208183030381529060405280519060200120036122a05761229b85600961258890919063ffffffff16565b6123a9565b7fdf8b4c520ffe197c5343c6f5aec59570151ef9a492f2c624fd45ddde6135ec42816040516020016122d29190614dac565b60405160208183030381529060405280519060200120036123065761230185600a61258890919063ffffffff16565b6123a8565b7f2db9fd3d099848027c2383d0a083396f6c41510d7acfd92adc99b6cffcf31e96816040516020016123389190614dac565b604051602081830303815290604052805190602001200361236c5761236785600861258890919063ffffffff16565b6123a7565b6040517f08c379a000000000000000000000000000000000000000000000000000000000815260040161239e90614e0f565b60405180910390fd5b5b5b8473ffffffffffffffffffffffffffffffffffffffff167f8eab1db142a914aff8b515eedb9177bd7effaef6d714c41e30bdf1520677860785856040516123f19291906154e7565b60405180910390a25050505050565b60016010600084815260200190815260200160002060020160146101000a81548160ff021916908315150217905550600061243a83611520565b9050612447818385612ae2565b505050565b6000601060008481526020019081526020016000209050818160030181905550505050565b6000600560008473ffffffffffffffffffffffffffffffffffffffff1673ffffffffffffffffffffffffffffffffffffffff16815260200190815260200160002060008373ffffffffffffffffffffffffffffffffffffffff1673ffffffffffffffffffffffffffffffffffffffff16815260200190815260200160002060009054906101000a900460ff16905092915050565b61250d612e74565b600073ffffffffffffffffffffffffffffffffffffffff168173ffffffffffffffffffffffffffffffffffffffff160361257c576040517f08c379a000000000000000000000000000000000000000000000000000000000815260040161257390615590565b60405180910390fd5b61258581612ef2565b50565b61259282826128c9565b156125d2576040517f08c379a00000000000000000000000000000000000000000000000000000000081526004016125c9906155fc565b60405180910390fd5b60018260000160008373ffffffffffffffffffffffffffffffffffffffff1673ffffffffffffffffffffffffffffffffffffffff16815260200190815260200160002060006101000a81548160ff0219169083151502179055505050565b60007f80ac58cd000000000000000000000000000000000000000000000000000000007bffffffffffffffffffffffffffffffffffffffffffffffffffffffff1916827bffffffffffffffffffffffffffffffffffffffffffffffffffffffff191614806126fb57507f5b5e139f000000000000000000000000000000000000000000000000000000007bffffffffffffffffffffffffffffffffffffffffffffffffffffffff1916827bffffffffffffffffffffffffffffffffffffffffffffffffffffffff1916145b8061270b575061270a8261338f565b5b9050919050565b61271b826133f9565b61275a576040517f08c379a00000000000000000000000000000000000000000000000000000000081526004016127519061568e565b60405180910390fd5b80600660008481526020019081526020016000209080519060200190612781929190613eea565b507ff8e1a15aba9398e019f0b49df1a4fde98ee17ae345cb5f6b5e2c27f5033e8ce7826040516127b191906143e2565b60405180910390a15050565b6127c6816133f9565b612805576040517f08c379a00000000000000000000000000000000000000000000000000000000081526004016127fc90615261565b60405180910390fd5b50565b600033905090565b816004600083815260200190815260200160002060006101000a81548173ffffffffffffffffffffffffffffffffffffffff021916908373ffffffffffffffffffffffffffffffffffffffff160217905550808273ffffffffffffffffffffffffffffffffffffffff1661288383611520565b73ffffffffffffffffffffffffffffffffffffffff167f8c5be1e5ebec7d5bd14f71427d1e84f3dd0314c0f7b2291e5b200ac8c7c3b92560405160405180910390a45050565b60008073ffffffffffffffffffffffffffffffffffffffff168273ffffffffffffffffffffffffffffffffffffffff1603612939576040517f08c379a000000000000000000000000000000000000000000000000000000000815260040161293090615720565b60405180910390fd5b8260000160008373ffffffffffffffffffffffffffffffffffffffff1673ffffffffffffffffffffffffffffffffffffffff16815260200190815260200160002060009054906101000a900460ff16905092915050565b61299a82826128c9565b6129d9576040517f08c379a00000000000000000000000000000000000000000000000000000000081526004016129d0906157b2565b60405180910390fd5b60008260000160008373ffffffffffffffffffffffffffffffffffffffff1673ffffffffffffffffffffffffffffffffffffffff16815260200190815260200160002060006101000a81548160ff0219169083151502179055505050565b6001816000016000828254019250508190555050565b600080612a5983611520565b90508073ffffffffffffffffffffffffffffffffffffffff168473ffffffffffffffffffffffffffffffffffffffff161480612a9b5750612a9a8185612471565b5b80612ad957508373ffffffffffffffffffffffffffffffffffffffff16612ac184610a7a565b73ffffffffffffffffffffffffffffffffffffffff16145b91505092915050565b8273ffffffffffffffffffffffffffffffffffffffff16612b0282611520565b73ffffffffffffffffffffffffffffffffffffffff1614612b58576040517f08c379a0000000000000000000000000000000000000000000000000000000008152600401612b4f90615844565b60405180910390fd5b600073ffffffffffffffffffffffffffffffffffffffff168273ffffffffffffffffffffffffffffffffffffffff1603612bc7576040517f08c379a0000000000000000000000000000000000000000000000000000000008152600401612bbe906158d6565b60405180910390fd5b612bd4838383600161343a565b8273ffffffffffffffffffffffffffffffffffffffff16612bf482611520565b73ffffffffffffffffffffffffffffffffffffffff1614612c4a576040517f08c379a0000000000000000000000000000000000000000000000000000000008152600401612c4190615844565b60405180910390fd5b6004600082815260200190815260200160002060006101000a81549073ffffffffffffffffffffffffffffffffffffffff02191690556001600360008573ffffffffffffffffffffffffffffffffffffffff1673ffffffffffffffffffffffffffffffffffffffff168152602001908152602001600020600082825403925050819055506001600360008473ffffffffffffffffffffffffffffffffffffffff1673ffffffffffffffffffffffffffffffffffffffff16815260200190815260200160002060008282540192505081905550816002600083815260200190815260200160002060006101000a81548173ffffffffffffffffffffffffffffffffffffffff021916908373ffffffffffffffffffffffffffffffffffffffff160217905550808273ffffffffffffffffffffffffffffffffffffffff168473ffffffffffffffffffffffffffffffffffffffff167fddf252ad1be2c89b69c2b068fc378daa952ba7f163c4a11628f55a4df523b3ef60405160405180910390a4612dd6838383600161354e565b505050565b60008160000154905060008111612e27576040517f08c379a0000000000000000000000000000000000000000000000000000000008152600401612e1e90615942565b60405180910390fd5b6001810382600001819055505050565b60006002600083815260200190815260200160002060009054906101000a900473ffffffffffffffffffffffffffffffffffffffff169050919050565b612e7c612808565b73ffffffffffffffffffffffffffffffffffffffff16612e9a611b69565b73ffffffffffffffffffffffffffffffffffffffff1614612ef0576040517f08c379a0000000000000000000000000000000000000000000000000000000008152600401612ee7906159ae565b60405180910390fd5b565b6000600760009054906101000a900473ffffffffffffffffffffffffffffffffffffffff16905081600760006101000a81548173ffffffffffffffffffffffffffffffffffffffff021916908373ffffffffffffffffffffffffffffffffffffffff1602179055508173ffffffffffffffffffffffffffffffffffffffff168173ffffffffffffffffffffffffffffffffffffffff167f8be0079c531659141344cd1fd0a4f28419497f9722a3daafe3b4186f6b6457e060405160405180910390a35050565b8173ffffffffffffffffffffffffffffffffffffffff168373ffffffffffffffffffffffffffffffffffffffff1603613026576040517f08c379a000000000000000000000000000000000000000000000000000000000815260040161301d90615a1a565b60405180910390fd5b80600560008573ffffffffffffffffffffffffffffffffffffffff1673ffffffffffffffffffffffffffffffffffffffff16815260200190815260200160002060008473ffffffffffffffffffffffffffffffffffffffff1673ffffffffffffffffffffffffffffffffffffffff16815260200190815260200160002060006101000a81548160ff0219169083151502179055508173ffffffffffffffffffffffffffffffffffffffff168373ffffffffffffffffffffffffffffffffffffffff167f17307eab39ab6107e8899845ad3d59bd9653f200f220920489ca2b5937696c31836040516131179190614041565b60405180910390a3505050565b61312f848484612ae2565b61313b84848484613554565b61317a576040517f08c379a000000000000000000000000000000000000000000000000000000000815260040161317190615aac565b60405180910390fd5b50505050565b600081600001549050919050565b6131a88282604051806020016040528060008152506136db565b5050565b600081116131ef576040517f08c379a00000000000000000000000000000000000000000000000000000000081526004016131e6906153cb565b60405180910390fd5b6040518060a001604052808481526020018281526020013373ffffffffffffffffffffffffffffffffffffffff168152602001600015158152602001600181525060106000858152602001908152602001600020600082015181600001556020820151816001015560408201518160020160006101000a81548173ffffffffffffffffffffffffffffffffffffffff021916908373ffffffffffffffffffffffffffffffffffffffff16021790555060608201518160020160146101000a81548160ff021916908315150217905550608082015181600301559050507faaa9f369270a0a6c67736a819d20d637829db47edef52f4a0c54467b10e5cec0838383336000604051613303959493929190615acc565b60405180910390a1505050565b606060405180602001604052806000815250905090565b6060613332826127bd565b600061333c613310565b9050600081511161335c5760405180602001604052806000815250613387565b8061336684613736565b604051602001613377929190615457565b6040516020818303038152906040525b915050919050565b60007f01ffc9a7000000000000000000000000000000000000000000000000000000007bffffffffffffffffffffffffffffffffffffffffffffffffffffffff1916827bffffffffffffffffffffffffffffffffffffffffffffffffffffffff1916149050919050565b60008073ffffffffffffffffffffffffffffffffffffffff1661341b83612e37565b73ffffffffffffffffffffffffffffffffffffffff1614159050919050565b61344684848484613804565b600073ffffffffffffffffffffffffffffffffffffffff168473ffffffffffffffffffffffffffffffffffffffff1603613488576134838261380a565b6134c7565b8273ffffffffffffffffffffffffffffffffffffffff168473ffffffffffffffffffffffffffffffffffffffff16146134c6576134c58483613853565b5b5b600073ffffffffffffffffffffffffffffffffffffffff168373ffffffffffffffffffffffffffffffffffffffff160361350957613504826139c0565b613548565b8373ffffffffffffffffffffffffffffffffffffffff168373ffffffffffffffffffffffffffffffffffffffff1614613547576135468383613a91565b5b5b50505050565b50505050565b60006135758473ffffffffffffffffffffffffffffffffffffffff16613b10565b156136ce578373ffffffffffffffffffffffffffffffffffffffff1663150b7a0261359e612808565b8786866040518563ffffffff1660e01b81526004016135c09493929190615b7b565b6020604051808303816000875af19250505080156135fc57506040513d601f19601f820116820180604052508101906135f99190615bdc565b60015b61367e573d806000811461362c576040519150601f19603f3d011682016040523d82523d6000602084013e613631565b606091505b506000815103613676576040517f08c379a000000000000000000000000000000000000000000000000000000000815260040161366d90615aac565b60405180910390fd5b805181602001fd5b63150b7a0260e01b7bffffffffffffffffffffffffffffffffffffffffffffffffffffffff1916817bffffffffffffffffffffffffffffffffffffffffffffffffffffffff1916149150506136d3565b600190505b949350505050565b6136e58383613b33565b6136f26000848484613554565b613731576040517f08c379a000000000000000000000000000000000000000000000000000000000815260040161372890615aac565b60405180910390fd5b505050565b60606000600161374584613d50565b01905060008167ffffffffffffffff811115613764576137636140ad565b5b6040519080825280601f01601f1916602001820160405280156137965781602001600182028036833780820191505090505b509050600082602001820190505b6001156137f9578080600190039150507f3031323334353637383961626364656600000000000000000000000000000000600a86061a8153600a85816137ed576137ec615c09565b5b049450600085036137a4575b819350505050919050565b50505050565b600e805490506011600083815260200190815260200160002081905550600e81908060018154018082558091505060019003906000526020600020016000909190919091505550565b60006001613860846118db565b61386a9190615c38565b905060006013600084815260200190815260200160002054905081811461394f576000601260008673ffffffffffffffffffffffffffffffffffffffff1673ffffffffffffffffffffffffffffffffffffffff168152602001908152602001600020600084815260200190815260200160002054905080601260008773ffffffffffffffffffffffffffffffffffffffff1673ffffffffffffffffffffffffffffffffffffffff168152602001908152602001600020600084815260200190815260200160002081905550816013600083815260200190815260200160002081905550505b6013600084815260200190815260200160002060009055601260008573ffffffffffffffffffffffffffffffffffffffff1673ffffffffffffffffffffffffffffffffffffffff16815260200190815260200160002060008381526020019081526020016000206000905550505050565b60006001600e805490506139d49190615c38565b90506000601160008481526020019081526020016000205490506000600e8381548110613a0457613a036151e6565b5b9060005260206000200154905080600e8381548110613a2657613a256151e6565b5b90600052602060002001819055508160116000838152602001908152602001600020819055506011600085815260200190815260200160002060009055600e805480613a7557613a74615c6c565b5b6001900381819060005260206000200160009055905550505050565b6000613a9c836118db565b905081601260008573ffffffffffffffffffffffffffffffffffffffff1673ffffffffffffffffffffffffffffffffffffffff168152602001908152602001600020600083815260200190815260200160002081905550806013600084815260200190815260200160002081905550505050565b6000808273ffffffffffffffffffffffffffffffffffffffff163b119050919050565b600073ffffffffffffffffffffffffffffffffffffffff168273ffffffffffffffffffffffffffffffffffffffff1603613ba2576040517f08c379a0000000000000000000000000000000000000000000000000000000008152600401613b9990615ce7565b60405180910390fd5b613bab816133f9565b15613beb576040517f08c379a0000000000000000000000000000000000000000000000000000000008152600401613be290615d53565b60405180910390fd5b613bf960008383600161343a565b613c02816133f9565b15613c42576040517f08c379a0000000000000000000000000000000000000000000000000000000008152600401613c3990615d53565b60405180910390fd5b6001600360008473ffffffffffffffffffffffffffffffffffffffff1673ffffffffffffffffffffffffffffffffffffffff16815260200190815260200160002060008282540192505081905550816002600083815260200190815260200160002060006101000a81548173ffffffffffffffffffffffffffffffffffffffff021916908373ffffffffffffffffffffffffffffffffffffffff160217905550808273ffffffffffffffffffffffffffffffffffffffff16600073ffffffffffffffffffffffffffffffffffffffff167fddf252ad1be2c89b69c2b068fc378daa952ba7f163c4a11628f55a4df523b3ef60405160405180910390a4613d4c60008383600161354e565b5050565b600080600090507a184f03e93ff9f4daa797ed6e38ed64bf6a1f0100000000000000008310613dae577a184f03e93ff9f4daa797ed6e38ed64bf6a1f0100000000000000008381613da457613da3615c09565b5b0492506040810190505b6d04ee2d6d415b85acef81000000008310613deb576d04ee2d6d415b85acef81000000008381613de157613de0615c09565b5b0492506020810190505b662386f26fc100008310613e1a57662386f26fc100008381613e1057613e0f615c09565b5b0492506010810190505b6305f5e1008310613e43576305f5e1008381613e3957613e38615c09565b5b0492506008810190505b6127108310613e68576127108381613e5e57613e5d615c09565b5b0492506004810190505b60648310613e8b5760648381613e8157613e80615c09565b5b0492506002810190505b600a8310613e9a576001810190505b80915050919050565b6040518060a001604052806000815260200160008152602001600073ffffffffffffffffffffffffffffffffffffffff168152602001600015158152602001600081525090565b828054613ef690614b1d565b90600052602060002090601f016020900481019282613f185760008555613f5f565b82601f10613f3157805160ff1916838001178555613f5f565b82800160010185558215613f5f579182015b82811115613f5e578251825591602001919060010190613f43565b5b509050613f6c9190613f70565b5090565b5b80821115613f89576000816000905550600101613f71565b5090565b6000604051905090565b600080fd5b600080fd5b60007fffffffff0000000000000000000000000000000000000000000000000000000082169050919050565b613fd681613fa1565b8114613fe157600080fd5b50565b600081359050613ff381613fcd565b92915050565b60006020828403121561400f5761400e613f97565b5b600061401d84828501613fe4565b91505092915050565b60008115159050919050565b61403b81614026565b82525050565b60006020820190506140566000830184614032565b92915050565b6000819050919050565b61406f8161405c565b811461407a57600080fd5b50565b60008135905061408c81614066565b92915050565b600080fd5b600080fd5b6000601f19601f8301169050919050565b7f4e487b7100000000000000000000000000000000000000000000000000000000600052604160045260246000fd5b6140e58261409c565b810181811067ffffffffffffffff82111715614104576141036140ad565b5b80604052505050565b6000614117613f8d565b905061412382826140dc565b919050565b600067ffffffffffffffff821115614143576141426140ad565b5b61414c8261409c565b9050602081019050919050565b82818337600083830152505050565b600061417b61417684614128565b61410d565b90508281526020810184848401111561419757614196614097565b5b6141a2848285614159565b509392505050565b600082601f8301126141bf576141be614092565b5b81356141cf848260208601614168565b91505092915050565b600080604083850312156141ef576141ee613f97565b5b60006141fd8582860161407d565b925050602083013567ffffffffffffffff81111561421e5761421d613f9c565b5b61422a858286016141aa565b9150509250929050565b600081519050919050565b600082825260208201905092915050565b60005b8381101561426e578082015181840152602081019050614253565b8381111561427d576000848401525b50505050565b600061428e82614234565b614298818561423f565b93506142a8818560208601614250565b6142b18161409c565b840191505092915050565b600060208201905081810360008301526142d68184614283565b905092915050565b6000602082840312156142f4576142f3613f97565b5b60006143028482850161407d565b91505092915050565b600073ffffffffffffffffffffffffffffffffffffffff82169050919050565b60006143368261430b565b9050919050565b6143468161432b565b82525050565b6000602082019050614361600083018461433d565b92915050565b6143708161432b565b811461437b57600080fd5b50565b60008135905061438d81614367565b92915050565b600080604083850312156143aa576143a9613f97565b5b60006143b88582860161437e565b92505060206143c98582860161407d565b9150509250929050565b6143dc8161405c565b82525050565b60006020820190506143f760008301846143d3565b92915050565b6000806040838503121561441457614413613f97565b5b60006144228582860161437e565b925050602083013567ffffffffffffffff81111561444357614442613f9c565b5b61444f858286016141aa565b9150509250929050565b600080604083850312156144705761446f613f97565b5b600061447e8582860161407d565b925050602061448f8582860161407d565b9150509250929050565b6000806000606084860312156144b2576144b1613f97565b5b60006144c08682870161437e565b93505060206144d18682870161437e565b92505060406144e28682870161407d565b9150509250925092565b60006020828403121561450257614501613f97565b5b60006145108482850161437e565b91505092915050565b600081519050919050565b600082825260208201905092915050565b6000819050602082019050919050565b61454e8161405c565b82525050565b61455d8161432b565b82525050565b61456c81614026565b82525050565b60a0820160008201516145886000850182614545565b50602082015161459b6020850182614545565b5060408201516145ae6040850182614554565b5060608201516145c16060850182614563565b5060808201516145d46080850182614545565b50505050565b60006145e68383614572565b60a08301905092915050565b6000602082019050919050565b600061460a82614519565b6146148185614524565b935061461f83614535565b8060005b8381101561465057815161463788826145da565b9750614642836145f2565b925050600181019050614623565b5085935050505092915050565b6000602082019050818103600083015261467781846145ff565b905092915050565b60006020828403121561469557614694613f97565b5b600082013567ffffffffffffffff8111156146b3576146b2613f9c565b5b6146bf848285016141aa565b91505092915050565b600060608201905081810360008301526146e28186614283565b905081810360208301526146f68185614283565b9050818103604083015261470a8184614283565b9050949350505050565b60a08201600082015161472a6000850182614545565b50602082015161473d6020850182614545565b5060408201516147506040850182614554565b5060608201516147636060850182614563565b5060808201516147766080850182614545565b50505050565b600060a0820190506147916000830184614714565b92915050565b6147a081614026565b81146147ab57600080fd5b50565b6000813590506147bd81614797565b92915050565b600080604083850312156147da576147d9613f97565b5b60006147e88582860161437e565b92505060206147f9858286016147ae565b9150509250929050565b600067ffffffffffffffff82111561481e5761481d6140ad565b5b6148278261409c565b9050602081019050919050565b600061484761484284614803565b61410d565b90508281526020810184848401111561486357614862614097565b5b61486e848285614159565b509392505050565b600082601f83011261488b5761488a614092565b5b813561489b848260208601614834565b91505092915050565b600080600080608085870312156148be576148bd613f97565b5b60006148cc8782880161437e565b94505060206148dd8782880161437e565b93505060406148ee8782880161407d565b925050606085013567ffffffffffffffff81111561490f5761490e613f9c565b5b61491b87828801614876565b91505092959194509250565b6000806040838503121561493e5761493d613f97565b5b600083013567ffffffffffffffff81111561495c5761495b613f9c565b5b614968858286016141aa565b92505060206149798582860161407d565b9150509250929050565b600080600080600060a0868803121561499f5761499e613f97565b5b60006149ad8882890161437e565b955050602086013567ffffffffffffffff8111156149ce576149cd613f9c565b5b6149da888289016141aa565b945050604086013567ffffffffffffffff8111156149fb576149fa613f9c565b5b614a07888289016141aa565b935050606086013567ffffffffffffffff811115614a2857614a27613f9c565b5b614a34888289016141aa565b925050608086013567ffffffffffffffff811115614a5557614a54613f9c565b5b614a61888289016141aa565b9150509295509295909350565b60008060408385031215614a8557614a84613f97565b5b6000614a938582860161407d565b9250506020614aa48582860161437e565b9150509250929050565b60008060408385031215614ac557614ac4613f97565b5b6000614ad38582860161437e565b9250506020614ae48582860161437e565b9150509250929050565b7f4e487b7100000000000000000000000000000000000000000000000000000000600052602260045260246000fd5b60006002820490506001821680614b3557607f821691505b602082108103614b4857614b47614aee565b5b50919050565b7f4552433732313a20617070726f76616c20746f2063757272656e74206f776e6560008201527f7200000000000000000000000000000000000000000000000000000000000000602082015250565b6000614baa60218361423f565b9150614bb582614b4e565b604082019050919050565b60006020820190508181036000830152614bd981614b9d565b9050919050565b7f4552433732313a20617070726f76652063616c6c6572206973206e6f7420746f60008201527f6b656e206f776e6572206f7220617070726f76656420666f7220616c6c000000602082015250565b6000614c3c603d8361423f565b9150614c4782614be0565b604082019050919050565b60006020820190508181036000830152614c6b81614c2f565b9050919050565b7f4f6e6c792061646d696e2063616e20706572666f726d2074686973206163746960008201527f6f6e000000000000000000000000000000000000000000000000000000000000602082015250565b6000614cce60228361423f565b9150614cd982614c72565b604082019050919050565b60006020820190508181036000830152614cfd81614cc1565b9050919050565b7f496e76616c696420616464726573730000000000000000000000000000000000600082015250565b6000614d3a600f8361423f565b9150614d4582614d04565b602082019050919050565b60006020820190508181036000830152614d6981614d2d565b9050919050565b600081905092915050565b6000614d8682614234565b614d908185614d70565b9350614da0818560208601614250565b80840191505092915050565b6000614db88284614d7b565b915081905092915050565b7f496e76616c696420726f6c650000000000000000000000000000000000000000600082015250565b6000614df9600c8361423f565b9150614e0482614dc3565b602082019050919050565b60006020820190508181036000830152614e2881614dec565b9050919050565b7f596f7520617265206e6f74206f776e6572206f662074686973206e6674000000600082015250565b6000614e65601d8361423f565b9150614e7082614e2f565b602082019050919050565b60006020820190508181036000830152614e9481614e58565b9050919050565b7f4974656d20697320616c7265616479206f6e2073616c65000000000000000000600082015250565b6000614ed160178361423f565b9150614edc82614e9b565b602082019050919050565b60006020820190508181036000830152614f0081614ec4565b9050919050565b7f5072696365206d75737420626520657175616c20746f206c697374696e67207060008201527f7269636500000000000000000000000000000000000000000000000000000000602082015250565b6000614f6360248361423f565b9150614f6e82614f07565b604082019050919050565b60006020820190508181036000830152614f9281614f56565b9050919050565b7f4552433732313a2063616c6c6572206973206e6f7420746f6b656e206f776e6560008201527f72206f7220617070726f76656400000000000000000000000000000000000000602082015250565b6000614ff5602d8361423f565b915061500082614f99565b604082019050919050565b6000602082019050818103600083015261502481614fe8565b9050919050565b7f596f7520616c7265616479206f776e2074686973204e46540000000000000000600082015250565b600061506160188361423f565b915061506c8261502b565b602082019050919050565b6000602082019050818103600083015261509081615054565b9050919050565b7f506c65617365207375626d6974207468652061736b696e672070726963650000600082015250565b60006150cd601e8361423f565b91506150d882615097565b602082019050919050565b600060208201905081810360008301526150fc816150c0565b9050919050565b7f496e646578206f7574206f6620626f756e647300000000000000000000000000600082015250565b600061513960138361423f565b915061514482615103565b602082019050919050565b600060208201905081810360008301526151688161512c565b9050919050565b7f4e487b7100000000000000000000000000000000000000000000000000000000600052601160045260246000fd5b60006151a98261405c565b91507fffffffffffffffffffffffffffffffffffffffffffffffffffffffffffffffff82036151db576151da61516f565b5b600182019050919050565b7f4e487b7100000000000000000000000000000000000000000000000000000000600052603260045260246000fd5b7f4552433732313a20696e76616c696420746f6b656e2049440000000000000000600082015250565b600061524b60188361423f565b915061525682615215565b602082019050919050565b6000602082019050818103600083015261527a8161523e565b9050919050565b7f5573657220646f6573206e6f7420657869737400000000000000000000000000600082015250565b60006152b760138361423f565b91506152c282615281565b602082019050919050565b600060208201905081810360008301526152e6816152aa565b9050919050565b7f4552433732313a2061646472657373207a65726f206973206e6f74206120766160008201527f6c6964206f776e65720000000000000000000000000000000000000000000000602082015250565b600061534960298361423f565b9150615354826152ed565b604082019050919050565b600060208201905081810360008301526153788161533c565b9050919050565b7f5072696365206d757374206265206174206c6561737420312077656900000000600082015250565b60006153b5601c8361423f565b91506153c08261537f565b602082019050919050565b600060208201905081810360008301526153e4816153a8565b9050919050565b7f546f6b656e2055524920616c7265616479206578697374730000000000000000600082015250565b600061542160188361423f565b915061542c826153eb565b602082019050919050565b6000602082019050818103600083015261545081615414565b9050919050565b60006154638285614d7b565b915061546f8284614d7b565b91508190509392505050565b7f5573657220616c72656164792065786973747300000000000000000000000000600082015250565b60006154b160138361423f565b91506154bc8261547b565b602082019050919050565b600060208201905081810360008301526154e0816154a4565b9050919050565b600060408201905081810360008301526155018185614283565b905081810360208301526155158184614283565b90509392505050565b7f4f776e61626c653a206e6577206f776e657220697320746865207a65726f206160008201527f6464726573730000000000000000000000000000000000000000000000000000602082015250565b600061557a60268361423f565b91506155858261551e565b604082019050919050565b600060208201905081810360008301526155a98161556d565b9050919050565b7f526f6c65733a206163636f756e7420616c72656164792068617320726f6c6500600082015250565b60006155e6601f8361423f565b91506155f1826155b0565b602082019050919050565b60006020820190508181036000830152615615816155d9565b9050919050565b7f45524337323155524953746f726167653a2055524920736574206f66206e6f6e60008201527f6578697374656e7420746f6b656e000000000000000000000000000000000000602082015250565b6000615678602e8361423f565b91506156838261561c565b604082019050919050565b600060208201905081810360008301526156a78161566b565b9050919050565b7f526f6c65733a206163636f756e7420697320746865207a65726f20616464726560008201527f7373000000000000000000000000000000000000000000000000000000000000602082015250565b600061570a60228361423f565b9150615715826156ae565b604082019050919050565b60006020820190508181036000830152615739816156fd565b9050919050565b7f526f6c65733a206163636f756e7420646f6573206e6f74206861766520726f6c60008201527f6500000000000000000000000000000000000000000000000000000000000000602082015250565b600061579c60218361423f565b91506157a782615740565b604082019050919050565b600060208201905081810360008301526157cb8161578f565b9050919050565b7f4552433732313a207472616e736665722066726f6d20696e636f72726563742060008201527f6f776e6572000000000000000000000000000000000000000000000000000000602082015250565b600061582e60258361423f565b9150615839826157d2565b604082019050919050565b6000602082019050818103600083015261585d81615821565b9050919050565b7f4552433732313a207472616e7366657220746f20746865207a65726f2061646460008201527f7265737300000000000000000000000000000000000000000000000000000000602082015250565b60006158c060248361423f565b91506158cb82615864565b604082019050919050565b600060208201905081810360008301526158ef816158b3565b9050919050565b7f436f756e7465723a2064656372656d656e74206f766572666c6f770000000000600082015250565b600061592c601b8361423f565b9150615937826158f6565b602082019050919050565b6000602082019050818103600083015261595b8161591f565b9050919050565b7f4f776e61626c653a2063616c6c6572206973206e6f7420746865206f776e6572600082015250565b600061599860208361423f565b91506159a382615962565b602082019050919050565b600060208201905081810360008301526159c78161598b565b9050919050565b7f4552433732313a20617070726f766520746f2063616c6c657200000000000000600082015250565b6000615a0460198361423f565b9150615a0f826159ce565b602082019050919050565b60006020820190508181036000830152615a33816159f7565b9050919050565b7f4552433732313a207472616e7366657220746f206e6f6e20455243373231526560008201527f63656976657220696d706c656d656e7465720000000000000000000000000000602082015250565b6000615a9660328361423f565b9150615aa182615a3a565b604082019050919050565b60006020820190508181036000830152615ac581615a89565b9050919050565b600060a082019050615ae160008301886143d3565b8181036020830152615af38187614283565b9050615b0260408301866143d3565b615b0f606083018561433d565b615b1c6080830184614032565b9695505050505050565b600081519050919050565b600082825260208201905092915050565b6000615b4d82615b26565b615b578185615b31565b9350615b67818560208601614250565b615b708161409c565b840191505092915050565b6000608082019050615b90600083018761433d565b615b9d602083018661433d565b615baa60408301856143d3565b8181036060830152615bbc8184615b42565b905095945050505050565b600081519050615bd681613fcd565b92915050565b600060208284031215615bf257615bf1613f97565b5b6000615c0084828501615bc7565b91505092915050565b7f4e487b7100000000000000000000000000000000000000000000000000000000600052601260045260246000fd5b6000615c438261405c565b9150615c4e8361405c565b925082821015615c6157615c6061516f565b5b828203905092915050565b7f4e487b7100000000000000000000000000000000000000000000000000000000600052603160045260246000fd5b7f4552433732313a206d696e7420746f20746865207a65726f2061646472657373600082015250565b6000615cd160208361423f565b9150615cdc82615c9b565b602082019050919050565b60006020820190508181036000830152615d0081615cc4565b9050919050565b7f4552433732313a20746f6b656e20616c7265616479206d696e74656400000000600082015250565b6000615d3d601c8361423f565b9150615d4882615d07565b602082019050919050565b60006020820190508181036000830152615d6c81615d30565b905091905056fea264697066735822122051dec02b9d2fff58f15b2c480bfda3e3192bb15cb6e41b61224837f12cffbca764736f6c634300080d0033",
  "immutableReferences": {},
  "source": "// SPDX-License-Identifier: MIT\r\npragma solidity >=0.4.22 <0.9.0;\r\nimport \"@openzeppelin/contracts/token/ERC721/extensions/ERC721URIStorage.sol\";\r\nimport \"@openzeppelin/contracts/utils/Counters.sol\";\r\nimport \"@openzeppelin/contracts/access/Ownable.sol\";\r\nimport \"../contracts/access/AccessManage.sol\";\r\n\r\ncontract NftMarket is ERC721URIStorage, Ownable, AccessManage {\r\n  using Counters for Counters.Counter;\r\n\r\n  Counters.Counter private _listedItems;\r\n  Counters.Counter private _tokenIds;\r\n  uint256[] private _allNfts;\r\n\r\n  mapping(string => bool) private _usedTokenURIs;\r\n  mapping(uint => NftItem) private _idToNftItem;\r\n  mapping(uint => uint) private _idToNftIndex;\r\n  mapping(address => mapping(uint => uint)) private _ownedTokens;\r\n  mapping(uint => uint) private _idToOwnedIndex;\r\n\r\n  struct NftItem {\r\n    uint tokenId;\r\n    uint price;\r\n    address creator;\r\n    bool isListed;\r\n    uint status;\r\n  }\r\n\r\n  event NftItemCreated (\r\n    uint tokenId,\r\n    string uri,\r\n    uint price,\r\n    address creator,\r\n    bool isListed\r\n  );\r\n  uint public listingPrice = 0.025 ether;\r\n\r\n  constructor() ERC721(\"CreaturesNFT\", \"CNFT\") {}\r\n  \r\n  function getNftItem(uint tokenId) public view returns (NftItem memory) {\r\n    return _idToNftItem[tokenId];\r\n  }\r\n\r\n  function listedItemsCount() public view returns (uint) {\r\n    return _listedItems.current();\r\n  }\r\n\r\n  function setListingPrice(uint newPrice) external onlyOwner {\r\n    require(newPrice > 0, \"Price must be at least 1 wei\");\r\n    listingPrice = newPrice;\r\n  }\r\n  function tokenURIExists(string memory tokenURI) public view returns (bool) {\r\n    return _usedTokenURIs[tokenURI] == true;\r\n  }\r\n\r\n  function totalSupply() public view returns (uint) {\r\n    return _allNfts.length;\r\n  }\r\n\r\n  function tokenByIndex(uint index) public view returns (uint) {\r\n    require(index < totalSupply(), \"Index out of bounds\");\r\n    return _allNfts[index];\r\n  }\r\n  \r\n  function mintToken(string memory tokenURI, uint price) public payable returns (uint) {\r\n    //require(isVerifier(msg.sender), \"Only verifiers can access this\");    \r\n    require(!tokenURIExists(tokenURI), \"Token URI already exists\");\r\n   // require(msg.value == listingPrice, \"Price must be equal to listing price\");\r\n    _tokenIds.increment();\r\n    _listedItems.increment();\r\n\r\n    uint newTokenId = _tokenIds.current();\r\n\r\n    _safeMint(msg.sender, newTokenId);\r\n\r\n    _setTokenURI(newTokenId, tokenURI);\r\n\r\n    _createNftItem(newTokenId,tokenURI, price);\r\n    _usedTokenURIs[tokenURI] = true;\r\n    return newTokenId;\r\n  }\r\n\r\n\r\n  function updateUri(uint tokenId, string memory uri) public {\r\n    _setTokenURI(tokenId, uri);\r\n  }\r\n\r\n  function updateStatus(uint tokenId, uint status) public {\r\n    NftItem storage item = _idToNftItem[tokenId];\r\n    item.status = status;\r\n  }\r\n\r\n\r\n\r\nfunction getAllNftsOnSale() public view returns (NftItem[] memory) {\r\n    uint totalNfts = totalSupply();\r\n    uint listedNftsCount = 0;\r\n\r\n    for (uint i = 0; i < totalNfts; i++) {\r\n        uint tokenId = tokenByIndex(i);\r\n        if (_idToNftItem[tokenId].isListed == true) {\r\n            listedNftsCount++;\r\n        }\r\n    }\r\n\r\n    NftItem[] memory listedNfts = new NftItem[](listedNftsCount);\r\n    uint currentIndex = 0;\r\n\r\n    for (uint i = 0; i < totalNfts; i++) {\r\n        uint tokenId = tokenByIndex(i);\r\n        if (_idToNftItem[tokenId].isListed == true) {\r\n            listedNfts[currentIndex] = _idToNftItem[tokenId];\r\n            currentIndex++;\r\n        }\r\n    }\r\n\r\n    return listedNfts;\r\n}\r\n\r\n\r\n\r\n  function getOwnedNfts() public view returns (NftItem[] memory) {\r\n    uint ownedItemsCount = ERC721.balanceOf(msg.sender);\r\n    NftItem[] memory items = new NftItem[](ownedItemsCount);\r\n\r\n    for (uint i = 0; i < ownedItemsCount; i++) {\r\n      uint tokenId = tokenOfOwnerByIndex(msg.sender, i);\r\n      NftItem storage item = _idToNftItem[tokenId];\r\n      items[i] = item;\r\n    }\r\n\r\n    return items;\r\n  }\r\n\r\n  \r\n  function _createNftItem(\r\n    uint tokenId,\r\n    string memory uri,\r\n    uint price\r\n  ) private {\r\n    require(price > 0, \"Price must be at least 1 wei\");\r\n\r\n    _idToNftItem[tokenId] = NftItem(\r\n      tokenId,\r\n      price,\r\n      msg.sender,\r\n      false,\r\n      1\r\n    );\r\n\r\n    emit NftItemCreated(tokenId, uri, price, msg.sender, false);\r\n  }\r\n\r\n\r\n  function transferTo(uint tokenId, address user) public {\r\n    _idToNftItem[tokenId].isListed = true;\r\n      address owner = ERC721.ownerOf(tokenId);\r\n      _transfer(owner, user, tokenId);\r\n  }\r\n\r\n  function buyNft(\r\n    uint tokenId\r\n  ) public payable {\r\n    uint price = _idToNftItem[tokenId].price;\r\n    address owner = ERC721.ownerOf(tokenId);\r\n\r\n    require(msg.sender != owner, \"You already own this NFT\");\r\n    require(msg.value == price, \"Please submit the asking price\");\r\n\r\n    _idToNftItem[tokenId].isListed = false;\r\n    _listedItems.decrement();\r\n\r\n    _transfer(owner, msg.sender, tokenId);\r\n    payable(owner).transfer(msg.value);\r\n  }\r\n\r\n  function _beforeTokenTransfer(\r\n    address from,\r\n    address to,\r\n    uint tokenId,\r\n    uint256 batchSize\r\n  ) internal virtual override {\r\n    super._beforeTokenTransfer(from, to, tokenId, batchSize);\r\n\r\n    if (from == address(0)) {\r\n      _addTokenToAllTokensEnumaration(tokenId);\r\n    }else if (from != to) {\r\n      _removeTokenFromOwnerEnumeration(from, tokenId);\r\n    }\r\n     if (to == address(0)) {\r\n      _removeTokenFromAllTokensEnumeration(tokenId);\r\n    } else if (to != from) {\r\n      _addTokenToOwnerEnumaration(to, tokenId);\r\n    }\r\n  } \r\n\r\n\r\n  function _addTokenToAllTokensEnumaration(uint tokenId) private {\r\n    _idToNftIndex[tokenId] = _allNfts.length;\r\n    _allNfts.push(tokenId);\r\n  }\r\n  function _addTokenToOwnerEnumaration(address to, uint tokenId) private {\r\n    uint length = ERC721.balanceOf(to);\r\n    _ownedTokens[to][length] = tokenId;\r\n    _idToOwnedIndex[tokenId] = length;\r\n  }\r\n\r\n  function tokenOfOwnerByIndex(address owner, uint index) public view returns (uint) {\r\n    require(index < ERC721.balanceOf(owner), \"Index out of bounds\");\r\n    return _ownedTokens[owner][index];\r\n  }\r\n\r\n   function _removeTokenFromOwnerEnumeration(address from, uint tokenId) private {\r\n    uint lastTokenIndex = ERC721.balanceOf(from) - 1;\r\n    uint tokenIndex = _idToOwnedIndex[tokenId];\r\n\r\n    if (tokenIndex != lastTokenIndex) {\r\n      uint lastTokenId = _ownedTokens[from][lastTokenIndex];\r\n\r\n      _ownedTokens[from][tokenIndex] = lastTokenId;\r\n      _idToOwnedIndex[lastTokenId] = tokenIndex;\r\n    }\r\n\r\n    delete _idToOwnedIndex[tokenId];\r\n    delete _ownedTokens[from][lastTokenIndex];\r\n  }\r\n\r\n\r\n  function _removeTokenFromAllTokensEnumeration(uint tokenId) private {\r\n    uint lastTokenIndex = _allNfts.length - 1;\r\n    uint tokenIndex = _idToNftIndex[tokenId];\r\n    uint lastTokenId = _allNfts[lastTokenIndex];\r\n\r\n    _allNfts[tokenIndex] = lastTokenId;\r\n    _idToNftIndex[lastTokenId] = tokenIndex;\r\n\r\n    delete _idToNftIndex[tokenId];\r\n    _allNfts.pop();\r\n  }\r\n\r\n  function placeNftOnSale(uint tokenId, uint newPrice) public payable {\r\n    require(ERC721.ownerOf(tokenId) == msg.sender, \"You are not owner of this nft\");\r\n    require(_idToNftItem[tokenId].isListed == false, \"Item is already on sale\");\r\n    require(msg.value == listingPrice, \"Price must be equal to listing price\");\r\n\r\n    _idToNftItem[tokenId].isListed = true;\r\n    _idToNftItem[tokenId].price = newPrice;\r\n    _listedItems.increment();\r\n  }\r\n}\r\n",
  "sourcePath": "C:\\HCMUS\\KhoaLuan\\Udemy\\NFT_Marketplace\\nft_marketplace\\contracts\\NftMarket.sol",
  "compiler": {
    "name": "solc",
    "version": "0.8.13+commit.abaa5c0e.Emscripten.clang"
  },
  "schemaVersion": "3.4.16",
  "updatedAt": "2025-03-13T05:26:31.446Z",
  "networkType": "ethereum",
  "devdoc": {
    "kind": "dev",
    "methods": {
      "approve(address,uint256)": {
        "details": "See {IERC721-approve}."
      },
      "balanceOf(address)": {
        "details": "See {IERC721-balanceOf}."
      },
      "getApproved(uint256)": {
        "details": "See {IERC721-getApproved}."
      },
      "isApprovedForAll(address,address)": {
        "details": "See {IERC721-isApprovedForAll}."
      },
      "name()": {
        "details": "See {IERC721Metadata-name}."
      },
      "owner()": {
        "details": "Returns the address of the current owner."
      },
      "ownerOf(uint256)": {
        "details": "See {IERC721-ownerOf}."
      },
      "renounceOwnership()": {
        "details": "Leaves the contract without owner. It will not be possible to call `onlyOwner` functions. Can only be called by the current owner. NOTE: Renouncing ownership will leave the contract without an owner, thereby disabling any functionality that is only available to the owner."
      },
      "safeTransferFrom(address,address,uint256)": {
        "details": "See {IERC721-safeTransferFrom}."
      },
      "safeTransferFrom(address,address,uint256,bytes)": {
        "details": "See {IERC721-safeTransferFrom}."
      },
      "setApprovalForAll(address,bool)": {
        "details": "See {IERC721-setApprovalForAll}."
      },
      "supportsInterface(bytes4)": {
        "details": "See {IERC165-supportsInterface}"
      },
      "symbol()": {
        "details": "See {IERC721Metadata-symbol}."
      },
      "tokenURI(uint256)": {
        "details": "See {IERC721Metadata-tokenURI}."
      },
      "transferFrom(address,address,uint256)": {
        "details": "See {IERC721-transferFrom}."
      },
      "transferOwnership(address)": {
        "details": "Transfers ownership of the contract to a new account (`newOwner`). Can only be called by the current owner."
      }
    },
    "version": 1
  },
  "userdoc": {
    "kind": "user",
    "methods": {},
    "version": 1
  }
}